:020000040800F2
:1000000000000120F9070008C1070008C307000825
:10001000C5070008C7070008C9070008000000005E
:10002000000000000000000000000000112A00088D
:10003000CB07000800000000A12A0008CD07000837
:10004000490800084908000849080008490800084C
:10005000490800084908000849080008490800083C
:10006000490800084908000849080008490800082C
:10007000490800084908000849080008490800081C
:100080004908000849080008490800080000000065
:100090000000000000000000000000004908000807
:1000A00049080008490800084908000849080008EC
:1000B00049080008490800084908000849080008DC
:1000C00049080008490800084908000849080008CC
:1000D0004908000849080008490800080000000015
:1000E0004908000849080008490800080000000005
:1000F00000000000000000000000000049080008A7
:1001000000000000490800084908000849080008E4
:1001100000000000000000000000000000000000DF
:10012000490800084908000849080008490800086B
:100130004908000800000000000000000000000066
:100140000000000000000000000000004908000856
:10015000490800084908000849080008490800083B
:1001600049080008490800080000000000000000DD
:10017000000000000000000000000000000000007F
:100180000000000049080008000000000000000016
:040190004908000812
:1001A00010B5054C237833B9044B13B10448AFF3B1
:1001B00000800123237010BD10000020000000000B
:1001C000242F000808B5034B1BB103490348AFF3C4
:1001D000008008BD0000000014000020242F00084B
:1001E00053B94AB9002908BF00281CBF4FF0FF319E
:1001F0004FF0FF3000F074B9ADF1080C6DE904CE9A
:1002000000F006F8DDF804E0DDE9022304B07047F1
:100210002DE9F047089D04468E46002B4DD18A42B9
:10022000944669D9B2FA82F252B101FA02F3C2F1EC
:10023000200120FA01F10CFA02FC41EA030E94407D
:100240004FEA1C48210CBEFBF8F61FFA8CF708FB9E
:1002500016E341EA034306FB07F199420AD91CEB76
:10026000030306F1FF3080F01F81994240F21C81A8
:10027000023E63445B1AA4B2B3FBF8F008FB1033F0
:1002800044EA034400FB07F7A7420AD91CEB040425
:1002900000F1FF3380F00A81A74240F207816444F5
:1002A000023840EA0640E41B00261DB1D44000237A
:1002B000C5E900433146BDE8F0878B4209D9002DDE
:1002C00000F0EF800026C5E9000130463146BDE868
:1002D000F087B3FA83F6002E4AD18B4202D38242D2
:1002E00000F2F980841A61EB030301209E46002D81
:1002F000E0D0C5E9004EDDE702B9FFDEB2FA82F2D6
:10030000002A40F09280A1EB0C014FEA1C471FFA33
:100310008CFE0126200CB1FBF7F307FB131140EA1A
:1003200001410EFB03F0884208D91CEB010103F1E7
:10033000FF3802D2884200F2CB804346091AA4B2A9
:10034000B1FBF7F007FB101144EA01440EFB00FE7D
:10035000A64508D91CEB040400F1FF3102D2A645E2
:1003600000F2BB800846A4EB0E0440EA03409CE781
:10037000C6F12007B34022FA07FC4CEA030C20FA2E
:1003800007F401FA06F31C43F9404FEA1C4900FA4E
:1003900006F3B1FBF9F8200C1FFA8CFE09FB1811CB
:1003A00040EA014108FB0EF0884202FA06F20BD93E
:1003B0001CEB010108F1FF3A80F08880884240F28E
:1003C0008580A8F102086144091AA4B2B1FBF9F0D2
:1003D00009FB101144EA014100FB0EFE8E4508D9CD
:1003E0001CEB010100F1FF346CD28E456AD9023852
:1003F000614440EA0840A0FB0294A1EB0E01A14237
:10040000C846A64656D353D05DB1B3EB080261EBA4
:100410000E0101FA07F722FA06F3F1401F43C5E97E
:10042000007100263146BDE8F087C2F12003D840B4
:100430000CFA02FC21FA03F3914001434FEA1C47F6
:100440001FFA8CFEB3FBF7F007FB10360B0C43EAE8
:10045000064300FB0EF69E4204FA02F408D91CEB98
:10046000030300F1FF382FD29E422DD90238634496
:100470009B1B89B2B3FBF7F607FB163341EA034136
:1004800006FB0EF38B4208D91CEB010106F1FF3885
:1004900016D28B4214D9023E6144C91A46EA00467C
:1004A00038E72E46284605E70646E3E61846F8E60E
:1004B0004B45A9D2B9EB020864EB0C0E0138A3E757
:1004C0004646EAE7204694E74046D1E7D0467BE738
:1004D000023B614432E7304609E76444023842E7B0
:1004E000704700BF08B502211848184C00F037FBD0
:1004F0004FF47A7000F0FAF90221144800F02FFB53
:100500004FF47A7000F0F2F90221104800F027FB56
:100510004FF47A7000F0EAF902210C4800F01FFB5A
:100520004FF47A7000F0E2F90848022100F017FB5E
:100530004FF47A7000F0DAF92046022100F00FFB48
:100540004FF47A7001F083F8F6E700BF0000024034
:1005500000B595B02C22002109A802F0DBFC142282
:10056000002103A802F0D6FC00221A4B0192196C5C
:1005700041F0805119641B6C174903F080530193BB
:10058000019B02920B6823F4404343F400430B6049
:100590000B680E9203F440430293029B02230893DC
:1005A00001201023CDE90B0308A800F0E1FA014671
:1005B00008B172B6FEE70F23CDE90330CDE905009F
:1005C000079003A800F0B2FC08B172B6FEE715B0C0
:1005D0005DF804FB003802400070004000B591B0A7
:1005E00000F058F9FFF7B4FF1422002109A802F027
:1005F00091FC00253A4B01951A6B3A483A4C42F06F
:1006000001021A631A6B02F001020192019A02952B
:100610001A6B42F002021A631B6B03F0020302938F
:100620002A460221029B00F095FA022301222D485E
:1006300009A9CDE90932CDE90B5300F0C3F9102225
:10064000294605A802F066FC1C22294609A8CDE926
:10065000035502F05FFC254BA560C4E90035204638
:1006600043F67F63C4E90335A56100F0BFFD08B11F
:1006700072B6FEE74FF4805305A92046059300F0BB
:100680009FFE08B172B6FEE7204600F0DBFD08B120
:1006900072B6FEE7CDE9030003A9204600F02CFF67
:1006A000024608B172B6FEE76023CDE909300B902F
:1006B0000D9009A9204600F01DFE054608B172B64E
:1006C000FEE7204600F052F800F04CFF084A0948C7
:1006D000294600F073FF084B186000F055FFFEE755
:1006E00000380240000002403000002000080040B6
:1006F000482F0008E50400082C00002082B00E4BB3
:1007000000220092596C41F480415964596C01F403
:100710008041009100990192196C41F08051196457
:100720001B6C03F080530193019B0F216FF00100BC
:1007300002B000F001B900BF003802400268094B66
:100740009A4282B00BD100230193074B1A6C42F0FE
:1007500004021A641B6C03F004030193019B02B0B2
:10076000704700BF000800400038024010B5044642
:1007700086B01422002101A802F0CCFB22680D4BA8
:100780009A4214D1002300930B4B0C481A6B42F091
:1007900002021A631B6B03F002030093009B4022CA
:1007A000022301A9CDE90123059300F00BF906B05E
:1007B00010BD00BF000800400038024000040240A5
:1007C000FEE7FEE7FEE7FEE7FEE7704708B500F04C
:1007D0007BF801F085FE012803D0BDE8084002F057
:1007E00091B908BD034AD2F8883043F47003C2F8C7
:1007F0008830704700ED00E0DFF834D00D480E4936
:100800000E4A002302E0D458C4500433C4188C426A
:10081000F9D30B4A0B4C002301E013600432A242CF
:10082000FBD3FFF7DFFF02F043FBFFF7D7FE704774
:10083000000001200000002010000020A02F000870
:1008400010000020C8490020FEE7000038B50E4A1D
:100850000E4B054618784FF47A73B3FBF0F310682B
:10086000B0FBF3F000F09AF8044658B90F2D09D800
:10087000024629464FF0FF3000F05EF8044B204658
:100880001D6038BD0120FCE70000002004000020AE
:100890000800002008B50B4B1A6842F400721A6079
:1008A0001A6842F480621A601A6842F480721A6010
:1008B000032000F02FF80F20FFF7C8FFFFF71EFFFF
:1008C000002008BD003C0240034A044B11681B781D
:1008D0000B441360704700BF780000200400002024
:1008E000014B1868704700BF7800002038B50446F7
:1008F000FFF7F6FF631C1CBF054B1B78054618BFAE
:10090000E418FFF7EDFF431BA342FAD338BD00BF45
:10091000040000200749CA6822F4E06203021204BE
:1009200003F4E063120C134343F0BF6343F400335A
:10093000CB60704700ED00E0164B30B5DC68C4F3C7
:100940000224C4F10705231D042D28BF0425062B0E
:100950004FF0FF338CBF033C002403FA05F521EA76
:100960000501A34022EA0302A140002841EA020354
:10097000ACBF00F16040084A4FEA0313B8BF00F073
:100980000F00DBB2AABF00F56140135480F80033BA
:1009900030BD00BF00ED00E014ED00E00138B0F123
:1009A000807F0BD24FF0E023054A5861F02182F896
:1009B00023100020072298611A61704701207047B8
:1009C00000ED00E02DE9F74FDFF884915E4A002347
:1009D0000D6801249C4004EA050CAC4340F0A5805E
:1009E0004D6805F003044FEA43080326671E06FA24
:1009F00008F6012F6FEA060634D8876807EA060E64
:100A0000CF6807FA08F747EA0E078760476827EAC2
:100A10000C0EC5F300179F4047EA0E074760C768F2
:100A200007EA060E8F6807FA08F747EA0E07022C56
:100A3000C76019D14FEAD30A00EB8A0A03F0070B0B
:100A4000DAF820704FEA8B0B4FF00F0E0EFA0BFE08
:100A500027EA0E0E0F6907FA0BF747EA0E07CAF8E6
:100A6000207001E0032CDAD1076804FA08F43E4054
:100A7000264315F4403F066057D04FF0000ACDF8EA
:100A800004A0D9F84460314C46F48046C9F844606B
:100A9000D9F8446006F480460196019E23F00306CF
:100AA00006F1804606F59C3603F0030ED6F8088062
:100AB0004FEA8E0E0F2707FA0EF7A04228EA070723
:100AC0003AD004F58064A04238D004F58064A04296
:100AD00036D004F58064A04234D004F58064A0428E
:100AE0000CBF0424072404FA0EF43C43B460946859
:100AF0006FEA0C06EF0254BF34404CEA04049460E1
:100B0000D468AF0254BF34404CEA0404D460546843
:100B1000AF0354BF34404CEA040454601468ED033E
:100B200054BF34404CEA040414600133102B7FF4AA
:100B30004FAF03B0BDE8F08F5446D4E70124D2E7AD
:100B40000224D0E70324CEE7003C0140000002402D
:100B5000003802400AB1816170470904FBE743692C
:100B600001EA030221EA030141EA0241816170477F
:100B70002DE9F341044640B30368DD0710D4236830
:100B800098075ED423681A0700F1A08023685B07EA
:100B900000F1C080A069002840F0288100202BE0EF
:100BA0008F4B9A6802F00C02042A07D09A6802F070
:100BB0000C02082A0BD15A68510208D5884B1B68D1
:100BC0009A03DCD56368002BD9D1012014E0626858
:100BD000B2F5803F13D11A6842F480321A60FFF7F1
:100BE0007FFE7F4E054633689B03C8D4FFF778FE2F
:100BF000401B6428F7D9032002B0BDE8F081784D8E
:100C0000B2F5A02F2B6807D143F480232B602B680B
:100C100043F480332B60E2E723F480332B602B68AE
:100C200023F480232B60002AD9D1FFF759FE064612
:100C30002B689F03A3D5FFF753FE801B6428F7D9C9
:100C4000D9E7674B9A6812F00C0F07D09A6802F048
:100C50000C02082A11D15B685E020ED4604A136848
:100C60009D0702D5E368012BAFD11368216923F0FA
:100C7000F80343EAC103136084E7E268594BB2B159
:100C800001221A60FFF72CFE554D06462B68980787
:100C900007D52B68226923F0F80343EAC2032B60CF
:100CA00070E7FFF71DFE801B0228EFD9A3E71A604B
:100CB000FFF716FE4A4E0546336899077FF562AF87
:100CC000FFF70EFE401B0228F6D994E76269454BF8
:100CD00082B10122C3F8802EFFF702FE404E054686
:100CE000736F9F073FF552AFFFF7FAFD401B0228D5
:100CF000F6D980E7C3F8802EFFF7F2FD384E05469F
:100D0000736F98077FF542AFFFF7EAFD401B02289B
:100D1000F6D970E7324B1A6C12F0805228D101924A
:100D20001A6C42F080521A641B6C03F080530193DA
:100D3000019B01272C4D2B68D9051BD5A368284D95
:100D4000012B27D12B6F43F001032B67FFF7C8FD61
:100D5000234E054641F28838336F9B0739D5002F63
:100D60003FF418AF1E4A136C23F08053136411E74D
:100D70000027DFE72B6843F480732B60FFF7B0FD9B
:100D800006462B68DA05D9D4FFF7AAFD801B022896
:100D9000F7D930E7052B04D12B6F43F004032B6701
:100DA000D0E72A6F22F001022A672A6F22F004029C
:100DB0002A67002BCAD1FFF793FD41F28838064617
:100DC0002B6F9807CBD5FFF78BFD801B4045F7D9DC
:100DD00011E7FFF785FD401B4045BDD90BE700BF7C
:100DE000003802400000474200700040364DAB68BA
:100DF00003F00C03082B3DD0344B002202281A6666
:100E00002BD1FFF76DFD06462B6899011FD4D4E95D
:100E100007321343626A43EA8213E26A43EA0263D7
:100E2000A26A5208013A43EA02436B60274B264DFF
:100E300001221A66FFF754FD04462B689A013FF51C
:100E4000ADAEFFF74DFD001B0228F6D9D3E6FFF744
:100E500047FD801B0228D7D9CDE6FFF741FD0446A8
:100E60002B689B017FF59AAEFFF73AFD001B022825
:100E7000F6D9C0E601283FF4BFAE6B68E26903F41F
:100E8000800191427FF4A1AE216A03F03F028A42C1
:100E90007FF49BAE616A47F6C0721A40B2EB811FC5
:100EA0007FF493AEA26A520803F44031013AB1EBE9
:100EB000024F7FF48AAEE26A03F07063B3EB026F15
:100EC0003FF46CAE81E600BF0038024000004742AC
:100ED000134908B58B6803F00C03042B1CD0082BB6
:100EE0001CD14A684B68496813F4800314BF0D484D
:100EF0000D48C1F3881118BF002302F03F02A1FB87
:100F00000001FFF76DF9064B5B68C3F30143013342
:100F10005B00B0FBF3F008BD0248FCE70248FAE7CB
:100F20000038024040787D010024F4002DE9F041B2
:100F30000D46044610B90120BDE8F081444B1A6803
:100F400002F007028A4228D3226897072DD4D007DF
:100F500041D43F4B1A6802F00702AA4266D82268C1
:100F600051076CD4130707D53A4A2169936823F4D3
:100F7000604343EAC1039360FFF7AAFF354B364A4B
:100F80009B68C3F30313D35CD840344B1860344BD5
:100F90001868FFF75BFC0020CEE7CAB21A701B6826
:100FA00003F007038B42C6D1CEE72A4B12F0040FA1
:100FB0001EBF996841F4E0519960160742BF9968D5
:100FC00041F4604199602349A0688B6823F0F003E5
:100FD00003438B60BBE762681E4B012A1CD11B6870
:100FE00013F4003FA7D01B4EB36823F00303134351
:100FF000B360FFF775FC41F288380746B368626852
:1010000003F00C03B3EB820FA3D0FFF769FCC01B06
:101010004045F3D903208FE7911E01291B6802D8B0
:1010200013F0007FDEE713F0020FDBE7EAB21A707D
:101030001B6803F00703AB427FF47DAF8FE70549E0
:10104000E0688B6823F4E05303438B608AE700BFBA
:10105000003C0240003802406C2F000800000020D5
:1010600008000020036A23F001030362036A70B5DD
:10107000446882690D6822F073022A438D6823F068
:1010800002032B430A4DA8420BD1CD6823F008037D
:101090002B43D1E9055624F44074354323F004036F
:1010A0002C43446082614A684263036270BD00BFA2
:1010B00000000140036A23F480730362036A70B581
:1010C0004468C2690D6822F073022A438D6823F4D4
:1010D000007343EA05230B4DA8420DD1CD6823F4DC
:1010E000006343EA0523D1E9055624F4405435430F
:1010F00023F4806344EA05144460C2614A68C26311
:10110000036270BD00000140036A23F48053036250
:10111000036A30B54468C2690D6822F4E64242EAC7
:1011200005228D6823F4005343EA0533064DA84297
:1011300002BF4D6924F4804444EA85144460C261CE
:101140004A680264036230BD00000140704700003D
:10115000244A036890420ED0B0F1804F0BD0A2F524
:101160007C42904207D002F58062904203D002F5A3
:101170008062904215D14A6823F070031343194AE4
:10118000904219D0B0F1804F16D0A2F57C42904227
:1011900012D002F5806290420ED002F58062904239
:1011A0000AD0114A904207D002F58062904203D0E3
:1011B00002F58062904203D1CA6823F4407313435E
:1011C0004A6923F08003134303608B68C3620B6892
:1011D0008362044B984204BF0B690363012343619C
:1011E000704700BF000001400040014010B50446B8
:1011F00030B390F83D3003F0FF021BB980F83C207B
:10120000FFF79CFA0223206884F83D30211DFFF788
:101210009FFF012384F84630002084F83E3084F894
:101220003F3084F8403084F8413084F8423084F80C
:10123000433084F8443084F8453084F83D3010BDA4
:101240000120FCE710B5044630B390F83D3003F0C0
:10125000FF021BB980F83C20FFF778FF02232068CB
:1012600084F83D30211DFFF773FF012384F84630D9
:10127000002084F83E3084F83F3084F8403084F811
:10128000413084F8423084F8433084F8443084F8A4
:10129000453084F83D3010BD0120FCE7036A23F09F
:1012A00010030362036A70B5446882690D6822F412
:1012B000E64242EA05228D6823F0200343EA051343
:1012C0000B4DA8420DD1CD6823F0800343EA0513EE
:1012D000D1E9055624F44064354323F0400344EA41
:1012E0008504446082614A688263036270BD00BF06
:1012F0000000014070B590F83C30012B054653D0FA
:101300000120082A85F83C003DD006D8C2B1042A45
:1013100028D0002385F83C3070BD0C2AF9D128680C
:10132000FFF7F2FE2B680969DA6942F40062DA61BC
:10133000DA6922F48062DA61DA6942EA012231E094
:101340002868FFF78FFE2B6809699A6942F0080246
:101350009A619A6922F004029A619A690A439A6131
:101360000020D6E72868FFF799FF2B6809699A697A
:1013700042F400629A619A6922F480629A619A69E1
:1013800042EA0122EBE72868FFF794FE2B6809691F
:10139000DA6942F00802DA61DA6922F00402DA61FD
:1013A000DA690A43DA61DBE70220B5E710B5846841
:1013B000114324F47F4441EA03232343836010BD97
:1013C00070B590F83C30012B04464FF0020300F05A
:1013D0009180012280F83D3080F83C2000688368CD
:1013E00023F47F4323F0770383600B68602B52D094
:1013F00033D8402B67D016D8202B0DD00AD833F025
:10140000100109D0012384F83D30002384F83C30DA
:10141000104670BD302BF5D1826822F07002134364
:1014200043F0070317E0502BECD14A68CE68016AFD
:10143000056A25F001050562836921F00A0123F0A0
:10144000F00343EA06130A4383610262836823F0D0
:10145000700343F05703836011E0B3F5805F0ED053
:10146000B3F5005F0DD0702BCCD1CB68D1E9012151
:10147000FFF79CFF2268936843F077039360002294
:10148000C0E7CB68D1E90121FFF790FF226893689C
:1014900043F48043F2E74D68CE68016A21F0100101
:1014A00001628269036A22F4704223F0A00343EAD6
:1014B000051342EA063282610362836823F07003F7
:1014C00043F06703C7E74A68CE68016A056A25F0FA
:1014D00001050562836921F00A0123F0F00343EA64
:1014E00006130A4383610262836823F0700343F0AA
:1014F0004703B0E71A468BE730B590F83C30012B34
:101500004FF002032AD080F83D3003680D685C6814
:101510009A6824F070042C435C60114CA34212D0F2
:10152000B3F1804F0FD0A4F57C44A3420BD004F557
:101530008064A34207D004F58064A34203D004F57D
:101540009A34A34204D1496822F080020A439A6087
:10155000012380F83D30002380F83C30184630BD30
:1015600000000140EFF305832BB9064B186828B93A
:1015700001221A6070476FF0050070474FF0FF308E
:10158000704700BFD802002010B5EFF305845CB9A6
:10159000084B1A68012A0AD1074AD47702221A6036
:1015A00000F04EFD204610BD6FF00500FBE74FF048
:1015B000FF30F8E7D802002000ED00E0F0B587B07A
:1015C000144600220B460592EFF30582D2B9C8B14A
:1015D000002C2FD0A569002D08BF1825691E3729BA
:1015E000AC462BD86168C90728D466696EB1B208C9
:1015F000D4E9027E216857B1BEF15B0F02D924699C
:1016000004B1EEB9059807B0F0BD8022F0E7BEF155
:10161000000FF7D12469002CF4D10C4605A9CDE9BF
:1016200000C192B2214600F0DEFC01281CBF00235D
:101630000593E7E74FF0180C8022EFE71046E2E74A
:10164000CDE90147009500F096FC0590DAE710B56A
:10165000EFF3058424B910B100F01AFE204610BD46
:101660006FF00500FBE70000034B0360034B0B60CA
:1016700080231360704700BF7C0200207C000020A4
:10168000034B0360034B0B604FF480731360704790
:10169000DC060020DC02002000F108034FF0FF32DE
:1016A000C0E9022343600361002303607047002305
:1016B0000361704743684B609A688A609A6851601A
:1016C00099600368086101330360704730B50C68A6
:1016D000631C0AD103695A684A6091608B60596043
:1016E000036808610133036030BD00F1080213464E
:1016F00052681568A542FAD9EDE7D0E901120369ED
:101700008A6051605968814208BF5A6000220261B4
:101710001A68013A1A601868704710B5044601F05B
:1017200089F9A46B01F0A6F9B4FA84F0400910BD60
:10173000034610B41A6C08466AB1DC689968144410
:101740008C4228BF1968DC6028BFD960D9685DF871
:10175000044B01F0D1BB5DF8044B704770B50446F3
:1017600001F068F994F8455004F124066DB2002D9B
:1017700014DCFF2384F8453001F07CF901F05AF9BC
:1017800094F8445004F110066DB2002D12DCFF23D2
:1017900084F84430BDE8704001F06CB9636A002BF6
:1017A000E7D0304600F00AFE08B100F093FE013D9C
:1017B0006DB2DCE72369002BE9D0304600F0FEFD76
:1017C00008B100F087FE013D6DB2DEE770B5164648
:1017D000026C856B044642B906681EB9806800F049
:1017E0008FFEA6600135A56370BD66B9406801F043
:1017F00083FB6368226C1344A26863609342F1D355
:1018000023686360EEE7C06801F076FB226CE36852
:1018100051429B1A2268E36093423EBFA3685B1863
:10182000E360022EDED1002DDCD0013DDAE738B5D1
:101830000D46044640B94FF0500383F31188BFF3BF
:101840006F8FBFF34F8FFEE701F0F4F8D4E90F314B
:10185000226862604B43D0185B1A1344A060E360B7
:101860000020FF23A06384F8443084F845304DB94C
:1018700023691BB104F1100000F0A0FD01F0FAF89B
:10188000012038BD04F11000FFF706FF04F1240029
:10189000FFF702FFF2E713B51C4640B94FF05003C3
:1018A00083F31188BFF36F8FBFF34F8FFEE743B908
:1018B0004FF0500383F31188BFF36F8FBFF34F8F47
:1018C000FEE74AB191B94FF0500383F31188BFF39B
:1018D0006F8FBFF34F8FFEE741B14FF0500383F39B
:1018E0001188BFF36F8FBFF34F8FFEE75023019333
:1018F000019B502B08D04FF0500383F31188BFF3A6
:101900006F8FBFF34F8FFEE7002908BF2246019B70
:1019100022600123C4E90F0184F8463019462046AD
:10192000FFF785FF9DF8103084F84C30204602B058
:1019300010BD2DE9F04385B0884601921F4604464C
:1019400040B94FF0500383F31188BFF36F8FBFF39B
:101950004F8FFEE751B9036C43B14FF0500383F34F
:101960001188BFF36F8FBFF34F8FFEE7022F0BD1AC
:10197000E36B012B08D04FF0500383F31188BFF3C2
:101980006F8FBFF34F8FFEE700F0AAFD064650B9F8
:10199000019B4BB14FF0500383F31188BFF36F8F5E
:1019A000BFF34F8FFEE700264FF0000937E0019D9F
:1019B0001DB901F05FF8002047E016B902A800F059
:1019C00041FD01F057F800F081FB01F033F894F885
:1019D0004430FF2B08BF84F8449094F84530FF2B27
:1019E00008BF84F8459001F045F801A902A800F06D
:1019F00035FD00283FD101F01DF8A26BE36B9A4240
:101A000026D101F037F8019904F1100000F09EFC96
:101A10002046FFF7A3FE00F0D5FB08B3012601F036
:101A200009F8A26BE36B9A4201D3022FBFD13A4669
:101A300041462046FFF7CAFE636A1BB104F1240049
:101A400000F0BCFC01F016F8012005B0BDE8F08301
:101A500001F010F82046FFF781FE00F0B3FBDDE750
:101A60004FF0E0234FF08052C3F8042DBFF34F8FA7
:101A7000BFF36F8FD2E72046FFF770FE00F0A2FBA6
:101A800099E72DE9F843894690461F46044640B938
:101A90004FF0500383F31188BFF36F8FBFF34F8F65
:101AA000FEE751B9036C43B14FF0500383F3118843
:101AB000BFF36F8FBFF34F8FFEE7022F0BD1E36BA6
:101AC000012B08D04FF0500383F31188BFF36F8FC1
:101AD000BFF34F8FFEE701F0C3F8EFF311864FF02D
:101AE000500383F31188BFF36F8FBFF34F8FA26B47
:101AF000E36B9A4201D3022F23D194F84550A36B94
:101B00006DB23A4649462046FFF760FE6B1C13D182
:101B1000636A0BB901200BE004F1240000F04EFCD5
:101B20000028F7D0B8F1000FF4D00120C8F8000069
:101B300086F31188BDE8F88301356DB284F845500D
:101B4000E8E70020F4E72DE9FF410F460192044643
:101B500040B94FF0500383F31188BFF36F8FBFF389
:101B60004F8FFEE751B9036C43B14FF0500383F33D
:101B70001188BFF36F8FBFF34F8FFEE700F0B0FC0B
:101B8000064650B9019B4BB14FF0500383F31188C7
:101B9000BFF36F8FBFF34F8FFEE700264FF00008B3
:101BA0003CE0019D1DB900F065FF00204AE016B938
:101BB00002A800F047FC00F05DFF00F087FA00F09B
:101BC00039FF94F84430FF2B08BF84F8448094F820
:101BD0004530FF2B08BF84F8458000F04BFF01A97A
:101BE00002A800F03BFCB0BB2046FFF796FD60B3B7
:101BF000019904F1240000F0A9FB2046FFF7AEFD97
:101C000000F0E0FA48B94FF0E0234FF08052C3F8FB
:101C1000042DBFF34F8FBFF36F8F012600F00AFF33
:101C2000A56B002DBDD039462046013DFFF780FD54
:101C3000A56323691BB104F1100000F0BFFB00F0A5
:101C400019FF012004B0BDE8F0812046FFF786FDB2
:101C500000F0B8FAE1E72046FFF780FD00F0B2FAA5
:101C60002046FFF75AFD0028D7D09EE710B5074A57
:101C7000002352F833402CB942F8331002EBC3036F
:101C8000586010BD0133082BF3D1FAE73807002064
:101C900070B504460D46164600F0CCFE94F844306C
:101CA000FF2B04BF002384F8443094F84530FF2B09
:101CB00004BF002384F8453000F0DCFEA36B2BB991
:101CC0003246294604F1240000F05AFB2046BDE8C4
:101CD0007040FFF743BD00002DE9F041044600F0DD
:101CE000A9FE294B294E1A68294F01321A6035681E
:101CF000002D3DD134601B68012B1FD1B8464046F2
:101D00000135FFF7C9FC382D08F11408F7D1DFF8C9
:101D1000A880204D4046FFF7BFFC2846FFF7BCFCDB
:101D20001D48FFF7B9FC1D48FFF7B6FC1C48FFF73C
:101D3000B3FC1C4BC3F800801B4B1D601B4A13688F
:101D4000013313601A4A63641168E36A14208B42FA
:101D500000FB037004F1040188BF1360FFF7AAFCC5
:101D600000F088FE134B1B6803B13368BDE8F081B7
:101D7000104B1B68002BE1D13368DA6AE36A9A42A0
:101D800098BF3460DAE700BFE40B0020780700203A
:101D9000840700200C0C00202C0C0020580C002084
:101DA000440C00207C07002080070020F00B00205E
:101DB000F40B0020400C0020F80B0020F8B5154B68
:101DC000154E1D680446306804300F46FFF795FC39
:101DD000631C07D137B131681048BDE8F8400431C1
:101DE000FFF768BC33682C195C6007D30C4B18688C
:101DF0003168BDE8F8400431FFF768BC094B18684A
:101E000031680431FFF762FC074B1A68A24288BFB1
:101E10001C60F8BD6C0C002078070020440C0020EA
:101E2000800700207C070020200C0020064A136851
:101E30001968064B19B94FF0FF321A6070471268E3
:101E4000D268D2685268F8E77C070020200C002096
:101E500010B590F8593004463BB9006B00F0EAFF2A
:101E60002046BDE8104000F0E5BF012BF9D0022B61
:101E700008D04FF0500383F31188BFF36F8FBFF387
:101E80004F8FFEE710BD000080B5114C114F124D71
:101E9000236853B94FF0E0234FF08052C3F8042D6C
:101EA000BFF34F8FBFF36F8FF1E700F0C3FDFB6807
:101EB000DE68301DFFF721FC2B68013B2B60236897
:101EC000013B236000F0D6FD3046FFF7C1FFDFE79E
:101ED000E80B0020580C0020E40B00202DE9F0470F
:101EE000DDE909844FEA82094A4606460D46206B21
:101EF000A5211F4601F00EF8226BA9F104099144B7
:101F000029F00709A5B36B1E04F134020F3513F84D
:101F1000010F02F8010B08B1AB42F8D1002384F89D
:101F20004330089D372D28BF37254FF0000AE56262
:101F3000E564201DC4F850A0FFF7B9FBC5F13805D2
:101F400004F11800FFF7B3FBC4F854A02461A561A5
:101F5000646284F858A03A463146484600F03EFD97
:101F60002060B8F1000F01D0C8F80040BDE8F0874C
:101F700084F83450D5E770B586B0DDE90B5445B927
:101F80004FF0500383F31188BFF36F8FBFF34F8F70
:101F9000FEE744B94FF0500383F31188BFF36F8F0E
:101FA000BFF34F8FFEE75C260596059E5C2E08D09A
:101FB0004FF0500383F31188BFF36F8FBFF34F8F40
:101FC000FEE72563022584F8595004AD01950A9D6A
:101FD00002940095059EFFF781FF2046FFF77CFEE7
:101FE000049806B070BD2DE9F043074685B0900017
:101FF00088461646994600F085FE0546E8B15C2005
:1020000000F080FE0446A8B1002380F859300D9BF3
:10201000056301930C9B0290009332464B46414668
:102020003846FFF75BFF2046FFF756FE012005B05C
:10203000BDE8F083284600F0FDFE4FF0FF30F6E7E4
:1020400010B588B0002407AA06A905A8CDE9054463
:10205000FFF70AFB059B0293069B079A1649174850
:10206000CDE900432346FFF786FF18B300F0DEFA00
:10207000012814D14FF0500383F31188BFF36F8F01
:10208000BFF34F8F0E4B4FF0FF321A600D4B1860AD
:102090000D4B1C6008B0BDE8104000F05BBD013086
:1020A00008D14FF0500383F31188BFF36F8FBFF354
:1020B0004F8FFEE708B010BD7C2F0008891E000876
:1020C000200C0020400C00206C0C0020024A1368F9
:1020D00001331360704700BFEC0B0020014B186800
:1020E000704700BF6C0C00202D4B1B682DE9F0479A
:1020F000002B4FD12B4B1C6801341C60BCB92A4B00
:102100001A68126842B14FF0500383F31188BFF38D
:102110006F8FBFF34F8FFEE7244A1968106818606D
:102120001160234A136801331360FFF77FFE214ECD
:1021300033689C420CD3DFF87080DFF88090DFF8C2
:1021400080A0D8F800301B682BB94FF0FF33336004
:102150000020BDE8F087D8F80030DB68DD686B68E8
:102160009C42F4D32F1D3846FFF7C7FAAB6A1BB168
:1021700005F11800FFF7C1FAEB6AD9F80020142026
:102180009342394600FB03A088BFC9F80030FFF72F
:1021900091FAD6E7084A136801331360D8E700BF05
:1021A000EC0B00206C0C00207C0700208007002036
:1021B000240C0020200C0020280C0020F40B002010
:1021C00084070020F7B52A4C236843B94FF0500329
:1021D00083F31188BFF36F8FBFF34F8FFEE700F0DB
:1021E00029FC2368013B236024681CB9214B1B6830
:1021F000002B38D100F03EFC002003B0F0BDEB68AE
:10220000DC6804F11800FFF778FA211D08460191F7
:10221000FFF773FAE36A326801991420934200FBD6
:10222000037088BF3360FFF745FA134BE26A1B68FF
:10223000DB6A9A4202D3114B01221A602B68002BF1
:10224000DDD10CB1FFF7F2FD0D4D2C6844B10B4E02
:102250000127FFF749FF00B13760013CF9D12C603D
:10226000064B1B68C6E7074D074E084FE6E700BF61
:10227000EC0B0020E40B002078070020700C0020FD
:10228000280C00202C0C0020F40B002084070020D8
:1022900008B550B94FF0E0234FF08052C3F8042D39
:1022A000BFF34F8FBFF36F8F08BD0A4B196841B161
:1022B0004FF0500383F31188BFF36F8FBFF34F8F3D
:1022C000FEE7FFF703FFFFF779FDFFF77BFF00282D
:1022D000E0D0E9E7EC0B0020174B1A68174B70B5FC
:1022E00012B101221A6070BD154D1A602A68154995
:1022F000142606FB02F3C818CC588CB14468083386
:10230000646844600B449C4204BF636843601423C8
:1023100003FB02114B68D9680B4B19602A60E2E796
:1023200042B94FF0500383F31188BFF36F8FBFF3AF
:102330004F8FFEE7013ADCE7EC0B0020700C002029
:10234000F40B0020840700207807002010B50C460D
:1023500040B94FF0500383F31188BFF36F8FBFF381
:102360004F8FFEE7054B19681831FFF7AFF920468C
:102370000121BDE81040FFF721BD00BF7807002014
:1023800038B50D46144640B94FF0500383F3118819
:10239000BFF36F8FBFF34F8FFEE7074B19681831FC
:1023A000FFF788F9002C21460CBF28464FF0FF307C
:1023B000BDE83840FFF702BD78070020C36813B5B9
:1023C000DC6844B94FF0500383F31188BFF36F8F7B
:1023D000BFF34F8FFEE704F1180108460191FFF7A4
:1023E0008CF9124B01991B68EBB9211D084601912C
:1023F000FFF783F90E4AE36A10680199834288BFA8
:1024000013600C4A142000FB0320FFF753F90A4B1A
:10241000E26A1B68DB6A9A4285BF084B01200020F4
:10242000186002B010BD0648EFE700BFEC0B0020BB
:10243000F40B00208407002078070020700C002097
:102440002C0C0020034B1B680360034B1B6843608C
:10245000704700BF240C00206C0C002070B50C46A7
:10246000054640B94FF0500383F31188BFF36F8FD7
:10247000BFF34F8FFEE741B94FF0500383F311884C
:10248000BFF36F8FBFF34F8FFEE700F0D3FA0F4B10
:10249000196823685A1C10D00D482E6800686A68B5
:1024A000864201D08A420FD9881A83420AD95B1A20
:1024B000134423602846FFF7C5FF002400F0DAFA32
:1024C000204670BD002323600124F7E76C0C002038
:1024D000240C0020014B01221A607047700C002070
:1024E000054B1B6833B1054B1B68002B0CBF02204A
:1024F0000020704701207047400C0020EC0B0020AA
:1025000013B510B9002002B010BD1C4B1C688442EA
:1025100008D04FF0500383F31188BFF36F8FBFF3E0
:102520004F8FFEE7236D43B94FF0500383F31188BB
:10253000BFF36F8FBFF34F8FFEE7E16AE26C013BA1
:1025400091422365DED0002BDCD1211D084601918C
:10255000FFF7D3F8E36C0199E362C3F13802A2619B
:10256000074A1068834288BF1360064A142000FBA4
:102570000320FFF79FF80120C5E700BF7807002080
:10258000F40B002084070020F7B5114C00F052FA3C
:102590002568BDB90F4F104E3846FFF77DF830461D
:1025A000FFF77AF80D4B0E4A1F600E4B10211E608C
:1025B0000A200D4B0095FFF76EF9206010B10B4912
:1025C000FFF754FB03B0BDE8F04000F053BA00BF82
:1025D000980D00201C0D0020300D0020740C0020F0
:1025E0007C0C0020780C0020480D0020812F000872
:1025F000914208B5416000610AD8D21A83699A42B3
:102600000DD2084B011D1868FFF760F8002008BDC7
:102610009A4201D2994202D2034B011DF3E70120F5
:10262000F5E700BF780C0020740C002010B588B0CE
:10263000FFF7AAFF124B1B68B3B1002407AA06A933
:1026400005A8CDE90544FFF71BF8059B0293069BFF
:10265000019302230093079A0A490B482346FFF788
:102660008AFC0A4B186040B94FF0500383F311887D
:10267000BFF36F8FBFF34F8FFEE7012008B010BD8F
:10268000980D0020862F0008952700089C0D00203B
:102690007FB5164604461A4640B94FF0500383F3FF
:1026A0001188BFF36F8FBFF34F8FFEE70D4D286882
:1026B00080B10529CDE9001602940DDCFFF710FF6B
:1026C0000023022808BF089A286818BF1A466946DE
:1026D000FFF72FF904B070BD00236946FFF7D1F969
:1026E000F8E700BF980D00202DE9FF47DFF8A08034
:1026F0000646FFF7F3FCD8F800308342054640D980
:10270000214F4FF000093B681A685AB91F4A1168F7
:1027100039601360012328463360C8F8005004B0C4
:10272000BDE8F087DB68DC68D3F800A0211D08460F
:102730000391FEF7E2FF236A2046984794F8283079
:10274000039913F0040FDED0A36953449A4505D2D0
:10275000386863602461FEF7B9FFD4E70023CDF841
:102760000090524619462046FFF792FF0028CAD132
:102770004FF0500383F31188BFF36F8FBFF34F8F78
:10278000FEE70023C7E700BF740C0020780C002090
:10279000440D00202DE9F0436E4D6F4E89B02B683B
:1027A000D3F80080B8F1000F35D0DB68D3F8008093
:1027B0000024FFF78BFC04A8FFF796FF049B8146DB
:1027C000002B69D1002C4CD1404550D3FFF7FAFCC7
:1027D0002B68DB68DF68381DFEF78FFF97F828301D
:1027E00058071AD5B96943464A4641443846FFF767
:1027F000FFFEB0B100942346424621463846FFF71B
:1028000047FF70B94FF0500383F31188BFF36F8F08
:10281000BFF34F8FFEE70124CBE723F0010387F8D6
:1028200028303B6A384698473068002204A9FFF7F1
:102830008AF90028B3D0049B0698002B2FDB069C56
:102840006369002B32D103A8FFF74EFF049B0246B9
:10285000092BE9D8DFE803F02E2E2E575E762E2EB8
:10286000575E3E4B1B681C68B4FA84F464093068F8
:102870002246A8EB0901FFF70BFAFFF7A3FC00289B
:10288000D2D14FF0E0234FF08052C3F8042DBFF3B4
:102890004F8FBFF36F8FC7E7FFF794FCC4E7059B2B
:1028A00007999847049B002BBEDBC8E7201DFEF765
:1028B00024FFC8E794F82830A16943F0010384F8A5
:1028C0002830059B20461944FFF792FE0028ABD024
:1028D000236A2046984794F828305907A4D5A2695E
:1028E000059900230A44009319462046FFF7D0FEBD
:1028F000002899D14FF0500383F31188BFF36F8FF5
:10290000BFF34F8FFEE794F8283023F0010384F8DB
:10291000283089E794F8283043F0010384F8283000
:102920000599A16141B94FF0500383F31188BFF3BA
:102930006F8FBFF34F8FFEE7034601442046FFF73A
:1029400057FE71E794F828309A07DED4204600F04D
:1029500071FA69E7740C0020980D0020780C0020B3
:1029600008480068006880F308884FF0000080F392
:10297000148862B661B6BFF34F8FBFF36F8F00DF6D
:1029800000BF000008ED00E0DFF80C00016841F432
:10299000700101607047000088ED00E082B0002304
:1029A00001930D4B1B68013308D04FF0500383F3A4
:1029B0001188BFF36F8FBFF34F8FFEE74FF05003C7
:1029C00083F31188BFF36F8FBFF34F8F019B002BF1
:1029D000FCD002B0704700BF0C0000204FF08073A5
:1029E00040F8043C074B40F80C3C21F001016FF02B
:1029F000020340F8081C40F8202C40F8243C4438DE
:102A0000704700BF9D290008000000000000000082
:102A1000074B19680868B0E8F04F80F30988BFF3E6
:102A20006F8F4FF0000080F311887047AFF3008084
:102A3000780700204FF0500383F31188BFF36F8FA6
:102A4000BFF34F8F0A4A13680133012B13600ED175
:102A50004FF0E023D3F8043DDBB243B14FF0500315
:102A600083F31188BFF36F8FBFF34F8FFEE770477B
:102A70000C000020084A136843B94FF0500383F359
:102A80001188BFF36F8FBFF34F8FFEE7013B1360D9
:102A90000BB983F3118870470C0000200000000080
:102AA000EFF30980BFF36F8F154B1A681EF0100FFC
:102AB00008BF20ED108A20E9F04F10602DE90900D1
:102AC0004FF0500080F31188BFF34F8FBFF36F8F2B
:102AD000FFF702FC4FF0000080F3118809BC196871
:102AE0000868B0E8F04F1EF0100F08BFB0EC108A75
:102AF00080F30988BFF36F8F704700BFAFF300808A
:102B00007807002008B54FF0500383F31188BFF316
:102B10006F8FBFF34F8FFFF7E7FA28B14FF0E02335
:102B20004FF08052C3F8042D002383F3118808BDB1
:102B30004FF0E022002313619361054B4FF47A714B
:102B40001B68B3FBF1F3013B53610723136170472B
:102B5000000000204FF0E02337B5D3F8001D3A4ABB
:102B6000914208D14FF0500383F31188BFF36F8F68
:102B7000BFF34F8FFEE7D3F8002D344B9A4208D1B4
:102B80004FF0500383F31188BFF36F8FBFF34F8F64
:102B9000FEE72F4B1A78D2B20192FF221A701B78EF
:102BA0002C4ADBB28DF803309DF8033003F050035C
:102BB0001370294A0723136000219DF803000006C3
:102BC00003F1FF340CD411B1032B136011D04FF07B
:102BD000500383F31188BFF36F8FBFF34F8FFEE76E
:102BE0009DF803305B00DBB28DF8033001212346F2
:102BF000E3E74FF440731360019B154A4FF0E02464
:102C0000DBB21370D4F8203D43F47003C4F8203DC8
:102C1000D4F8203D43F07043C4F8203DFFF788FF0F
:102C20000E4B00251D60FFF7AFFED4F8343F43F094
:102C30004043C4F8343FFFF793FEFFF74DFBFFF727
:102C4000ADFE284603B030BD71C20F4170C20F41C6
:102C500000E400E0A00D0020A40D00200C000020E6
:102C6000EFF305830F2B0ED9114A9B5C114A1278A2
:102C70009A4208D94FF0500383F31188BFF36F8F46
:102C8000BFF34F8FFEE74FF0E0230B4AD3F80C3D24
:102C9000126803F4E063934208D94FF0500383F3C2
:102CA0001188BFF36F8FBFF34F8FFEE7704700BFF0
:102CB000F0E300E0A00D0020A40D002010B50F4BA4
:102CC0001A461B688342FBD354681119884201BF1E
:102CD0004168104609195160446801198B4207D1B7
:102CE000074909688B421FBF59681B680919416071
:102CF0009042036018BF106010BD00BFC0490020A3
:102D0000A80D00202DE9F0410446FFF7DFF9424805
:102D1000424D03680BBB42494E071FBFCB1D23F03A
:102D2000070301F57052D21A14BF19464FF47052BE
:102D30000A443C4E083A22F00702002373603160D7
:102D4000C2E90033531AC1E900230260364A136016
:102D5000364A13604FF000432B602F68274255D14D
:102D6000002C46D004F1080361071CBF23F00703C1
:102D70000833002B4AD02D4C26689E4246D3294A60
:102D800015686968994204D2D5F800C0BCF1000FFB
:102D900015D10068A84239D0C91A2868D2F8008035
:102DA0001060102912D9E81842070BD04FF05003D9
:102DB00083F31188BFF36F8FBFF34F8FFEE72A466F
:102DC0006546DEE741606B60FFF778FF6B68164988
:102DD000174A0868F61A1F4300232B601368266001
:102DE000864203F1010338BF0E6008F108046F60EA
:102DF0001360FFF7E7F963070AD04FF0500383F33E
:102E00001188BFF36F8FBFF34F8FFEE70024F0E709
:102E10002046BDE8F08100BFA80D0020AC4900208D
:102E2000AC0D0020C0490020B4490020B04900206A
:102E3000B849002010B5044690B31A4A50F8043C33
:102E40001268134208D14FF0500383F31188BFF387
:102E50006F8FBFF34F8FFEE750F8081C41B14FF062
:102E6000500383F31188BFF36F8FBFF34F8FFEE7DB
:102E700023EA020340F8043CFFF728F90A4A54F811
:102E8000043C1168A4F108000B441360FFF716FF1F
:102E9000064A1368BDE8104001331360FFF792B98A
:102EA00010BD00BFAC490020B0490020BC49002043
:102EB00070B50D4D0D4C641BA4100026A64209D11F
:102EC0000B4D0C4C00F02EF8641BA4100026A642FB
:102ED00005D170BD55F8043B98470136EEE755F82B
:102EE000043B98470136F2E7982F0008982F000816
:102EF000982F00089C2F00080A44914200F1FF33EC
:102F000000D1704710B511F8014B03F8014F914201
:102F1000F9D110BD02440346934200D1704703F833
:102F2000011BF9E7F8B500BFF8BC08BC9E46704726
:0C2F3000F8B500BFF8BC08BC9E46704716
:102F3C0064656661756C745461736B003C2F00089A
:102F4C000000000000000000000000000000000075
:102F5C00000200001800000000000000000000004B
:102F6C00000000000000000001020304060708092D
:102F7C0049444C4500546D725100546D7220537687
:042F8C0063000000DE
:082F900080D2FF7F0100000068
:042F9800C501000867
:042F9C00A101000887
:102FA0000024F4000100000010000000AAAAAAAA50
:04000005080007F9EF
:00000001FF
