:020000040800F2
:1000000000000120913B0008FD3200080333000886
:10001000093300080F330008153300080000000002
:10002000000000000000000000000000919900089E
:100030001B33000800000000E19B000889730008E2
:10004000E13B0008E13B0008E13B0008E13B000820
:10005000E13B0008E13B0008293300083733000882
:10006000E13B0008E13B0008E13B0008E13B000800
:10007000E13B0008E13B0008E13B0008E13B0008F0
:10008000E13B0008E13B0008E13B00080000000004
:10009000000000000000000000000000E13B00083C
:1000A000E13B000845330008E13B0008E13B000864
:1000B00059330008E13B0008E13B0008E13B000840
:1000C000E13B0008E13B0008E13B0008E13B0008A0
:1000D000E13B0008E13B00086D3300080000000030
:1000E000E13B0008E13B0008E13B000800000000A4
:1000F000000000000000000000000000E13B0008DC
:1001000000000000E13B0008E13B0008E13B000883
:1001100000000000000000000000000000000000DF
:10012000E13B0008E13B0008E13B0008E13B00083F
:10013000E13B00080000000000000000000000009B
:10014000000000000000000000000000E13B00088B
:10015000E13B0008E13B0008E13B0008E13B00080F
:10016000E13B0008E13B0008000000000000000047
:10017000000000000000000000000000000000007F
:1001800000000000E13B000800000000000000004B
:04019000E13B000847
:1001A00010B5054C237833B9044B13B10448AFF3B1
:1001B00000800123237010BD880000200000000093
:1001C000DCA2000808B5034B1BB103490348AFF399
:1001D000008008BD000000008C000020DCA20008A8
:1001E00081F0004102E000BF83F0004330B54FEAE8
:1001F00041044FEA430594EA050F08BF90EA020F55
:100200001FBF54EA000C55EA020C7FEA645C7FEAE7
:10021000655C00F0E2804FEA5454D4EB5555B8BF0A
:100220006D420CDD2C4480EA020281EA030382EA7B
:10023000000083EA010180EA020281EA0303362D0D
:1002400088BF30BD11F0004F4FEA01314FF4801CE0
:100250004CEA113102D0404261EB410113F0004FF2
:100260004FEA03334CEA133302D0524263EB4303A9
:1002700094EA050F00F0A780A4F10104D5F1200E47
:100280000DDB02FA0EFC22FA05F2801841F10001A2
:1002900003FA0EF2801843FA05F359410EE0A5F176
:1002A00020050EF1200E012A03FA0EFC28BF4CF0A7
:1002B000020C43FA05F3C01851EBE37101F000455D
:1002C00007D54FF0000EDCF1000C7EEB00006EEB6A
:1002D0000101B1F5801F1BD3B1F5001F0CD34908F4
:1002E0005FEA30004FEA3C0C04F101044FEA44524B
:1002F00012F5800F80F09A80BCF1004F08BF5FEAD2
:10030000500C50F1000041EB045141EA050130BDB1
:100310005FEA4C0C404141EB0101013C28BFB1F5C3
:10032000801FE9D291F0000F04BF01460020B1FA0E
:1003300081F308BF2033A3F10B03B3F120020CDAE1
:100340000C3208DD02F1140CC2F10C0201FA0CF0BF
:1003500021FA02F10CE002F11402D8BFC2F1200C24
:1003600001FA02F120FA0CFCDCBF41EA0C019040DA
:10037000E41AA2BF01EB0451294330BD6FEA040423
:100380001F3C1CDA0C340EDC04F11404C4F120020E
:1003900020FA04F001FA02F340EA030021FA04F320
:1003A00045EA030130BDC4F10C04C4F1200220FA77
:1003B00002F001FA04F340EA0300294630BD21FAB5
:1003C00004F0294630BD94F0000F83F4801306BF7B
:1003D00081F480110134013D4EE77FEA645C18BF6F
:1003E0007FEA655C29D094EA050F08BF90EA020F06
:1003F00005D054EA000C04BF1946104630BD91EAFE
:10040000030F1EBF0021002030BD5FEA545C05D100
:100410004000494128BF41F0004130BD14F580043F
:100420003CBF01F5801130BD01F0004545F0FE41B3
:1004300041F470014FF0000030BD7FEA645C1ABFE8
:10044000194610467FEA655C1CBF0B46024650EA1F
:10045000013406BF52EA033591EA030F41F400214B
:1004600030BD00BF90F0000F04BF0021704730B5D1
:100470004FF4806404F132044FF000054FF00001A6
:1004800050E700BF90F0000F04BF0021704730B567
:100490004FF4806404F1320410F0004548BF40423C
:1004A0004FF000013EE700BF42004FEAE2014FEA91
:1004B00031014FEA02701FBF12F07F4393F07F4F6C
:1004C00081F06051704732F07F4208BF704793F06F
:1004D0007F4F04BF41F40021704730B54FF4607482
:1004E00001F0004521F000411CE700BF50EA010285
:1004F00008BF704730B54FF000050AE050EA01022E
:1005000008BF704730B511F0004502D5404261EB9D
:1005100041014FF4806404F132045FEA915C3FF4DE
:10052000D8AE4FF003025FEADC0C18BF03325FEA7B
:10053000DC0C18BF033202EBDC02C2F1200300FA2C
:1005400003FC20FA02F001FA03FE40EA0E0021FA51
:1005500002F11444BDE600BF70B54FF0FF0C4CF43F
:10056000E06C1CEA11541DBF1CEA135594EA0C0FF1
:1005700095EA0C0F00F0DEF82C4481EA030621EA2C
:100580004C5123EA4C5350EA013518BF52EA033567
:1005900041F4801143F4801338D0A0FB02CE4FF019
:1005A0000005E1FB02E506F00042E0FB03E54FF049
:1005B0000006E1FB03569CF0000F18BF4EF0010E41
:1005C000A4F1FF04B6F5007F64F5407404D25FEA3D
:1005D0004E0E6D4146EB060642EAC62141EA5551F0
:1005E0004FEAC52040EA5E504FEACE2EB4F1FD0C32
:1005F00088BFBCF5E06F1ED8BEF1004F08BF5FEAB0
:10060000500E50F1000041EB045170BD06F0004661
:1006100046EA010140EA020081EA0301B4EB5C040E
:10062000C2BFD4EB0C0541EA045170BD41F4801106
:100630004FF0000E013C00F3AB8014F1360FDEBF2B
:10064000002001F0004170BDC4F10004203C35DA07
:100650000C341BDC04F11404C4F1200500FA05F38A
:1006600020FA04F001FA05F240EA020001F000422B
:1006700021F0004110EBD37021FA04F642EB0601A1
:100680005EEA430E08BF20EAD37070BDC4F10C04CB
:10069000C4F1200500FA04F320FA05F001FA04F28F
:1006A00040EA020001F0004110EBD37041F100017B
:1006B0005EEA430E08BF20EAD37070BDC4F1200586
:1006C00000FA05F24EEA020E20FA04F301FA05F2EE
:1006D00043EA020321FA04F001F0004121FA04F296
:1006E00020EA020000EBD3705EEA430E08BF20EA66
:1006F000D37070BD94F0000F0FD101F000464000A0
:1007000041EB010111F4801F08BF013CF7D041EA21
:10071000060195F0000F18BF704703F00046520025
:1007200043EB030313F4801F08BF013DF7D043EAF6
:100730000603704794EA0C0F0CEA135518BF95EAAC
:100740000C0F0CD050EA410618BF52EA4306D1D133
:1007500081EA030101F000414FF0000070BD50EA52
:10076000410606BF1046194652EA430619D094EADC
:100770000C0F02D150EA013613D195EA0C0F05D1C6
:1007800052EA03361CBF104619460AD181EA03011A
:1007900001F0004141F0FE4141F470014FF00000D2
:1007A00070BD41F0FE4141F4780170BD70B54FF06D
:1007B000FF0C4CF4E06C1CEA11541DBF1CEA1355ED
:1007C00094EA0C0F95EA0C0F00F0A7F8A4EB0504CF
:1007D00081EA030E52EA03354FEA013100F08880C6
:1007E0004FEA03334FF0805545EA131343EA12638F
:1007F0004FEA022245EA111545EA10654FEA002644
:100800000EF000419D4208BF964244F1FD0404F5FC
:10081000407402D25B084FEA3202B61A65EB030558
:100820005B084FEA32024FF480104FF4002CB6EB15
:10083000020E75EB030E22BFB61A754640EA0C0095
:100840005B084FEA3202B6EB020E75EB030E22BFD5
:10085000B61A754640EA5C005B084FEA3202B6EB16
:10086000020E75EB030E22BFB61A754640EA9C00D5
:100870005B084FEA3202B6EB020E75EB030E22BFA5
:10088000B61A754640EADC0055EA060E18D04FEA63
:10089000051545EA16754FEA06164FEAC30343EA03
:1008A00052734FEAC2025FEA1C1CC0D111F4801FD0
:1008B0000BD141EA00014FF000004FF0004CB6E7C9
:1008C00011F4801F04BF01430020B4F1FD0C88BF68
:1008D000BCF5E06F3FF6AFAEB5EB030C04BFB6EB73
:1008E000020C5FEA500C50F1000041EB045170BD66
:1008F0000EF0004E4EEA113114EB5C04C2BFD4EB93
:100900000C0541EA045170BD41F480114FF0000E16
:10091000013C90E645EA060E8DE60CEA135594EA92
:100920000C0F08BF95EA0C0F3FF43BAF94EA0C0F95
:100930000AD150EA01347FF434AF95EA0C0F7FF40A
:1009400025AF104619462CE795EA0C0F06D152EA5E
:1009500003353FF4FDAE1046194622E750EA410642
:1009600018BF52EA43067FF4C5AE50EA41047FF453
:100970000DAF52EA43057FF4EBAE12E74FF0FF3CB8
:1009800006E000BF4FF0010C02E000BF4FF0010C89
:100990004DF804CD4FEA410C7FEA6C5C4FEA430C02
:1009A00018BF7FEA6C5C1BD001B050EA410C0CBF51
:1009B00052EA430C91EA030F02BF90EA020F0020B3
:1009C000704710F1000F91EA030F58BF994208BF1A
:1009D00090422CBFD8176FEAE37040F001007047D7
:1009E0004FEA410C7FEA6C5C02D150EA013C07D12E
:1009F0004FEA430C7FEA6C5CD6D152EA033CD3D079
:100A00005DF8040B704700BF8446104662468C4672
:100A10001946634600E000BF01B5FFF7B7FF0028A5
:100A200048BF10F1000F01BD4DF808EDFFF7F4FFCE
:100A30000CBF012000205DF808FB00BF4DF808ED59
:100A4000FFF7EAFF34BF012000205DF808FB00BF7C
:100A50004DF808EDFFF7E0FF94BF012000205DF89E
:100A600008FB00BF4DF808EDFFF7CEFF94BF012053
:100A700000205DF808FB00BF4DF808EDFFF7C4FF4C
:100A800034BF012000205DF808FB00BF4A0011D2EE
:100A900012F5001211D20DD56FF47873B3EB6252D8
:100AA0000ED44FEAC12343F0004343EA505323FAE4
:100AB00002F070474FF00000704750EA013002D159
:100AC0004FF0FF3070474FF0000070474FEA41028F
:100AD000B2F1E04324BFB3F5001CDCF1FE5C0DD99C
:100AE00001F0004C4FEAC0024CEA5070B2F1004FE6
:100AF00040EB830008BF20F00100704711F0804FE9
:100B000021D113F13872BCBF01F00040704741F4AD
:100B100080114FEA5252C2F11802C2F1200C10FAB1
:100B20000CF320FA02F018BF40F001004FEAC12395
:100B30004FEAD32303FA0CFC40EA0C0023FA02F339
:100B40004FEA4303CCE77FEA625307D150EA01330F
:100B50001EBF4FF0FE4040F44000704701F00040DF
:100B600040F0FE4040F40000704700BF53B94AB95E
:100B7000002908BF00281CBF4FF0FF314FF0FF30A5
:100B800000F074B9ADF1080C6DE904CE00F006F880
:100B9000DDF804E0DDE9022304B070472DE9F047F9
:100BA000089D04468E46002B4DD18A42944669D951
:100BB000B2FA82F252B101FA02F3C2F1200120FA34
:100BC00001F10CFA02FC41EA030E94404FEA1C4882
:100BD000210CBEFBF8F61FFA8CF708FB16E341EA7E
:100BE000034306FB07F199420AD91CEB030306F104
:100BF000FF3080F01F81994240F21C81023E634425
:100C00005B1AA4B2B3FBF8F008FB103344EA0344C8
:100C100000FB07F7A7420AD91CEB040400F1FF33DD
:100C200080F00A81A74240F207816444023840EA1A
:100C30000640E41B00261DB1D4400023C5E9004353
:100C40003146BDE8F0878B4209D9002D00F0EF80D6
:100C50000026C5E9000130463146BDE8F087B3FA09
:100C600083F6002E4AD18B4202D3824200F2F980F1
:100C7000841A61EB030301209E46002DE0D0C5E9F4
:100C8000004EDDE702B9FFDEB2FA82F2002A40F040
:100C90009280A1EB0C014FEA1C471FFA8CFE012643
:100CA000200CB1FBF7F307FB131140EA01410EFBE7
:100CB00003F0884208D91CEB010103F1FF3802D28E
:100CC000884200F2CB804346091AA4B2B1FBF7F088
:100CD00007FB101144EA01440EFB00FEA64508D9AB
:100CE0001CEB040400F1FF3102D2A64500F2BB80E8
:100CF0000846A4EB0E0440EA03409CE7C6F1200737
:100D0000B34022FA07FC4CEA030C20FA07F401FA7C
:100D100006F31C43F9404FEA1C4900FA06F3B1FB05
:100D2000F9F8200C1FFA8CFE09FB181140EA01416A
:100D300008FB0EF0884202FA06F20BD91CEB010107
:100D400008F1FF3A80F08880884240F28580A8F15F
:100D500002086144091AA4B2B1FBF9F009FB1011B1
:100D600044EA014100FB0EFE8E4508D91CEB01014F
:100D700000F1FF346CD28E456AD90238614440EAF2
:100D80000840A0FB0294A1EB0E01A142C846A64672
:100D900056D353D05DB1B3EB080261EB0E0101FAFB
:100DA00007F722FA06F3F1401F43C5E90071002658
:100DB0003146BDE8F087C2F12003D8400CFA02FCAE
:100DC00021FA03F3914001434FEA1C471FFA8CFEBE
:100DD000B3FBF7F007FB10360B0C43EA064300FBAE
:100DE0000EF69E4204FA02F408D91CEB030300F14C
:100DF000FF382FD29E422DD9023863449B1B89B203
:100E0000B3FBF7F607FB163341EA034106FB0EF38B
:100E10008B4208D91CEB010106F1FF3816D28B4238
:100E200014D9023E6144C91A46EA004638E72E4604
:100E3000284605E70646E3E61846F8E64B45A9D2FC
:100E4000B9EB020864EB0C0E0138A3E74646EAE76B
:100E5000204694E74046D1E7D0467BE7023B614419
:100E600032E7304609E76444023842E7704700BF82
:100E700080B582B000AF012000F012FF10EE103AF2
:100E80001846FFF711FB02460B46C7E900234FF057
:100E90000002074BD7E90001FFF7DAFD0346002BFC
:100EA00001D0012300E0002318460837BD4680BD6D
:100EB00000002E4080B582B000AF3B4600221A6091
:100EC0009A800023FB711DE0FA7913465B001344FE
:100ED00008333B44083B03221A70FA7913465B003F
:100EE000134408333B44073B00221A70FA79134637
:100EF0005B00134408333B44063B00221A70FB7925
:100F00000133FB71FB79012BDED9054B186839469B
:100F10000023002206F0BCFB00BF0837BD4680BDA1
:100F20002401002080B584B000AF0346FB7107F1B7
:100F3000080300221A609A800023FB7323E0FB79E8
:100F4000642B01D9012100E00321FA7B13465B00E9
:100F5000134410333B44083B0A461A70FA7B13468D
:100F60005B00134410333B44073BFA791A70FA7B59
:100F700013465B00134410333B44063B02221A70B5
:100F8000FB7B0133FB73FB7B012BD8D9054B186826
:100F900007F108010023002206F07AFB00BF10379A
:100FA000BD4680BD2401002080B584B000AF03465B
:100FB000FB7107F1080300221A609A800023FB737B
:100FC00023E0FB79642B01D9012100E00321FA7BA6
:100FD00013465B00134410333B44083B0A461A7027
:100FE000FA7B13465B00134410333B44073BFA790A
:100FF0001A70FA7B13465B00134410333B44063BE4
:1010000004221A70FB7B0133FB73FB7B012BD8D9C5
:10101000054B186807F108010023002206F038FB91
:1010200000BF1037BD4680BD2401002080B584B0CC
:1010300000AF0346FB7107F1080300221A609A8093
:10104000FB79642B01D9012300E003233B72FB7978
:101050007B720223BB72FB79642B01D9012300E070
:101060000323FB72FB793B7304237B73054B1868E6
:1010700007F108010023002206F00AFB00BF103729
:10108000BD4680BD2401002080B584B000AF03467A
:10109000FB7107F1080300221A609A80FB79642B28
:1010A00001D9012300E003233B72FB797B72042307
:1010B000BB72FB79642B01D9012300E00323FB728F
:1010C000FB793B7302237B73054B186807F108011A
:1010D0000023002206F0DCFA00BF1037BD4680BDB9
:1010E0002401002080B584B000AF0346FB7107F1F6
:1010F000080300221A609A800023FB731AE0FB7930
:10110000642B01D9002100E00221FA7B13465B0029
:10111000134410333B44083B0A461A70FA7B1346CB
:101120005B00134410333B44073BFA791A70FB7B96
:101130000133FB73FB7B012BE1D9064B186807F1E8
:1011400008010023002206F0A3FA00BF1037BD46B5
:1011500080BD00BF2401002080B586B000AF78605C
:101160000023FB75A2E0FA7D796813465B00134407
:101170000B441B78002B00F09380FB7D002B24D1C7
:10118000FA7D796813465B0013440B441B7803F027
:101190000203002B10D0FA7D796813465B001344DC
:1011A0000B4401331B781846FFF75CF902460B46E7
:1011B00043EC102B02F0E4FB414BFB60404BBB6067
:1011C0008023BB8240237B8227E0FB7D012B24D13F
:1011D000FA7D796813465B0013440B441B7803F0D7
:1011E0000203002B10D0FA7D796813465B0013448C
:1011F0000B4401331B781846FFF734F902460B46BF
:1012000043EC102B02F0E8FB2D4BFB602D4BBB6039
:101210002023BB824FF480637B82FA7D796813467A
:101220005B0013440B441B7803F00103002B39D0FF
:10123000FA7D796813465B0013440B4402331B7834
:10124000042B20D0042B2EDC002B02D0022B0DD03F
:1012500029E0BB8A00221946F86803F015F87B8A5A
:1012600000221946B86803F00FF81CE0BB8A01227F
:101270001946F86803F008F87B8A00221946B86816
:1012800003F002F80FE0BB8A00221946F86802F06A
:10129000FBFF7B8A01221946B86802F0F5FF02E0E5
:1012A00000BF00E000BFFB7D0133FB75FB7D012B20
:1012B0007FF659AF00BF00BF1837BD4680BD00BFE5
:1012C000000402400000024080B400AF144BDB6811
:1012D000134A23F08073D360114BDB68104A43F04C
:1012E0008073D3600F4B1B680E4A23F00103136019
:1012F0000C4B1B680B4A43F001031360094B00229F
:101300005A6000BF00BF00BF064B5B68002B01D0D6
:10131000002300E001231846BD465DF8047B7047BA
:10132000F0ED00E0001000E080B584B000AF786020
:101330000D4B5B68FB6003F0FDFB03460B4AA2FB11
:1013400003239B0C7A6802FB03F37B6000BF064B10
:101350005A68FB68D21A7B689A42F8D300BF00BF74
:101360001037BD4680BD00BF001000E083DE1B4388
:1013700080B596B000AF03463960FB7107F14403B6
:1013800000221A605A609A60DA601A6107F1340329
:1013900000221A605A609A60DA6007F12C0300227A
:1013A0001A605A6007F11C0300221A605A609A60A2
:1013B000DA60FFF789FFFA79A24913469B001344CC
:1013C0009B000B441B68A04A93420ED10023BB61D3
:1013D0009E4B1B6B9D4A43F0010313639B4B1B6B9E
:1013E00003F00103BB61BB6966E0FA7995491346D6
:1013F0009B0013449B000B441B68954A93420ED1FB
:1014000000237B61914B1B6B904A43F002031363F3
:101410008E4B1B6B03F002037B617B694CE0FA7916
:10142000884913469B0013449B000B441B68894A60
:1014300093420ED100233B61844B1B6B834A43F0E4
:1014400004031363814B1B6B03F004033B613B6993
:1014500032E0FA797B4913469B0013449B000B440E
:101460001B687D4A93420ED10023FB60774B1B6BB8
:10147000764A43F008031363744B1B6B03F00803B5
:10148000FB60FB6818E0FA796E4913469B00134431
:101490009B000B441B68714A93420DD10023BB6033
:1014A0006A4B1B6B694A43F010031363674B1B6B5A
:1014B00003F01003BB60BB68FA79624913469B00D6
:1014C00013449B000B441868FA795E4913469B004D
:1014D00013449B000B4404331B880022194602F07E
:1014E000D3FEFA79574913469B0013449B000B44E3
:1014F00004331B887B640123BB640023FB6400234B
:101500003B65FA794F4913469B0013449B000B44FB
:101510001B6807F144021146184602F019FDFA79DA
:10152000484913469B0013449B000B4408331B6837
:10153000FA79996A4A481346DB0013449B00034436
:1015400004331960FA793F4913469B0013449B000A
:101550000B4408331B68FA79D96A41481346DB000B
:1015600013449B00034408331960FA793C4913463D
:10157000DB0013449B000B44023300221A80FA79EB
:1015800037491346DB0013449B000B441C333A6875
:101590001A60FA7932491346DB0013449B000B446E
:1015A00008331B68002B0AD1FA792D491346DB005A
:1015B00013449B000B4408334FF6FF721A60FA790C
:1015C000204913469B0013449B000B440C331B68BB
:1015D000002B0AD1FA7922491346DB0013449B0001
:1015E0000B44203301221A7051E0FA791549134651
:1015F0009B0013449B000B440C331B68042B0AD143
:10160000FA7917491346DB0013449B000B4420333F
:1016100002221A703BE0FA790A4913469B001344F0
:101620009B000B440C331B68082B1BD1FA790C4927
:101630001346DB0013449B000B44203304221A7032
:1016400025E000BF90A300080000024000380240DF
:101650000004024000080240000C0240001002405A
:10166000A4000020FA793F4913469B0013449B00D5
:101670000B440C331B680C2B09D1FA793A491346F9
:10168000DB0013449B000B44203308221A70FA79C4
:10169000344913469B0013449B000B4408331A68DB
:1016A0003B681A60FA7930491346DB0013449B000B
:1016B0000B4404331A683B685A603B6800229A6006
:1016C000FA7929491346DB0013449B000B44083385
:1016D0001A683B68DA603B6800221A613B680022A6
:1016E0009A61386803F08CFA4FF480537B6307F1FA
:1016F00034031946386804F00FF8386803F032FCF8
:101700000023FB6200233B6307F12C031946386872
:1017100004F016FD0023FB6101233B6200237B6282
:101720000023BB62FA790F4913469B0013449B00C8
:101730000B440C331A6807F11C031946386803F090
:101740008DFEFA79074913469B0013449B000B4416
:101750000C331B681946386803F05EFC00BF58372D
:10176000BD4680BD90A30008A400002080B485B0D1
:1017700000AF78600023FB730023FB7323E07B68DA
:101780001968FA7B154813469B0013449B000344D9
:1017900008331B68994213D1FA7B11491346DB00C9
:1017A00013449B000B4402331B88013398B20C494D
:1017B0001346DB0013449B000B44023302461A809D
:1017C000FB7B0133FB73FB7B012BD8D900BF00BF30
:1017D0001437BD465DF8047B704700BF90A3000836
:1017E000A400002000000000B0B584B000AF786015
:1017F0000023FB730023BB600023FB733EE27B6886
:101800001968FA7BA34813469B0013449B000344CA
:1018100008331B68994240F02E827B68197FFA7B5F
:101820009D481346DB0013449B00034420331B7880
:10183000994240F02082FA7B97491346DB0013441B
:101840009B000B441B78002B40F0B380FA7B91493E
:1018500013469B0013449B000B440C331B68FC7B1A
:101860001946786804F020F802468B492346DB00CD
:1018700023449B000B440C331A60FA7B86491346C1
:10188000DB0013449B000B4401221A70FA7B814950
:1018900013469B0013449B000B440C331B68002B26
:1018A00008D17B681B681A6A7B681B6822F00A02F1
:1018B0001A622FE0FA7B774913469B0013449B0082
:1018C0000B440C331B68042B08D17B681B681B6A14
:1018D0007A68126823F0A00313621BE0FA7B6D495B
:1018E00013469B0013449B000B440C331B68082BCE
:1018F00008D17B681B681B6A7A68126823F420632E
:10190000136207E07B681B681B6A7A68126823F41D
:1019100020431362FA7B5F4913469B0013449B00EC
:101920000B440C331B68002B08D17B681B681A6AB8
:101930007B681B6842F002021A622FE0FA7B55496D
:1019400013469B0013449B000B440C331B68042B71
:1019500008D17B681B681B6A7A68126843F0200311
:1019600013621BE0FA7B4B4913469B0013449B0018
:101970000B440C331B68082B08D17B681B681B6A5F
:101980007A68126843F40073136207E07B681B688F
:101990001B6A7A68126843F400531362FA7B3E496B
:1019A0001346DB0013449B000B44023300221A80D1
:1019B00061E1FA7B38491346DB0013449B000B447A
:1019C0001B78012B40F05781FA7B324913469B006C
:1019D00013449B000B4408331B689B6ABB60FA7B73
:1019E0002C4913469B0013449B000B4408331B688F
:1019F000FA7BD96A28481346DB0013449B00034452
:101A000008331960FA7B234913469B0013449B005B
:101A10000B440C331B68FC7B1946786803F044FFC9
:101A200002461D492346DB0023449B000B44103330
:101A30001A60FA7B18491346DB0013449B000B44E1
:101A400010331968FA7B14481346DB0013449B00DB
:101A500003440C331B68994220D9FA7B0E49134684
:101A6000DB0013449B000B4410331968FA7B0A48CF
:101A70001346DB0013449B0003440C331B68FA7BC2
:101A8000C91A05481346DB0013449B000344143372
:101A9000196022E090A30008A4000020FA7B7E4990
:101AA0001346DB0013449B000B4410331968FA7B88
:101AB00079481346DB0013449B0003440C331B6836
:101AC000CB1AF97B03F57F42FF3273480B46DB00EC
:101AD0000B449B00034414331A60FA7B6E4913468F
:101AE000DB0013449B000B4414331B681846FEF7BD
:101AF000B9FC67A3D3E90023FEF72EFD02460B468F
:101B000014461D46FA7B654913469B0013449B000F
:101B10000B4410331A68BB680133B2FBF3F3184669
:101B2000FEF7A0FC02460B4620462946FEF73EFE85
:101B300002460B46FC7B10461946FEF7C7FF0246DD
:101B400055492346DB0023449B000B4418331A609D
:101B5000FA7B51491346DB0013449B000B440022DF
:101B60001A70FA7B4C491346DB0013449B000B446C
:101B7000023300221A80FA7B484913469B00134423
:101B80009B000B440C331B68002B08D17B681B683F
:101B90001A6A7B681B6822F00A021A622FE0FA7B3D
:101BA0003E4913469B0013449B000B440C331B68B7
:101BB000042B08D17B681B681B6A7A68126823F0C3
:101BC000A00313621BE0FA7B344913469B001344C5
:101BD0009B000B440C331B68082B08D17B681B68E7
:101BE0001B6A7A68126823F42063136207E07B683B
:101BF0001B681B6A7A68126823F420431362FA7B1D
:101C0000264913469B0013449B000B440C331B686E
:101C1000002B06D17B681A687B681B68126A1A62FF
:101C200029E0FA7B1D4913469B0013449B000B449B
:101C30000C331B68042B06D17B681B687A6812681A
:101C40001B6A136217E0FA7B144913469B00134486
:101C50009B000B440C331B68082B06D17B681B6868
:101C60007A6812681B6A136205E07B681B687A68F1
:101C700012681B6A1362FB7B0133FB73FB7B012B36
:101C80007FF6BDAD00BF00BF1037BD46B0BD00BF81
:101C90009CC420B07268913FA400002090A300086B
:101CA00080B483B000AF0346FB71FA79084913464C
:101CB000DB0013449B000B4418331B6807EE903A7B
:101CC000B0EE670A0C37BD465DF8047B704700BF75
:101CD000A400002080B582B000AF0346FB71FA7902
:101CE000174913469B0013449B000B441868FA796C
:101CF000134913469B0013449B000B4404331B8879
:101D00000122194602F0C0FA0A20FFF70DFBFA790A
:101D10000B4913469B0013449B000B441868FA7947
:101D2000074913469B0013449B000B4404331B8854
:101D30000022194602F0A8FA00BF0837BD4680BD50
:101D400090A3000880B400AF144BDB68134A23F063
:101D50008073D360114BDB68104A43F08073D3600B
:101D60000F4B1B680E4A23F0010313600C4B1B68DA
:101D70000B4A43F001031360094B00225A6000BF75
:101D800000BF00BF064B5B68002B01D0002300E0C2
:101D900001231846BD465DF8047B7047F0ED00E076
:101DA000001000E0B0B5B2B000AF0346FB8007F111
:101DB000AC0300221A605A609A60DA601A6107F177
:101DC0009C0300221A605A609A60DA6007F194035B
:101DD00000221A605A6007F1780300221A605A60E4
:101DE0009A60DA601A615A619A610023C7F8C430B8
:101DF0000023C7F8C030FFF7A5FFFB88954A5B01B9
:101E000013441B68944A93420ED10023FB62934B08
:101E10001B6B924A43F001031363904B1B6B03F05F
:101E20000103FB62FB6A5AE0FB888A4A5B011344A8
:101E30001B688B4A93420ED10023BB62874B1B6BFE
:101E4000864A43F002031363844B1B6B03F00203C7
:101E5000BB62BB6A43E0FB887E4A5B0113441B689C
:101E6000804A93420ED100237B627C4B1B6B7B4AE2
:101E700043F004031363794B1B6B03F004037B6291
:101E80007B6A2CE0FB88734A5B0113441B68764A2B
:101E900093420ED100233B62704B1B6B6F4A43F0A1
:101EA000080313636D4B1B6B03F008033B623B6A33
:101EB00015E0FB88674A5B0113441B686B4A934239
:101EC0000DD10023FB61654B1B6B644A43F010038B
:101ED0001363624B1B6B03F01003FB61FB69FB8810
:101EE0005C4A5B01134404331B88C7F8AC300223FF
:101EF000C7F8B0300023C7F8B830FB88554A5B01FB
:101F0000134414331B681846FEF7ACFA4FF0000276
:101F1000574BFEF74BFC02460B4610461946FEF7A0
:101F2000B5FD0346C7F8C430FB884A4A5B01134439
:101F300014331B681846FEF795FA04460D46D7F889
:101F4000C400FEF78FFA4FF000024A4BFEF74EF93D
:101F500002460B46104619464FF00002464BFEF76C
:101F6000FBFA02460B4620462946FEF71FFC0246B6
:101F70000B46104619464FF000023E4BFEF734F96F
:101F800002460B4610461946FEF780FD0346C7F889
:101F9000C030FB882F4A5B01134408331B68374A63
:101FA00093420ED10023BB612C4B5B6C2B4A43F058
:101FB00001035364294B5B6C03F00103BB61BB69F4
:101FC00079E0FB88234A5B01134408331B68B3F1B3
:101FD000804F0ED100237B61204B1B6C1F4A43F0C6
:101FE000010313641D4B1B6C03F001037B617B69D0
:101FF00061E0FB88174A5B01134408331B68204AE1
:1020000093420ED100233B61144B1B6C134A43F0E7
:1020100002031364114B1B6C03F002033B613B6929
:1020200049E0FB880B4A5B01134408331B68154ADF
:10203000934229D10023FB60084B1B6C074A43F0F5
:1020400004031364054B1B6C03F00403FB60FB6883
:1020500031E000BFB8A30008000002400038024091
:102060000004024000080240000C02400010024040
:10207000000049410000F03F0000494000000140DD
:102080000004004000080040FB88614A5B011344E3
:1020900008331B685F4A93420DD10023BB605E4B3F
:1020A0005B6C5D4A43F4802353645B4B5B6C03F4CD
:1020B0008023BB60BB68FB88554A5B01134408332F
:1020C0001B683B63D7F8C4307B630023BB63D7F83E
:1020D000C030FB6300233B648023BB6407F1300303
:1020E000184602F08DFD4FF48053C7F89C3007F17D
:1020F0009C0207F130031146184603F00DFB07F16F
:102100003003184602F02EFE0023C7F89430002357
:10211000C7F8983007F1940207F1300311461846CA
:1021200004F00EF86023BB670023FB670023C7F8A9
:1021300080300023C7F88830FB88354A5B011344A0
:1021400010331A6807F1780107F13003184603F0DD
:1021500021FAD7F8C000FEF785F904460D46FB8842
:102160002B4A5B01134418331B681846FEF79CF991
:102170004FF00002294BFEF719FB02460B462046A2
:102180002946FEF7E9F902460B46FC881046194637
:10219000FEF77CFC03469AB2214B23F82420D7F8A3
:1021A000C000FEF75FF904460D46FB88184A5B0144
:1021B00013441C331B681846FEF776F94FF00002F3
:1021C000164BFEF7F3FA02460B4620462946FEF769
:1021D000C3F902460B46FC8810461946FEF756FC2A
:1021E000034699B20E4AA30013440A465A80FB885C
:1021F000074A5B01134410331A6807F13003114694
:10220000184602F0FFFD00BFC837BD46B0BD00BF95
:10221000B8A30008004801400038024000003440E4
:10222000EC000020B0B584B000AF034687ED000A93
:10223000FB800023FB81FB881F4A9B0013445B88C3
:102240001946FB881C4A32F82330CB1A07EE903A25
:10225000B8EEE77AD7ED007A67EE277A17EE900AA4
:10226000FEF722F94FF00002144BFEF79FFA0246E8
:102270000B4614461D46FB880F4A32F82330184699
:10228000FEF700F902460B4620462946FDF7AEFF51
:1022900002460B4610461946FEF7F8FB0346FB8143
:1022A000FB88074A5B0113440C331B68FA891A60E8
:1022B00000BF1037BD46B0BDEC0000200080664076
:1022C000B8A3000880B500AF284A0621102005F009
:1022D0006CF90346264A1360264A0021264805F079
:1022E000B7F80346254A1360254A0021254805F022
:1022F000AFF80346244A1360244A0021244805F01D
:10230000A7F80346234A1360234A0021234805F017
:102310009FF80346224A1360224A0021224805F012
:1023200097F80346214A1360214A0021214805F00D
:102330008FF80346204A1360204A0021204805F008
:1023400087F803461F4A13601F4A00211F4805F003
:102350007FF803461E4A13601E4A00211E4805F0FE
:1023600077F803461D4A136000BF80BD3CA50008F6
:1023700024010020F8A30008E12300080001002048
:102380001CA40008F92400080401002040A400084F
:10239000AD2600080801002064A400086927000891
:1023A0000C01002088A40008592800081001002012
:1023B000ACA400081D2A000814010020D0A40008C5
:1023C000652B000818010020F4A40008ED2B00087C
:1023D0001C01002018A50008892C000820010020FD
:1023E00080B58AB000AF7860414B186807F11F02D2
:1023F00007F120010A2305F0ABF90346002B72D147
:1024000007F1080303F1080207F108031146184613
:1024100001F00EFB002387F82730002387F82630D1
:102420003DE097F8262013465B00134428333B44D5
:10243000063B1B78002B03D1012387F8273032E0BD
:1024400097F8262013465B00134428333B44083B8F
:102450001B7803F00203002B1CD097F826201346AC
:102460005B00134428333B44073B1B781846FEF7B8
:1024700009F897F82630DB0028333B44203BD3E9AA
:102480000023FEF7DBFA0346002B03D0012387F875
:10249000273008E097F82630013387F8263097F880
:1024A0002630012BBDD997F82730002B0BD0012205
:1024B0004FF480710F4801F0E7FE012280210D48A2
:1024C00001F0E2FE0AE000224FF48071094801F0B9
:1024D000DBFE00228021074801F0D6FE07F1200331
:1024E0001846FEF739FE0A2005F044F87CE700BFE5
:1024F000240100200008024080B582B000AF78605F
:10250000604B1B78092B40F0B7800020FFF7C8FB19
:10251000F0EE407A5C4BC3ED007A5C4B1B780133E4
:10252000DAB25A4B1A70594B1B78042B05D900208C
:10253000FFF7D0FB554B00221A70534BD3ED007AB6
:102540009FED537AF4EE477AF1EE10FA00F098809E
:102550004D4BD3ED007A9FED4F7AF4EEC77AF1EE52
:1025600010FA03DD6420FEF7DDFC6BE0464BD3ED93
:10257000007A9FED487AF4EEC77AF1EE10FA0DD5A5
:10258000414BD3ED007A9FED447AF4EEC77AF1EE39
:1025900010FA03DD5020FEF7C5FC53E03A4BD3EDB3
:1025A000007A9FED3D7AF4EEC77AF1EE10FA0DD580
:1025B000354BD3ED007A9FED397AF4EEC77AF1EE20
:1025C00010FA03DD3C20FEF7ADFC3BE02E4BD3EDD3
:1025D000007A9FED327AF4EEC77AF1EE10FA0DD55B
:1025E000294BD3ED007A9FED2E7AF4EEC77AF1EE07
:1025F00010FA03DD2820FEF795FC23E0224BD3EDF3
:10260000007A9FED277AF4EEC77AF1EE10FA0DD535
:102610001D4BD3ED007AB3EE047AF4EEC77AF1EEF7
:1026200010FA03DD1420FEF77DFC0BE0164BD3ED12
:10263000007AB3EE047AF4EEC77AF1EE10FA01D51F
:10264000FEF738FC104B1B681846FDF72DFF0246BD
:102650000B461449C1E90023134BD3E90023124967
:10266000C1E90223084B1B681846FDF71DFF02460F
:102670000B460D49C1E90023322004F07BFF3FE700
:1026800000BF3DE754010020F40000202801002095
:10269000003C1C460000A04200008242000048426C
:1026A00000000C42300100203801002080B582B0CB
:1026B00000AF7860284B1B78062B49D1274B1B783D
:1026C000012B3DD1264B1B78013B032B3FD801A2A8
:1026D00052F823F01F270008E5260008FD26000811
:1026E000F12600081F4B1B781846FEF71BFC2FE055
:1026F0001C4B1B781846FEF757FC29E0194B1B783A
:102700001846FEF7C1FC642004F034FF154B1B781B
:102710001846FEF707FC124B02221A7018E0114B04
:102720001B781846FEF782FC642004F023FF0D4B53
:102730001B781846FEF7F6FB094B02221A7007E0D9
:10274000064B1B78002B03D1FEF7B4FB00E000BF63
:102750000A2004F00FFFADE7540100200000002024
:10276000550100200100002080B582B000AF7860E4
:10277000324B1B78092B0DD0092B19DC062B02D00C
:10278000072B0ED014E02E4B30221A702C4B302227
:102790005A700DE02A4B30221A70294B31225A70A0
:1027A00006E0274B31221A70254B30225A7000BFA9
:1027B000244B1B78244A82FB03121211DB17D31A15
:1027C000DBB23033DAB21E4B5A711E4B1B781F4AF4
:1027D00082FB03125210DB17D21A1C4B83FB02132D
:1027E0009910D317C91A0B469B000B445B00D11AF2
:1027F000CBB23033DAB2124B9A71124B1B785A00BB
:10280000124B83FB02139910D317C91A0B469B0076
:102810000B445B00D11ACBB23033DAB2084BDA7119
:1028200014230E2206490A4803F059FD094B0022E1
:102830001A70642004F09EFE9AE700BF5401002045
:1028400004000020010000201F85EB5167666666CA
:10285000C00200205601002080B584B000AF78602F
:10286000684B1B78072B40F0C8800020FFF718FA50
:10287000F0EE407A644BC3ED007A644B1B78013371
:10288000DAB2624B1A70614B1B78002B05D0002026
:10289000FFF720FA5D4B00221A705B4BD3ED007AF4
:1028A000B3EE047AF4EEC77AF1EE10FA00F2A080EB
:1028B000574B1B78FB735023BB7300F02DFA554B1D
:1028C00093ED007A544BD3ED007AB4EEE77AF1EE53
:1028D00010FA46DDBB7B1846FEF7A8FB4FF4FA70F2
:1028E00004F048FEFB7B1846FEF71CFB4FF4167005
:1028F00004F040FEFEF7DEFA642004F03BFEBB7BF2
:102900001846FEF7C1FB4FF4FA7004F033FEFB7B70
:102910001846FEF707FB4FF4167004F02BFEFEF787
:10292000C9FA642004F026FEBB7B1846FEF7ACFB18
:102930004FF4C87004F01EFEFB7B1846FEF7F2FA57
:102940004FF4FA7004F016FEBB7B1846FEF76EFBE0
:102950004FF4C87004F00EFEFB7B1846FEF7E2FA57
:102960004BE0BB7B1846FEF78FFB4FF4FA7004F088
:1029700001FEFB7B1846FEF7D5FA4FF4167004F003
:10298000F9FDFEF797FA642004F0F4FDBB7B1846CE
:10299000FEF74CFB4FF4FA7004F0ECFDFB7B18469D
:1029A000FEF7C0FA4FF4167004F0E4FDFEF782FA69
:1029B000642004F0DFFDBB7B1846FEF737FB4FF4C5
:1029C000C87004F0D7FDFB7B1846FEF7ABFA4FF456
:1029D000FA7004F0CFFDBB7B1846FEF755FB4FF4B1
:1029E000C87004F0C7FDFB7B1846FEF79BFA04E0B5
:1029F000074B1B781846FEF795FA1E2004F0BAFD27
:102A00002EE700BF54010020F40000204801002000
:102A100001000020FC000020F800002080B582B0FA
:102A200000AF78604B4B1B78DBB2022B02D9494BCD
:102A300000221A70484B1B78DBB2022B02D9464B9E
:102A400000221A70434B1B78DBB2012B11D1424B91
:102A50001B78DBB2002B0CD1012210213F4801F082
:102A600013FC3F4B01225A724FF4FA7004F082FDBE
:102A70006FE0384B1B78DBB2022B12D1354B0022B2
:102A80001A70354B00221A7000221021334801F0D1
:102A9000FBFB334B00225A724FF4FA7004F06AFDCC
:102AA000C0E72D4B1B78DBB2012B11D1294B1B78D2
:102AB000DBB2002B0CD101228021284801F0E4FB7D
:102AC000274B01229A724FF4FA7004F053FD40E054
:102AD000214B1B78DBB2022B12D11E4B00221A7045
:102AE0001D4B00221A70002280211C4801F0CCFBF3
:102AF0001B4B00229A724FF4FA7004F03BFD91E7F1
:102B0000154B1B78DBB2012B1FD1124B1B78DBB2AC
:102B1000012B1AD10F4B00221A700F4B00221A7092
:102B2000002210210D4801F0AFFB002280210B484C
:102B300001F0AAFB0A4B00225A72094B00229A723A
:102B40004FF4FA7004F016FD03E04FF4FA7004F04D
:102B500011FD67E74A0100204B0100200000024000
:102B60000400002080B584B000AF78600023FB73C0
:102B70000421194801F070FB0346012B1ED10122EC
:102B80004FF48071154801F07FFB154B01221A723A
:102B9000FB7B002B07D19FED130A0120FFF742FBBF
:102BA0000123FB7313E0FB7B012B10D19FED0E0A79
:102BB0000120FFF737FB0023FB7308E000224FF4EE
:102BC0008071064801F060FB054B00221A724FF439
:102BD000FA7004F0CFFCCBE7000402400000024092
:102BE00004000020000034430000000080B584B0E1
:102BF00000AF78600023FB73204B1B78DBB2012B06
:102C000007D10123FB734620FEF73EFAC82004F0EB
:102C1000B1FCFB7B012B0ED1184B1B78DBB2002BD8
:102C200009D10023FB73164B1B781846FEF77AF97F
:102C3000C82004F09FFC134B1B78DBB2012B07D19B
:102C40000123FB734620FEF7F1F9C82004F092FC43
:102C5000FB7B012B0ED10B4B1B78DBB2002B09D178
:102C60000023FB73064B1B781846FEF75BF9C82060
:102C700004F080FC642004F07DFCBDE74A010020E4
:102C8000010000204B01002080B584B000AF7860C7
:102C90001E4B1B780133DAB21C4B1A701B4B1B788E
:102CA000002B08D00120FFF715F8184B00221A70EE
:102CB000322004F05FFCFEF7DBF80346FB73FB7B7E
:102CC000012B11D101224FF40071114801F0DCFAFF
:102CD000104B01221A730F4B1A7B0E4BDA724FF412
:102CE0007A7004F047FCD3E700224FF400710848E3
:102CF00001F0CAFA074B00221A73064B1A7B054BE8
:102D0000DA72642004F036FCC2E700BF49010020FB
:102D1000000002400400002080B500AFFEF7CAF8B2
:102D20001E4B1B781846FEF73FF94FF4FA7004F07B
:102D300021FCFEF7BFF80A2004F01CFC9FED180AE6
:102D40000020FFF76FFA0020FEF7C4FF4FF4487031
:102D500004F010FC0020FEF7A3FFF0EE407A114BC8
:102D6000C3ED007A9FED100A0020FFF75BFA002008
:102D7000FEF7B0FF4FF4487004F0FCFB0020FEF7B4
:102D80008FFFF0EE407A094BC3ED007A9FED080A01
:102D90000020FFF747FA00BF80BD00BF0100002000
:102DA00000001643FC00002000004842F80000200C
:102DB0000000C84280B588B000AF07F10C030022C4
:102DC0001A605A609A60DA601A610023BB604A4B4D
:102DD0001B6B494A43F001031363474B1B6B03F022
:102DE0000103BB60BB6800237B60434B1B6B424A03
:102DF00043F002031363404B1B6B03F002037B6041
:102E00007B6800233B603C4B1B6B3B4A43F0040355
:102E10001363394B1B6B03F004033B603B680022D8
:102E20004FF4F261354801F02FFA002246F2E0013A
:102E3000334801F029FA00224FF4C071314801F003
:102E400023FA4FF4F263FB6001233B6100237B61B3
:102E50000023BB6107F10C031946284801F078F8FC
:102E60000323FB604FF404133B6100237B6107F1F4
:102E70000C031946224801F06BF80423FB60002381
:102E80003B6100237B6107F10C0319461C4801F0EC
:102E90005FF846F2E003FB6001233B6100237B61A6
:102EA0000023BB6107F10C031946154801F050F8E7
:102EB0004FF4C073FB6001233B6100237B6100235F
:102EC000BB6107F10C0319460E4801F041F80022DE
:102ED0000521062000F080FF062000F099FF002267
:102EE0000521072000F078FF072000F091FF00BFC8
:102EF0002037BD4680BD00BF0038024000000240C0
:102F0000000402400008024080B500AF00F06AFEF5
:102F100000F03CF8FFF74EFF00F03AFB00F048FAF3
:102F200000F0BCFD00F098FB00F0BCFA1249002054
:102F3000FEF71EFA10490120FEF71AFA0020FEF7EC
:102F400031FF0120FEF72EFF00210C4801F05AFF4F
:102F500004210A4801F056FF0021094801F052FF00
:102F600004220849084803F04CFA04F027FAFFF756
:102F7000A9F904F047FAFEE7A00100203002002082
:102F8000E801002050010020C002002080B594B06C
:102F900000AF07F1200330220021184607F00AF99C
:102FA00007F10C0300221A605A609A60DA601A6115
:102FB0000023BB60234B1B6C224A43F080531364F5
:102FC000204B1B6C03F08053BB60BB6800237B600D
:102FD0001D4B1B6823F440431B4A43F4004313601A
:102FE000194B1B6803F440437B607B6802233B6200
:102FF0000123FB6210233B630023BB6307F1200323
:10300000184601F073F90346002B01D000F0D2F806
:103010000F23FB6000233B6100237B610023BB6126
:103020000023FB6107F10C030021184601F0D6FBD9
:103030000346002B01D000F0BDF800BF5037BD465D
:1030400080BD00BF003802400070004080B582B0F3
:1030500000AF78607868FEF7C7FB00BF0837BD4651
:1030600080BD000080B582B000AF78602D4807F0C9
:1030700065F803469AB22C4B1A802B4B1B88062B03
:1030800007D0294B1B88092B03D0274B1B88072B04
:1030900008D1254B1B88DAB2244B1A70244B01222D
:1030A0001A7038E0204B1B88022B0BD01E4B1B885C
:1030B000042B07D01C4B1B88032B03D01A4B1B88F7
:1030C000012B05D1184B1B88DAB21A4B1A7022E07B
:1030D000154B1B88052B06D1174B00221A70144B79
:1030E00000221A7017E0144B1B781A460E4B1B88EF
:1030F000A3F57A739A420BD00B4B1B88DBB21833C3
:10310000DAB20D4B1A700C4B1B781846FDF7EAFF2C
:10311000074B01221A70094B01221A7000BF0837B1
:10312000BD4680BD500100204C010020540100200C
:103130000000002055010020010000205601002061
:1031400080B483B000AF0346FB80FB88012B02D024
:10315000022B08D00FE00B4B1B78DBB20133DAB245
:10316000084B1A7007E0084B1B78DBB20133DAB268
:10317000054B1A7000BF00BF0C37BD465DF8047BDD
:10318000704700BF4A0100204B01002080B582B08B
:1031900000AF78607B681B68054A934201D100F05C
:1031A00043FD7868FEF7E2FA00BF0837BD4680BDF0
:1031B0000044014080B400AF72B600BFFEE70000DB
:1031C00080B582B000AF00237B60124B5B6C114A6C
:1031D00043F4804353640F4B5B6C03F480437B6088
:1031E0007B6800233B600B4B1B6C0A4A43F0805307
:1031F0001364084B1B6C03F080533B603B68002258
:103200000F216FF0010000F0E7FD00BF0837BD4659
:1032100080BD00BF0038024080B58CB000AF786040
:103220000023BB6200237B620023BB602E4B5B6CE0
:103230002D4A43F4003353642B4B5B6C03F400338F
:10324000BB60BB6807F10C0207F11003114618467A
:1032500001F0A4FC01F08EFCB862BB6A234AA2FB19
:1032600003239B0C013B7B62214B224A1A60204BBB
:1032700040F2E732DA601E4A7B6A53601C4B002240
:103280001A611B4B00229A60194B00229A61184860
:1032900001F0B6FC034687F82F3097F82F30002B4B
:1032A0001BD1134801F0FCFC034687F82F3097F838
:1032B0002F30002B11D1192000F0AAFD7B680F2BB5
:1032C00008D800227968192000F086FD0A4A7B6838
:1032D000136002E0012387F82F3097F82F3018464B
:1032E0003037BD4680BD00BF0038024083DE1B433F
:1032F00058010020004401401800002080B400AFB5
:10330000FEE780B400AFFEE780B400AFFEE780B414
:1033100000AFFEE780B400AFFEE780B400AF00BFAF
:10332000BD465DF8047B704780B500AF012000F01A
:10333000C5FF00BF80BD80B500AF022000F0BEFF1A
:1033400000BF80BD80B500AF024801F07FFF00BF25
:1033500080BD00BF5801002080B500AF024801F0D9
:1033600075FF00BF80BD00BFA001002080B500AF89
:10337000044803F077F804220349024803F041F8B7
:1033800000BF80BDC00200205001002080B400AF0B
:10339000064BD3F88830054A43F47003C2F88830EE
:1033A00000BFBD465DF8047B704700BF00ED00E044
:1033B00080B58AB000AF07F1180300221A605A6086
:1033C0009A60DA6007F1100300221A605A603B46E7
:1033D00000221A605A609A60DA60314B4FF08042E6
:1033E0001A602F4B0F225A602D4B00229A602C4BF3
:1033F0004FF0FF32DA602A4B00221A61284B00227C
:103400009A61274801F0FCFB0346002B01D0FFF72F
:10341000D1FE4FF48053BB6107F1180319462048D1
:1034200002F07AF90346002B01D0FFF7C3FE1C48D7
:1034300001F098FD0346002B01D0FFF7BBFE0023EF
:103440003B6100237B6107F110031946144802F029
:1034500077FE0346002B01D0FFF7ACFE00233B6054
:1034600001237B600023BB600023FB603B460022FE
:1034700019460B4801F0F2FF0346002B01D0FFF77D
:1034800099FE3B4604221946054801F0E7FF034632
:10349000002B01D0FFF78EFE00BF2837BD4680BD50
:1034A000A001002080B58EB000AF07F128030022F4
:1034B0001A605A609A60DA6007F1200300221A60ED
:1034C0005A603B1D00221A605A609A60DA601A61E5
:1034D0005A619A612C4B2D4A1A602B4B0F225A606D
:1034E000294B00229A60284B44F61F62DA60264B73
:1034F00000221A61244B00229A61234801F080FBCC
:103500000346002B01D0FFF755FE4FF48053BB62FA
:1035100007F1280319461C4802F0FEF80346002B69
:1035200001D0FFF747FE184801F01CFC0346002BB2
:1035300001D0FFF73FFE00233B6200237B6207F1CF
:1035400020031946104802F0FBFD0346002B01D072
:10355000FFF730FE60237B600023BB600023FB602D
:1035600000237B613B1D00221946074802F012F838
:103570000346002B01D0FFF71DFE034800F076F94B
:1035800000BF3837BD4680BDE80100200004004080
:1035900080B58AB000AF07F1200300221A605A609C
:1035A0003B1D00221A605A609A60DA601A615A6103
:1035B0009A61274B274A1A60254B0F225A60244BE9
:1035C00000229A60224B44F61F62DA60204B0022F0
:1035D0001A611F4B00229A611D4801F0C3FB03468C
:1035E000002B01D0FFF7E6FD00233B6200237B6246
:1035F00007F120031946164802F0A2FD0346002BEE
:1036000001D0FFF7D7FD60237B600023BB60002360
:10361000FB6000237B613B1D002219460C4801F032
:10362000B9FF0346002B01D0FFF7C4FD3B1D042268
:103630001946074801F0AEFF0346002B01D0FFF703
:10364000B9FD034800F012F900BF2837BD4680BD20
:1036500030020020000C004080B588B000AF3B1D58
:1036600000221A605A609A60DA601A615A619A619F
:103670001E4B1F4A1A601D4B0F225A601B4B002223
:103680009A601A4B44F61F62DA60184B00221A61E6
:10369000164B00229A61154801F0B2FA0346002B3E
:1036A00001D0FFF787FD114801F05CFB0346002BBA
:1036B00001D0FFF77FFD60237B600023BB60002308
:1036C000FB6000237B613B1D00221946074801F087
:1036D00061FF0346002B01D0FFF76CFD034800F0AB
:1036E000C5F800BF2037BD4680BD00BF780200206E
:1036F0000048014080B58CB000AF786007F11C0332
:1037000000221A605A609A60DA601A617B681B684E
:10371000B3F1804F52D10023BB613E4B1B6C3D4A3D
:1037200043F0010313643B4B1B6C03F00103BB61CB
:10373000BB6900237B61374B1B6B364A43F00103A7
:103740001363344B1B6B03F001037B617B69002324
:103750003B61304B1B6B2F4A43F0020313632D4B2D
:103760001B6B03F002033B613B692023FB610223D7
:103770003B6200237B620023BB620123FB6207F1F3
:103780001C031946244800F0E3FB0823FB610223D5
:103790003B6200237B620023BB620123FB6207F1D3
:1037A0001C0319461D4800F0D3FB002205211C20F4
:1037B00000F012FB1C2000F02BFB26E07B681B684E
:1037C000174A93420ED10023FB60124B1B6C114A27
:1037D00043F0020313640F4B1B6C03F00203FB6006
:1037E000FB6812E07B681B680E4A93420DD10023F0
:1037F000BB60084B5B6C074A43F480235364054B62
:103800005B6C03F48023BB60BB6800BF3037BD46F0
:1038100080BD00BF003802400000024000040240AA
:10382000000400400048014080B485B000AF7860DB
:103830007B681B680B4A93420DD10023FB600A4B47
:103840001B6C094A43F008031364074B1B6C03F01D
:103850000803FB60FB6800BF1437BD465DF8047BBE
:10386000704700BF000C00400038024080B58AB0AD
:1038700000AF786007F1140300221A605A609A6062
:10388000DA601A617B681B68364A93421ED10023B6
:103890003B61354B1B6B344A43F001031363324BDE
:1038A0001B6B03F001033B613B6940237B610223F7
:1038B000BB610023FB6100233B6202237B6207F1B3
:1038C00014031946294800F043FB47E07B681B6856
:1038D000274A93421ED10023FB60234B1B6B224AD5
:1038E00043F001031363204B1B6B03F00103FB60E8
:1038F000FB6803237B610223BB610023FB61002380
:103900003B6202237B6207F114031946174800F05B
:103910001FFB23E07B681B68164A93421ED10023DD
:10392000BB60114B1B6B104A43F0020313630E4B39
:103930001B6B03F00203BB60BB684FF400737B6139
:103940000223BB610023FB6100233B6203237B62F4
:1039500007F114031946084800F0FAFA00BF2837A7
:10396000BD4680BD00040040003802400000024017
:10397000000C00400048014000040240000000002C
:1039800090B583B000AF87ED000B4FF00002104BF5
:10399000D7E90001FCF70AFF02460B46104619461C
:1039A00009A3D3E90023FCF7D7FD02460B460949DA
:1039B0000C6810461946FDF769F80346636300BFBB
:1039C0000C37BD4690BD00BF00000000C087D3404B
:1039D000000059403002002090B583B000AF87ED61
:1039E000000B4FF00002104BD7E90001FCF7DEFEA0
:1039F00002460B461046194609A3D3E90023FCF7FB
:103A0000ABFD02460B4609490C6810461946FDF706
:103A10003DF80346A36300BF0C37BD4690BD00BF11
:103A200000000000C087D340000059403002002051
:103A300080B582B000AF78603960154B5B6B154A7A
:103A4000A2FB03231B0B1846FCF70CFD4FF00002F2
:103A5000114BFCF781FD02460B467968C1E9002352
:103A60000B4B9B6B0B4AA2FB03231B0B1846FCF76B
:103A7000F9FC4FF00002084BFCF76EFD02460B46C6
:103A80003968C1E9002300BF0837BD4680BD00BFCB
:103A9000000C0040A5716E340000594080B500AFA5
:103AA000114B124A1A60104B4FF416525A600E4BCB
:103AB00000229A600C4B0022DA600B4B00221A6144
:103AC000094B0C225A61084B00229A61064B0022D6
:103AD000DA61054802F0B6FB0346002B01D0FFF780
:103AE00069FB00BF80BD00BFC00200200044004051
:103AF00080B58AB000AF786007F1140300221A6025
:103B00005A609A60DA601A617B681B681D4A9342AA
:103B100033D100233B611C4B1B6C1B4A43F4003325
:103B20001364194B1B6C03F400333B613B690023A6
:103B3000FB60154B1B6B144A43F001031363124BDC
:103B40001B6B03F00103FB60FB680C237B6102230A
:103B5000BB610023FB6103233B6207237B6207F108
:103B600014031946094800F0F3F900220521262024
:103B700000F032F9262000F04BF900BF2837BD468F
:103B800080BD00BF004400400038024000000240F9
:103B9000DFF834D00D480E490E4A002302E0D45815
:103BA000C4500433C4188C42F9D30B4A0B4C002385
:103BB00001E013600432A242FBD3FFF7E7FB06F0FB
:103BC000C7FAFFF7A1F970470000012000000020AC
:103BD0008800002080A6000888000020584C0020A3
:103BE000FEE7000080B500AF0E4B1B680D4A43F4A2
:103BF000007313600B4B1B680A4A43F48063136025
:103C0000084B1B68074A43F480731360032000F0DD
:103C1000D8F80520FFF700FBFFF7D2FA002318467B
:103C200080BD00BF003C024080B400AF064B1B7853
:103C30001A46064B1B681344044A136000BFBD4676
:103C40005DF8047B704700BF1C00002004030020C7
:103C500080B400AF034B1B681846BD465DF8047B7B
:103C6000704700BF0403002080B485B000AF7860C7
:103C70007B6803F00703FB600C4BDB68BB60BA6832
:103C80004FF6FF031340BB60FB681A02BB68134387
:103C900043F0BF6343F40033BB60044ABB68D360A6
:103CA00000BF1437BD465DF8047B704700ED00E0AF
:103CB00080B400AF044BDB681B0A03F0070318460F
:103CC000BD465DF8047B704700ED00E080B483B032
:103CD00000AF0346FB7197F90730002B0BDBFB7934
:103CE00003F01F02074997F907305B09012000FA2A
:103CF00002F241F8232000BF0C37BD465DF8047B7B
:103D0000704700BF00E100E080B483B000AF03461D
:103D10003960FB7197F90730002B0ADB3B68DAB298
:103D20000C4997F907301201D2B20B4483F80023F3
:103D30000AE03B68DAB20849FB7903F00F03043B61
:103D40001201D2B20B441A7600BF0C37BD465DF8A3
:103D5000047B704700E100E000ED00E080B489B032
:103D600000AFF860B9607A60FB6803F00703FB619D
:103D7000FB69C3F10703042B28BF0423BB61FB6964
:103D80000433062B02D9FB69033B00E000237B616F
:103D90004FF0FF32BB6902FA03F3DA43BB681A4003
:103DA0007B699A404FF0FF317B6901FA03F3D943F5
:103DB0007B680B40134318462437BD465DF8047BEF
:103DC000704780B582B000AF78607868FFF74CFF2D
:103DD00000BF0837BD4680BD80B586B000AF034642
:103DE000B9607A60FB7300237B61FFF761FF786144
:103DF0007A68B9687869FFF7B1FF024697F90F3022
:103E000011461846FFF780FF00BF1837BD4680BD3A
:103E100080B582B000AF0346FB7197F907301846B2
:103E2000FFF754FF00BF0837BD4680BD80B584B0A2
:103E300000AF78607B689B6DFB60FFF709FFB8609F
:103E40007B6893F83530DBB2022B08D07B68802288
:103E50005A657B68002283F83420012352E07B6896
:103E60001B681A687B681B6822F016021A607B6860
:103E70001B685A697B681B6822F080025A617B6864
:103E80001B6C002B03D17B689B6C002B07D07B68DD
:103E90001B681A687B681B6822F008021A607B683E
:103EA0001B681A687B681B6822F001021A6013E025
:103EB000FFF7CEFE0246BB68D31A052B0CD97B68F0
:103EC00020225A657B68032283F835207B68002214
:103ED00083F83420032315E07B681B681B6803F01C
:103EE0000103002BE4D17B68DB6D3F229A40FB6825
:103EF0009A607B68012283F835207B68002283F872
:103F00003420002318461037BD4680BD80B483B0EE
:103F100000AF78607B6893F83530DBB2022B04D0B9
:103F20007B6880225A6501230CE07B68052283F8B8
:103F300035207B681B681A687B681B6822F00102C9
:103F40001A60002318460C37BD465DF8047B7047A5
:103F500080B489B000AF7860396000237B610023B2
:103F60003B610023BB610023FB6159E10122FB6936
:103F700002FA03F37B613B681B687A6913403B617B
:103F80003A697B699A4240F048813B685B6803F07C
:103F90000303012B05D03B685B6803F00303022B8E
:103FA00030D17B689B68BB61FB695B00032202FA2E
:103FB00003F3DB43BA691340BB613B68DA68FB6912
:103FC0005B0002FA03F3BA691343BB617B68BA6909
:103FD0009A607B685B68BB610122FB6902FA03F3AC
:103FE000DB43BA691340BB613B685B681B0903F0A4
:103FF0000102FB6902FA03F3BA691343BB617B68F0
:10400000BA695A603B685B6803F00303032B17D05F
:104010007B68DB68BB61FB695B00032202FA03F388
:10402000DB43BA691340BB613B689A68FB695B007C
:1040300002FA03F3BA691343BB617B68BA69DA60B9
:104040003B685B6803F00303022B23D1FB69DA08AA
:104050007B68083253F82230BB61FB6903F0070329
:104060009B000F2202FA03F3DB43BA691340BB61E2
:104070003B681A69FB6903F007039B0002FA03F32C
:10408000BA691343BB61FB69DA087B680832B96916
:1040900043F822107B681B68BB61FB695B0003224D
:1040A00002FA03F3DB43BA691340BB613B685B6808
:1040B00003F00302FB695B0002FA03F3BA691343DE
:1040C000BB617B68BA691A603B685B6803F4403384
:1040D000002B00F0A2800023FB60574B5B6C564A1C
:1040E00043F480435364544B5B6C03F48043FB60A4
:1040F000FB68524AFB699B08023352F82330BB61CC
:10410000FB6903F003039B000F2202FA03F3DB4376
:10411000BA691340BB617B68494A934219D07B68F6
:10412000484A934213D07B68474A93420DD07B683C
:10413000464A934207D07B68454A934201D1042303
:1041400008E0072306E0032304E0022302E0012342
:1041500000E00023FA6902F0030292009340BA697A
:104160001343BB613549FB699B080233BA6941F8C7
:104170002320384B9B68BB613B69DB43BA69134022
:10418000BB613B685B6803F48013002B03D0BA6902
:104190003B691343BB612F4ABB6993602D4BDB68BE
:1041A000BB613B69DB43BA691340BB613B685B6839
:1041B00003F40013002B03D0BA693B691343BB61BE
:1041C000244ABB69D360234B5B68BB613B69DB431B
:1041D000BA691340BB613B685B6803F40033002B92
:1041E00003D0BA693B691343BB611A4ABB69536088
:1041F000184B1B68BB613B69DB43BA691340BB6169
:104200003B685B6803F48033002B03D0BA693B69D9
:104210001343BB610F4ABB691360FB690133FB6148
:10422000FB690F2B7FF6A2AE00BF00BF2437BD464F
:104230005DF8047B704700BF003802400038014041
:10424000000002400004024000080240000C02404E
:1042500000100240003C014080B485B000AF78609F
:104260000B467B807B681A697B881340002B02D049
:104270000123FB7301E00023FB73FB7B184614371B
:10428000BD465DF8047B704780B483B000AF7860B2
:104290000B467B8013467B707B78002B03D07A889B
:1042A0007B689A6103E07B881A047B689A6100BF8F
:1042B0000C37BD465DF8047B7047000080B582B0C6
:1042C00000AF0346FB80084B5A69FB881340002B64
:1042D00006D0054AFB885361FB881846FEF730FF7D
:1042E00000BF0837BD4680BD003C014080B586B0A8
:1042F00000AF78607B68002B01D1012367E27B6807
:104300001B6803F00103002B75D0884B9B6803F0FA
:104310000C03042B0CD0854B9B6803F00C03082B7B
:1043200012D1824B5B6803F48003B3F5800F0BD18D
:104330007E4B1B6803F40033002B5BD07B685B680B
:10434000002B57D1012342E27B685B68B3F5803FC5
:1043500006D1764B1B68754A43F4803313601DE029
:104360007B685B68B3F5A02F0CD1704B1B686F4A5C
:1043700043F4802313606D4B1B686C4A43F4803315
:1043800013600BE0694B1B68684A23F480331360A9
:10439000664B1B68654A23F4802313607B685B6867
:1043A000002B13D0FFF754FC386108E0FFF750FCF6
:1043B00002463B69D31A642B01D9032307E25B4B06
:1043C0001B6803F40033002BF0D014E0FFF740FC2F
:1043D000386108E0FFF73CFC02463B69D31A642BC6
:1043E00001D90323F3E1514B1B6803F40033002B85
:1043F000F0D100E000BF7B681B6803F00203002BD4
:1044000063D04A4B9B6803F00C03002B0BD0474B47
:104410009B6803F00C03082B1CD1444B5B6803F42E
:104420008003002B16D1414B1B6803F00203002BC5
:1044300005D07B68DB68012B01D00123C7E13B4B32
:104440001B6823F0F8027B681B69DB0037491343C4
:104450000B603AE07B68DB68002B20D0344B0122F4
:104460001A60FFF7F5FB386108E0FFF7F1FB024641
:104470003B69D31A022B01D90323A8E12B4B1B68FC
:1044800003F00203002BF0D0284B1B6823F0F80246
:104490007B681B69DB00254913430B6015E0244B47
:1044A00000221A60FFF7D4FB386108E0FFF7D0FB69
:1044B00002463B69D31A022B01D9032387E11B4B28
:1044C0001B6803F00203002BF0D17B681B6803F02C
:1044D0000803002B36D07B685B69002B16D0154B88
:1044E00001221A60FFF7B4FB386108E0FFF7B0FB68
:1044F00002463B69D31A022B01D9032367E10B4B18
:104500005B6F03F00203002BF0D01BE0094B00228D
:104510001A60FFF79DFB38610EE0FFF799FB02463A
:104520003B69D31A022B07D9032350E1003802401C
:1045300000004742800E4742884B5B6F03F0020346
:10454000002BEAD17B681B6803F00403002B00F00A
:1045500097800023FB75814B1B6C03F08053002B6D
:104560000FD10023BB607D4B1B6C7C4A43F0805312
:1045700013647A4B1B6C03F08053BB60BB68012350
:10458000FB75774B1B6803F48073002B18D1744BB9
:104590001B68734A43F480731360FFF759FB38615B
:1045A00008E0FFF755FB02463B69D31A022B01D9FD
:1045B00003230CE16A4B1B6803F48073002BF0D0DB
:1045C0007B689B68012B06D1644B1B6F634A43F0E9
:1045D000010313671CE07B689B68052B0CD15F4BC4
:1045E0001B6F5E4A43F0040313675C4B1B6F5B4A0F
:1045F00043F0010313670BE0584B1B6F574A23F03E
:1046000001031367554B1B6F544A23F004031367D0
:104610007B689B68002B15D0FFF71AFB38610AE016
:10462000FFF716FB02463B69D31A41F288329342E8
:1046300001D90323CBE0494B1B6F03F00203002B8E
:10464000EED014E0FFF704FB38610AE0FFF700FB4F
:1046500002463B69D31A41F28832934201D90323BF
:10466000B5E03E4B1B6F03F00203002BEED1FB7D48
:10467000012B05D1394B1B6C384A23F0805313644E
:104680007B689B69002B00F0A180344B9B6803F092
:104690000C03082B5CD07B689B69022B41D1314B0A
:1046A00000221A60FFF7D4FA386108E0FFF7D0FA69
:1046B00002463B69D31A022B01D9032387E0274B1B
:1046C0001B6803F00073002BF0D17B68DA697B680C
:1046D0001B6A1A437B685B6A9B011A437B689B6A6F
:1046E0005B08013B1B041A437B68DB6A1B061B4902
:1046F00013434B601B4B01221A60FFF7A9FA386184
:1047000008E0FFF7A5FA02463B69D31A022B01D94C
:1047100003235CE0114B1B6803F00073002BF0D007
:1047200054E0104B00221A60FFF792FA386108E05B
:10473000FFF78EFA02463B69D31A022B01D90323F5
:1047400045E0064B1B6803F00073002BF0D13DE001
:104750007B689B69012B07D1012338E000380240B8
:1047600000700040600047421B4B5B68FB607B6849
:104770009B69012B28D0FB6803F480027B68DB690E
:104780009A4221D1FB6803F03F027B681B6A9A4280
:104790001AD1FA6847F6C07313407A68526A9201D8
:1047A000934211D1FB6803F440327B689B6A5B083B
:1047B000013B1B049A4207D1FB6803F070627B68DF
:1047C000DB6A1B069A4201D0012300E00023184651
:1047D0001837BD4680BD00BF0038024080B584B0A8
:1047E00000AF786039607B68002B01D10123CCE0F9
:1047F000684B1B6803F007033A689A420CD9654B73
:104800003A68D2B21A70634B1B6803F007033A6828
:104810009A4201D00123B8E07B681B6803F00203D1
:10482000002B20D07B681B6803F00403002B05D00D
:10483000594B9B68584A43F4E05393607B681B686C
:1048400003F00803002B05D0534B9B68524A43F4F6
:1048500060439360504B9B6823F0F0027B689B6839
:104860004D4913438B607B681B6803F00103002BE9
:1048700044D07B685B68012B07D1474B1B6803F46E
:104880000033002B19D101237FE07B685B68022B8A
:1048900003D07B685B68032B07D13F4B1B6803F099
:1048A0000073002B09D101236FE03B4B1B6803F021
:1048B0000203002B01D1012367E0374B9B6823F0F3
:1048C00003027B685B68344913438B60FFF7C0F9D0
:1048D000F8600AE0FFF7BCF90246FB68D31A41F220
:1048E0008832934201D903234FE02B4B9B6803F09E
:1048F0000C027B685B689B009A42EBD1254B1B68DE
:1049000003F007033A689A420CD2224B3A68D2B2BB
:104910001A70204B1B6803F007033A689A4201D0D3
:10492000012332E07B681B6803F00403002B08D0EE
:10493000194B9B6823F4E0527B68DB6816491343EC
:104940008B607B681B6803F00803002B09D0124BB7
:104950009B6823F460427B681B69DB000E491343AC
:104960008B6000F021F802460B4B9B681B0903F09B
:104970000F030A49CB5C22FA03F3094A1360094B7F
:104980001B681846FEF748FC002318461037BD4642
:1049900080BD00BF003C02400038024054A5000822
:1049A00014000020180000202DE9B04F90B000AF97
:1049B00000237B630023FB6300233B630023BB6373
:1049C000594B9B6803F00C03082B0DD0082B00F209
:1049D000A180002B02D0042B03D09BE0534BBB6380
:1049E0009BE0534BBB6398E04F4B5B6803F03F0386
:1049F0007B634D4B5B6803F48003002B28D04A4B4C
:104A00005B689B0900223B627A623B6AC3F3080041
:104A10000021474B03FB01F2002300FB03F3134487
:104A2000434AA0FB0212FA620A46BA62FA6A1344C7
:104A3000FB627B6B0022BB61FA61D7E90623D7E9F1
:104A40000A01FCF793F802460B461346FB6353E05A
:104A5000354B5B689B0900223B617A613B69C3F37C
:104A6000080A4FF0000B52465B464FF000004FF033
:104A70000001590141EAD261500102460B46B2EBF6
:104A80000A0863EB0B094FF000024FF000034FEAF6
:104A9000891343EA98634FEA8812B2EB080463EB88
:104AA00009054FF000024FF00003EB0043EA547396
:104AB000E20014461D4614EB0A033B6045EB0B0372
:104AC0007B604FF000024FF00003D7E90045294614
:104AD0008B02214643EA915321468A021046194629
:104AE0007B6B0022BB60FA60D7E90223FCF73EF83B
:104AF00002460B461346FB630B4B5B681B0C03F033
:104B0000030301335B003B63FA6B3B6BB2FBF3F3D4
:104B1000BB6302E0054BBB6300BFBB6B184640376D
:104B2000BD46BDE8B08F00BF003802400024F4004D
:104B300040787D0180B400AF034B1B681846BD462A
:104B40005DF8047B704700BF1400002080B500AF03
:104B5000FFF7F0FF0246054B9B689B0A03F0070333
:104B60000349CB5C22FA03F3184680BD00380240AB
:104B700064A5000880B500AFFFF7DCFF0246054BD7
:104B80009B685B0B03F007030349CB5C22FA03F33A
:104B9000184680BD0038024064A5000880B483B088
:104BA00000AF786039607B680F221A60124B9B68F7
:104BB00003F003027B685A600F4B9B6803F0F0021E
:104BC0007B689A600C4B9B6803F4E0527B68DA6068
:104BD000094B9B68DB0803F4E0527B681A61074BC2
:104BE0001B6803F007023B681A6000BF0C37BD4624
:104BF0005DF8047B704700BF00380240003C024073
:104C000080B582B000AF78607B68002B01D10123B2
:104C100041E07B6893F83D30DBB2002B06D17B6826
:104C2000002283F83C207868FEF764FD7B6802224E
:104C300083F83D207B681A687B6804331946104668
:104C400000F094FE7B68012283F846207B680122F5
:104C500083F83E207B68012283F83F207B68012295
:104C600083F840207B68012283F841207B68012281
:104C700083F842207B68012283F843207B6801226D
:104C800083F844207B68012283F845207B68012259
:104C900083F83D20002318460837BD4680BD00003C
:104CA00080B485B000AF78607B6893F83D30DBB2AC
:104CB000012B01D0012344E07B68022283F83D20D0
:104CC0007B681B68DA687B681B6842F00102DA6067
:104CD0007B681B681E4A934218D07B681B68B3F13F
:104CE000804F13D07B681B681A4A93420ED07B68B2
:104CF0001B68194A934209D07B681B68174A934284
:104D000004D07B681B68164A934211D17B681B68EC
:104D10009B6803F00703FB60FB68062B10D07B68E1
:104D20001B681A687B681B6842F001021A6007E082
:104D30007B681B681A687B681B6842F001021A6076
:104D4000002318461437BD465DF8047B704700BF4A
:104D5000000001400004004000080040000C00403A
:104D60000040014080B582B000AF78607B68002BC6
:104D700001D1012341E07B6893F83D30DBB2002B89
:104D800006D17B68002283F83C207868FEF74CFD52
:104D90007B68022283F83D207B681A687B680433B5
:104DA0001946104600F0E2FD7B68012283F8462098
:104DB0007B68012283F83E207B68012283F83F2034
:104DC0007B68012283F840207B68012283F8412020
:104DD0007B68012283F842207B68012283F843200C
:104DE0007B68012283F844207B68012283F84520F8
:104DF0007B68012283F83D20002318460837BD4612
:104E000080BD000080B584B000AF786039603B6839
:104E1000002B09D17B6893F83E30DBB2012B14BF25
:104E200001230023DBB222E03B68042B09D17B681D
:104E300093F83F30DBB2012B14BF01230023DBB218
:104E400015E03B68082B09D17B6893F84030DBB252
:104E5000012B14BF01230023DBB208E07B6893F829
:104E60004130DBB2012B14BF01230023DBB2002B46
:104E700001D0012368E03B68002B04D17B6802224B
:104E800083F83E2013E03B68042B04D17B680222A8
:104E900083F83F200BE03B68082B04D17B6802229B
:104EA00083F8402003E07B68022283F841207B687E
:104EB0001B6801223968184601F01CF97B681B68E1
:104EC000234A934207D17B681B685A6C7B681B6836
:104ED00042F400425A647B681B681D4A934218D012
:104EE0007B681B68B3F1804F13D07B681B68194A3D
:104EF00093420ED07B681B68174A934209D07B68A7
:104F00001B68164A934204D07B681B68144A93427C
:104F100011D17B681B689B6803F00703FB60FB688B
:104F2000062B10D07B681B681A687B681B6842F0F0
:104F300001021A6007E07B681B681A687B681B68BF
:104F400042F001021A60002318461037BD4680BDAA
:104F5000000001400004004000080040000C004038
:104F60000040014080B582B000AF78607B68002BC4
:104F700001D1012341E07B6893F83D30DBB2002B87
:104F800006D17B68002283F83C20786800F039F86D
:104F90007B68022283F83D207B681A687B680433B3
:104FA0001946104600F0E2FC7B68012283F8462097
:104FB0007B68012283F83E207B68012283F83F2032
:104FC0007B68012283F840207B68012283F841201E
:104FD0007B68012283F842207B68012283F843200A
:104FE0007B68012283F844207B68012283F84520F6
:104FF0007B68012283F83D20002318460837BD4610
:1050000080BD80B483B000AF786000BF0C37BD4670
:105010005DF8047B7047000080B584B000AF786015
:1050200039600023FB733B68002B04D17B6893F845
:105030003E30DBB213E03B68042B04D17B6893F86D
:105040003F30DBB20BE03B68082B04D17B6893F860
:105050004030DBB203E07B6893F84130DBB2BB73D6
:105060003B68002B04D17B6893F84230DBB213E03D
:105070003B68042B04D17B6893F84330DBB20BE030
:105080003B68082B04D17B6893F84430DBB203E023
:105090007B6893F84530DBB27B73BB7B012B02D17D
:1050A0007B7B012B01D00123C2E03B68002B04D1A4
:1050B0007B68022283F83E2013E03B68042B04D176
:1050C0007B68022283F83F200BE03B68082B04D169
:1050D0007B68022283F8402003E07B68022283F889
:1050E00041203B68002B04D17B68022283F84220D8
:1050F00013E03B68042B04D17B68022283F8432031
:105100000BE03B68082B04D17B68022283F8442023
:1051100003E07B68022283F845203B680C2B41D8D2
:1051200001A252F823F000BF5D510008A55100080C
:10513000A5510008A55100086F510008A5510008AD
:10514000A5510008A551000881510008A55100088B
:10515000A5510008A5510008935100087B681B6801
:10516000DA687B681B6842F00202DA601DE07B6847
:105170001B68DA687B681B6842F00402DA6014E09E
:105180007B681B68DA687B681B6842F00802DA609B
:105190000BE07B681B68DA687B681B6842F01002D2
:1051A000DA6002E00123FB7300BFFB7B002B3ED1E2
:1051B0007B681B6801223968184600F09BFF7B68FA
:1051C0001B681D4A934218D07B681B68B3F1804F5F
:1051D00013D07B681B68194A93420ED07B681B680A
:1051E000174A934209D07B681B68164A934204D041
:1051F0007B681B68144A934211D17B681B689B68CB
:1052000003F00703BB60BB68062B10D07B681B68EC
:105210001A687B681B6842F001021A6007E07B682D
:105220001B681A687B681B6842F001021A60FB7BEE
:1052300018461037BD4680BD000001400004004004
:1052400000080040000C00400040014080B582B0E2
:1052500000AF78607B681B681B6903F00203022BB8
:1052600022D17B681B68DB6803F00203022B1BD191
:105270007B681B686FF002021A617B6801221A7753
:105280007B681B689B6903F00303002B03D07868DD
:10529000FDF7DCFE05E0786800F04AFB786800F076
:1052A00051FB7B6800221A777B681B681B6903F03F
:1052B0000403042B22D17B681B68DB6803F0040322
:1052C000042B1BD17B681B686FF004021A617B689A
:1052D00002221A777B681B689B6903F44073002BDA
:1052E00003D07868FDF7B2FE05E0786800F020FB97
:1052F000786800F027FB7B6800221A777B681B68C0
:105300001B6903F00803082B22D17B681B68DB684C
:1053100003F00803082B1BD17B681B686FF00802A1
:105320001A617B6804221A777B681B68DB6903F0CB
:105330000303002B03D07868FDF788FE05E078684A
:1053400000F0F6FA786800F0FDFA7B6800221A7720
:105350007B681B681B6903F01003102B22D17B684C
:105360001B68DB6803F01003102B1BD17B681B68E4
:105370006FF010021A617B6808221A777B681B683D
:10538000DB6903F44073002B03D07868FDF75EFE01
:1053900005E0786800F0CCFA786800F0D3FA7B6812
:1053A00000221A777B681B681B6903F00103012B3D
:1053B0000ED17B681B68DB6803F00103012B07D16A
:1053C0007B681B686FF001021A617868FDF7DEFEEA
:1053D0007B681B681B6903F08003802B0ED17B6800
:1053E0001B68DB6803F08003802B07D17B681B6898
:1053F0006FF080021A61786800F01AFF7B681B6802
:105400001B6903F04003402B0ED17B681B68DB68EF
:1054100003F04003402B07D17B681B686FF040020C
:105420001A61786800F098FA7B681B681B6903F0C2
:105430002003202B0ED17B681B68DB6803F0200360
:10544000202B07D17B681B686FF020021A617868F7
:1054500000F0E4FE00BF0837BD4680BD80B586B0D1
:1054600000AFF860B9607A600023FB75FB6893F8C1
:105470003C30012B01D1022388E0FB68012283F834
:105480003C207B68002B1BD1FB681868BB6819683F
:10549000BB685A68BB68DB6800F074FCFB681B687B
:1054A0009A69FB681B6822F00C029A61FB681B6812
:1054B0009969BB689A68FB681B680A439A6160E057
:1054C0007B68042B1CD1FB681868BB681968BB6833
:1054D0005A68BB68DB6800F0ECFCFB681B689A69E3
:1054E000FB681B6822F440629A61FB681B6899693B
:1054F000BB689B681A02FB681B680A439A6140E01C
:105500007B68082B1BD1FB681868BB681968BB68EF
:105510005A68BB68DB6800F039FDFB681B68DA6914
:10552000FB681B6822F00C02DA61FB681B68D96912
:10553000BB689A68FB681B680A43DA6121E07B68F4
:105540000C2B1CD1FB681868BB681968BB685A68CB
:10555000BB68DB6800F056FDFB681B68DA69FB6816
:105560001B6822F44062DA61FB681B68D969BB687A
:105570009B681A02FB681B680A43DA6101E0012399
:10558000FB75FB68002283F83C20FB7D184618372A
:10559000BD4680BD80B586B000AFF860B9607A6066
:1055A0000023FB75FB6893F83C30012B01D10223EB
:1055B000AEE0FB68012283F83C207B680C2B00F2F4
:1055C0009F8001A252F823F0FD5500080157000802
:1055D00001570008015700083D5600080157000810
:1055E00001570008015700087F56000801570008BE
:1055F0000157000801570008BF560008FB681B68E8
:10560000B968184600F032FAFB681B689A69FB68B3
:105610001B6842F008029A61FB681B689A69FB6884
:105620001B6822F004029A61FB681B689969BB68D9
:105630001A69FB681B680A439A6164E0FB681B688F
:10564000B968184600F078FAFB681B689A69FB682D
:105650001B6842F400629A61FB681B689A69FB68E8
:105660001B6822F480629A61FB681B689969BB68B9
:105670001B691A02FB681B680A439A6143E0FB68D6
:105680001B68B968184600F0C3FAFB681B68DA6942
:10569000FB681B6842F00802DA61FB681B68DA6984
:1056A000FB681B6822F00402DA61FB681B68D96999
:1056B000BB681A69FB681B680A43DA6123E0FB6870
:1056C0001B68B968184600F00DFBFB681B68DA69B7
:1056D000FB681B6842F40062DA61FB681B68DA69E8
:1056E000FB681B6822F48062DA61FB681B68D96979
:1056F000BB681B691A02FB681B680A43DA6102E097
:105700000123FB7500BFFB68002283F83C20FB7D72
:1057100018461837BD4680BD80B584B000AF7860AC
:1057200039600023FB737B6893F83C30012B01D177
:105730000223B4E07B68012283F83C207B680222CC
:1057400083F83D207B681B689B68BB60BB6823F0C7
:105750007703BB60BB6823F47F43BB607B681B6837
:10576000BA689A603B681B68B3F5005F3ED0B3F53A
:10577000005F00F28780B3F5805F00F08680B3F5AC
:10578000805F7FD8702B1AD0702B7BD8602B50D0C5
:10579000602B77D8502B3CD0502B73D8402B58D04F
:1057A000402B6FD8302B64D0302B6BD8202B60D09F
:1057B000202B67D8002B5CD0102B5AD062E07B687E
:1057C00018683B6899683B685A683B68DB6800F07A
:1057D00071FC7B681B689B68BB60BB6843F0770308
:1057E000BB607B681B68BA689A604FE07B6818688A
:1057F0003B6899683B685A683B68DB6800F05AFC74
:105800007B681B689A687B681B6842F480429A60D8
:105810003CE07B6818683B6859683B68DB681A465F
:1058200000F018FB7B681B685021184600F027FC2D
:105830002CE07B6818683B6859683B68DB681A464F
:1058400000F074FB7B681B686021184600F017FCB1
:105850001CE07B6818683B6859683B68DB681A463F
:1058600000F0F8FA7B681B684021184600F007FC3E
:105870000CE07B681A683B681B681946104600F00C
:10588000FEFB03E00123FB7300E000BF7B68012205
:1058900083F83D207B68002283F83C20FB7B184680
:1058A0001037BD4680BD000080B485B000AF786081
:1058B00039600023FB603B680C2B31D801A252F801
:1058C00023F000BFF95800082159000821590008A9
:1058D00021590008035900082159000821590008DE
:1058E000215900080D5900082159000821590008C4
:1058F00021590008175900087B681B685B6BFB6027
:105900000FE07B681B689B6BFB600AE07B681B6891
:10591000DB6BFB6005E07B681B681B6CFB6000E0D9
:1059200000BFFB6818461437BD465DF8047B70471E
:1059300080B483B000AF786000BF0C37BD465DF81F
:10594000047B704780B483B000AF786000BF0C3731
:10595000BD465DF8047B704780B483B000AF7860CB
:1059600000BF0C37BD465DF8047B704780B485B03E
:1059700000AF786039607B681B68FB607B68344AE5
:1059800093420FD07B68B3F1804F0BD07B68314AD4
:10599000934207D07B68304A934203D07B682F4AFA
:1059A000934208D1FB6823F07003FB603B685B689F
:1059B000FA681343FB607B68254A93421BD07B68DF
:1059C000B3F1804F17D07B68224A934213D07B6893
:1059D000214A93420FD07B68204A93420BD07B68C8
:1059E0001F4A934207D07B681E4A934203D07B68CC
:1059F0001D4A934208D1FB6823F44073FB603B6867
:105A0000DB68FA681343FB60FB6823F080023B68A5
:105A10005B691343FB607B68FA681A603B689A68AD
:105A20007B68DA623B681A687B689A627B68084A1E
:105A3000934203D13B681A697B681A637B68012231
:105A40005A6100BF1437BD465DF8047B704700BF44
:105A5000000001400004004000080040000C00402D
:105A600000400140004401400048014080B487B03C
:105A700000AF786039607B681B6A23F001027B68A5
:105A80001A627B681B6A7B617B685B683B617B6831
:105A90009B69FB60FB6823F07003FB60FB6823F0ED
:105AA0000303FB603B681B68FA681343FB607B6978
:105AB00023F002037B613B689B687A6913437B6137
:105AC0007B681C4A93420CD17B6923F008037B61FD
:105AD0003B68DB687A6913437B617B6923F00403CD
