:020000040800F2
:10000000000001208D300008A9290008AF29000850
:10001000B5290008BB290008C1290008000000001C
:10002000000000000000000000000000418F0008F8
:10003000C7290008000000009191000835690008F8
:10004000DD300008DD300008DD300008DD3000085C
:10005000DD300008DD300008DD300008DD3000084C
:10006000DD300008DD300008DD300008DD3000083C
:10007000DD300008DD300008DD300008DD3000082C
:10008000DD300008DD300008DD3000080000000031
:10009000000000000000000000000000DD3000084B
:1000A000DD300008D5290008DD300008DD3000080B
:1000B000E9290008DD300008DD300008DD300008E7
:1000C000DD300008DD300008DD300008DD300008DC
:1000D000DD300008DD300008FD29000800000000C8
:1000E000DD300008DD300008DD30000800000000D1
:1000F000000000000000000000000000DD300008EB
:1001000000000000DD300008DD300008DD300008B0
:1001100000000000000000000000000000000000DF
:10012000DD300008DD300008DD300008DD3000087B
:10013000DD300008000000000000000000000000AA
:10014000000000000000000000000000DD3000089A
:10015000DD300008DD300008DD300008DD3000084B
:10016000DD300008DD300008000000000000000065
:10017000000000000000000000000000000000007F
:1001800000000000DD30000800000000000000005A
:04019000DD30000856
:1001A00010B5054C237833B9044B13B10448AFF3B1
:1001B00000800123237010BD880000200000000093
:1001C0008C98000808B5034B1BB103490348AFF3F3
:1001D000008008BD000000008C0000208C98000802
:1001E00081F0004102E000BF83F0004330B54FEAE8
:1001F00041044FEA430594EA050F08BF90EA020F55
:100200001FBF54EA000C55EA020C7FEA645C7FEAE7
:10021000655C00F0E2804FEA5454D4EB5555B8BF0A
:100220006D420CDD2C4480EA020281EA030382EA7B
:10023000000083EA010180EA020281EA0303362D0D
:1002400088BF30BD11F0004F4FEA01314FF4801CE0
:100250004CEA113102D0404261EB410113F0004FF2
:100260004FEA03334CEA133302D0524263EB4303A9
:1002700094EA050F00F0A780A4F10104D5F1200E47
:100280000DDB02FA0EFC22FA05F2801841F10001A2
:1002900003FA0EF2801843FA05F359410EE0A5F176
:1002A00020050EF1200E012A03FA0EFC28BF4CF0A7
:1002B000020C43FA05F3C01851EBE37101F000455D
:1002C00007D54FF0000EDCF1000C7EEB00006EEB6A
:1002D0000101B1F5801F1BD3B1F5001F0CD34908F4
:1002E0005FEA30004FEA3C0C04F101044FEA44524B
:1002F00012F5800F80F09A80BCF1004F08BF5FEAD2
:10030000500C50F1000041EB045141EA050130BDB1
:100310005FEA4C0C404141EB0101013C28BFB1F5C3
:10032000801FE9D291F0000F04BF01460020B1FA0E
:1003300081F308BF2033A3F10B03B3F120020CDAE1
:100340000C3208DD02F1140CC2F10C0201FA0CF0BF
:1003500021FA02F10CE002F11402D8BFC2F1200C24
:1003600001FA02F120FA0CFCDCBF41EA0C019040DA
:10037000E41AA2BF01EB0451294330BD6FEA040423
:100380001F3C1CDA0C340EDC04F11404C4F120020E
:1003900020FA04F001FA02F340EA030021FA04F320
:1003A00045EA030130BDC4F10C04C4F1200220FA77
:1003B00002F001FA04F340EA0300294630BD21FAB5
:1003C00004F0294630BD94F0000F83F4801306BF7B
:1003D00081F480110134013D4EE77FEA645C18BF6F
:1003E0007FEA655C29D094EA050F08BF90EA020F06
:1003F00005D054EA000C04BF1946104630BD91EAFE
:10040000030F1EBF0021002030BD5FEA545C05D100
:100410004000494128BF41F0004130BD14F580043F
:100420003CBF01F5801130BD01F0004545F0FE41B3
:1004300041F470014FF0000030BD7FEA645C1ABFE8
:10044000194610467FEA655C1CBF0B46024650EA1F
:10045000013406BF52EA033591EA030F41F400214B
:1004600030BD00BF90F0000F04BF0021704730B5D1
:100470004FF4806404F132044FF000054FF00001A6
:1004800050E700BF90F0000F04BF0021704730B567
:100490004FF4806404F1320410F0004548BF40423C
:1004A0004FF000013EE700BF42004FEAE2014FEA91
:1004B00031014FEA02701FBF12F07F4393F07F4F6C
:1004C00081F06051704732F07F4208BF704793F06F
:1004D0007F4F04BF41F40021704730B54FF4607482
:1004E00001F0004521F000411CE700BF50EA010285
:1004F00008BF704730B54FF000050AE050EA01022E
:1005000008BF704730B511F0004502D5404261EB9D
:1005100041014FF4806404F132045FEA915C3FF4DE
:10052000D8AE4FF003025FEADC0C18BF03325FEA7B
:10053000DC0C18BF033202EBDC02C2F1200300FA2C
:1005400003FC20FA02F001FA03FE40EA0E0021FA51
:1005500002F11444BDE600BF70B54FF0FF0C4CF43F
:10056000E06C1CEA11541DBF1CEA135594EA0C0FF1
:1005700095EA0C0F00F0DEF82C4481EA030621EA2C
:100580004C5123EA4C5350EA013518BF52EA033567
:1005900041F4801143F4801338D0A0FB02CE4FF019
:1005A0000005E1FB02E506F00042E0FB03E54FF049
:1005B0000006E1FB03569CF0000F18BF4EF0010E41
:1005C000A4F1FF04B6F5007F64F5407404D25FEA3D
:1005D0004E0E6D4146EB060642EAC62141EA5551F0
:1005E0004FEAC52040EA5E504FEACE2EB4F1FD0C32
:1005F00088BFBCF5E06F1ED8BEF1004F08BF5FEAB0
:10060000500E50F1000041EB045170BD06F0004661
:1006100046EA010140EA020081EA0301B4EB5C040E
:10062000C2BFD4EB0C0541EA045170BD41F4801106
:100630004FF0000E013C00F3AB8014F1360FDEBF2B
:10064000002001F0004170BDC4F10004203C35DA07
:100650000C341BDC04F11404C4F1200500FA05F38A
:1006600020FA04F001FA05F240EA020001F000422B
:1006700021F0004110EBD37021FA04F642EB0601A1
:100680005EEA430E08BF20EAD37070BDC4F10C04CB
:10069000C4F1200500FA04F320FA05F001FA04F28F
:1006A00040EA020001F0004110EBD37041F100017B
:1006B0005EEA430E08BF20EAD37070BDC4F1200586
:1006C00000FA05F24EEA020E20FA04F301FA05F2EE
:1006D00043EA020321FA04F001F0004121FA04F296
:1006E00020EA020000EBD3705EEA430E08BF20EA66
:1006F000D37070BD94F0000F0FD101F000464000A0
:1007000041EB010111F4801F08BF013CF7D041EA21
:10071000060195F0000F18BF704703F00046520025
:1007200043EB030313F4801F08BF013DF7D043EAF6
:100730000603704794EA0C0F0CEA135518BF95EAAC
:100740000C0F0CD050EA410618BF52EA4306D1D133
:1007500081EA030101F000414FF0000070BD50EA52
:10076000410606BF1046194652EA430619D094EADC
:100770000C0F02D150EA013613D195EA0C0F05D1C6
:1007800052EA03361CBF104619460AD181EA03011A
:1007900001F0004141F0FE4141F470014FF00000D2
:1007A00070BD41F0FE4141F4780170BD70B54FF06D
:1007B000FF0C4CF4E06C1CEA11541DBF1CEA1355ED
:1007C00094EA0C0F95EA0C0F00F0A7F8A4EB0504CF
:1007D00081EA030E52EA03354FEA013100F08880C6
:1007E0004FEA03334FF0805545EA131343EA12638F
:1007F0004FEA022245EA111545EA10654FEA002644
:100800000EF000419D4208BF964244F1FD0404F5FC
:10081000407402D25B084FEA3202B61A65EB030558
:100820005B084FEA32024FF480104FF4002CB6EB15
:10083000020E75EB030E22BFB61A754640EA0C0095
:100840005B084FEA3202B6EB020E75EB030E22BFD5
:10085000B61A754640EA5C005B084FEA3202B6EB16
:10086000020E75EB030E22BFB61A754640EA9C00D5
:100870005B084FEA3202B6EB020E75EB030E22BFA5
:10088000B61A754640EADC0055EA060E18D04FEA63
:10089000051545EA16754FEA06164FEAC30343EA03
:1008A00052734FEAC2025FEA1C1CC0D111F4801FD0
:1008B0000BD141EA00014FF000004FF0004CB6E7C9
:1008C00011F4801F04BF01430020B4F1FD0C88BF68
:1008D000BCF5E06F3FF6AFAEB5EB030C04BFB6EB73
:1008E000020C5FEA500C50F1000041EB045170BD66
:1008F0000EF0004E4EEA113114EB5C04C2BFD4EB93
:100900000C0541EA045170BD41F480114FF0000E16
:10091000013C90E645EA060E8DE60CEA135594EA92
:100920000C0F08BF95EA0C0F3FF43BAF94EA0C0F95
:100930000AD150EA01347FF434AF95EA0C0F7FF40A
:1009400025AF104619462CE795EA0C0F06D152EA5E
:1009500003353FF4FDAE1046194622E750EA410642
:1009600018BF52EA43067FF4C5AE50EA41047FF453
:100970000DAF52EA43057FF4EBAE12E74A0011D205
:1009800012F5001211D20DD56FF47873B3EB6252E9
:100990000ED44FEAC12343F0004343EA505323FAF5
:1009A00002F070474FF00000704750EA013002D16A
:1009B0004FF0FF3070474FF0000070474FEA4102A0
:1009C000B2F1E04324BFB3F5001CDCF1FE5C0DD9AD
:1009D00001F0004C4FEAC0024CEA5070B2F1004FF7
:1009E00040EB830008BF20F00100704711F0804FFA
:1009F00021D113F13872BCBF01F00040704741F4BF
:100A000080114FEA5252C2F11802C2F1200C10FAC2
:100A10000CF320FA02F018BF40F001004FEAC123A6
:100A20004FEAD32303FA0CFC40EA0C0023FA02F34A
:100A30004FEA4303CCE77FEA625307D150EA013320
:100A40001EBF4FF0FE4040F44000704701F00040F0
:100A500040F0FE4040F40000704700BF53B94AB96F
:100A6000002908BF00281CBF4FF0FF314FF0FF30B6
:100A700000F074B9ADF1080C6DE904CE00F006F891
:100A8000DDF804E0DDE9022304B070472DE9F0470A
:100A9000089D04468E46002B4DD18A42944669D962
:100AA000B2FA82F252B101FA02F3C2F1200120FA45
:100AB00001F10CFA02FC41EA030E94404FEA1C4893
:100AC000210CBEFBF8F61FFA8CF708FB16E341EA8F
:100AD000034306FB07F199420AD91CEB030306F115
:100AE000FF3080F01F81994240F21C81023E634436
:100AF0005B1AA4B2B3FBF8F008FB103344EA0344DA
:100B000000FB07F7A7420AD91CEB040400F1FF33EE
:100B100080F00A81A74240F207816444023840EA2B
:100B20000640E41B00261DB1D4400023C5E9004364
:100B30003146BDE8F0878B4209D9002D00F0EF80E7
:100B40000026C5E9000130463146BDE8F087B3FA1A
:100B500083F6002E4AD18B4202D3824200F2F98002
:100B6000841A61EB030301209E46002DE0D0C5E905
:100B7000004EDDE702B9FFDEB2FA82F2002A40F051
:100B80009280A1EB0C014FEA1C471FFA8CFE012654
:100B9000200CB1FBF7F307FB131140EA01410EFBF8
:100BA00003F0884208D91CEB010103F1FF3802D29F
:100BB000884200F2CB804346091AA4B2B1FBF7F099
:100BC00007FB101144EA01440EFB00FEA64508D9BC
:100BD0001CEB040400F1FF3102D2A64500F2BB80F9
:100BE0000846A4EB0E0440EA03409CE7C6F1200748
:100BF000B34022FA07FC4CEA030C20FA07F401FA8E
:100C000006F31C43F9404FEA1C4900FA06F3B1FB16
:100C1000F9F8200C1FFA8CFE09FB181140EA01417B
:100C200008FB0EF0884202FA06F20BD91CEB010118
:100C300008F1FF3A80F08880884240F28580A8F170
:100C400002086144091AA4B2B1FBF9F009FB1011C2
:100C500044EA014100FB0EFE8E4508D91CEB010160
:100C600000F1FF346CD28E456AD90238614440EA03
:100C70000840A0FB0294A1EB0E01A142C846A64683
:100C800056D353D05DB1B3EB080261EB0E0101FA0C
:100C900007F722FA06F3F1401F43C5E90071002669
:100CA0003146BDE8F087C2F12003D8400CFA02FCBF
:100CB00021FA03F3914001434FEA1C471FFA8CFECF
:100CC000B3FBF7F007FB10360B0C43EA064300FBBF
:100CD0000EF69E4204FA02F408D91CEB030300F15D
:100CE000FF382FD29E422DD9023863449B1B89B214
:100CF000B3FBF7F607FB163341EA034106FB0EF39D
:100D00008B4208D91CEB010106F1FF3816D28B4249
:100D100014D9023E6144C91A46EA004638E72E4615
:100D2000284605E70646E3E61846F8E64B45A9D20D
:100D3000B9EB020864EB0C0E0138A3E74646EAE77C
:100D4000204694E74046D1E7D0467BE7023B61442A
:100D500032E7304609E76444023842E7704700BF93
:100D600080B582B000AF3B4600221A609A80002313
:100D7000FB711DE0FA7913465B00134408333B44D2
:100D8000083B01221A70FA7913465B0013440833BA
:100D90003B44073B00221A70FA7913465B00134468
:100DA00008333B44063B00221A70FB790133FB7188
:100DB000FB79012BDED9054B186839460123002247
:100DC00005F03CFF00BF0837BD4680BDEC000020A9
:100DD00080B584B000AF0346FB7107F10803002221
:100DE0001A609A800023FB731DE0FA7B13465B00B8
:100DF000134410333B44083B01221A70FA7B13461C
:100E00005B00134410333B44073BFA791A70FA7BBA
:100E100013465B00134410333B44063B02221A7016
:100E2000FB7B0133FB73FB7B012BDED9054B186881
:100E300007F108010123002205F000FF00BF103771
:100E4000BD4680BDEC00002080B584B000AF0346F5
:100E5000FB7107F1080300221A609A800023FB73DC
:100E60001DE0FA7B13465B00134410333B44083B00
:100E700001221A70FA7B13465B00134410333B4483
:100E8000073BFA791A70FA7B13465B001344103360
:100E90003B44063B04221A70FB7B0133FB73FB7B54
:100EA000012BDED9054B186807F108010123002248
:100EB00005F0C4FE00BF1037BD4680BDEC00002029
:100EC00080B584B000AF0346FB7107F10803002230
:100ED0001A609A8001233B72FB797B720223BB72FA
:100EE0000123FB72FB793B7304237B73054B18686A
:100EF00007F108010123002205F0A0FE00BF103712
:100F0000BD4680BDEC00002080B584B000AF034634
:100F1000FB7107F1080300221A609A8001233B72DB
:100F2000FB797B720423BB720123FB72FB793B7359
:100F300002237B73054B186807F108010123002287
:100F400005F07CFE00BF1037BD4680BDEC000020E0
:100F500080B586B000AF78600023FB757EE0FA7D37
:100F6000796813465B0013440B441B78002B71D047
:100F7000FB7D002B19D1FA7D796813465B00134481
:100F80000B4401331B781846FFF76CFA02460B46F8
:100F900043EC102B01F060FF354BFB60344BBB6022
:100FA0008023BB8240237B821CE0FB7D012B19D177
:100FB000FA7D796813465B0013440B4401331B78B8
:100FC0001846FFF74FFA02460B4643EC102B01F090
:100FD00093FF274BFB60274BBB602023BB824FF462
:100FE00080637B82FA7D796813465B0013440B446F
:100FF00002331B78042B20D0042B2CDC002B02D0D6
:10100000022B0DD027E0BB8A00221946F86802F0B7
:10101000C5FB7B8A00221946B86802F0BFFB1AE0C4
:10102000BB8A01221946F86802F0B8FB7B8A0022CD
:101030001946B86802F0B2FB0DE0BB8A00221946DF
:10104000F86802F0ABFB7B8A01221946B86802F00F
:10105000A5FB00E000BFFB7D0133FB75FB7D012B91
:101060007FF67DAF00BF00BF1837BD4680BD00BF13
:10107000000402400000024080B400AF144BDB6863
:10108000134A23F08073D360114BDB68104A43F09E
:101090008073D3600F4B1B680E4A23F0010313606B
:1010A0000C4B1B680B4A43F001031360094B0022F1
:1010B0005A6000BF00BF00BF064B5B68002B01D029
:1010C000002300E001231846BD465DF8047B70470D
:1010D000F0ED00E0001000E080B584B000AF786073
:1010E0000D4B5B68FB6002F097FF03460B4AA2FBC7
:1010F00003239B0C7A6802FB03F37B6000BF064B63
:101100005A68FB68D21A7B689A42F8D300BF00BFC6
:101110001037BD4680BD00BF001000E083DE1B43DA
:1011200080B596B000AF03463960FB7107F1440308
:1011300000221A605A609A60DA601A6107F134037B
:1011400000221A605A609A60DA6007F12C030022CC
:101150001A605A6007F11C0300221A605A609A60F4
:10116000DA60FFF789FFFA79A24913469B0013441E
:101170009B000B441B68A04A93420ED10023BB6125
:101180009E4B1B6B9D4A43F0010313639B4B1B6BF0
:1011900003F00103BB61BB6966E0FA799549134628
:1011A0009B0013449B000B441B68954A93420ED14D
:1011B00000237B61914B1B6B904A43F00203136346
:1011C0008E4B1B6B03F002037B617B694CE0FA7969
:1011D000884913469B0013449B000B441B68894AB3
:1011E00093420ED100233B61844B1B6B834A43F037
:1011F00004031363814B1B6B03F004033B613B69E6
:1012000032E0FA797B4913469B0013449B000B4460
:101210001B687D4A93420ED10023FB60774B1B6B0A
:10122000764A43F008031363744B1B6B03F0080307
:10123000FB60FB6818E0FA796E4913469B00134483
:101240009B000B441B68714A93420DD10023BB6085
:101250006A4B1B6B694A43F010031363674B1B6BAC
:1012600003F01003BB60BB68FA79624913469B0028
:1012700013449B000B441868FA795E4913469B009F
:1012800013449B000B4404331B880022194602F0D0
:1012900085FAFA79574913469B0013449B000B4487
:1012A00004331B887B640123BB640023FB6400239D
:1012B0003B65FA794F4913469B0013449B000B444E
:1012C0001B6807F144021146184602F0E3F8FA7968
:1012D000484913469B0013449B000B4408331B688A
:1012E000FA79996A4A481346DB0013449B00034489
:1012F00004331960FA793F4913469B0013449B005D
:101300000B4408331B68FA79D96A41481346DB005D
:1013100013449B00034408331960FA793C4913468F
:10132000DB0013449B000B44023300221A80FA793D
:1013300037491346DB0013449B000B441C333A68C7
:101340001A60FA7932491346DB0013449B000B44C0
:1013500008331B68002B0AD1FA792D491346DB00AC
:1013600013449B000B4408334FF6FF721A60FA795E
:10137000204913469B0013449B000B440C331B680D
:10138000002B0AD1FA7922491346DB0013449B0053
:101390000B44203301221A7051E0FA7915491346A3
:1013A0009B0013449B000B440C331B68042B0AD195
:1013B000FA7917491346DB0013449B000B44203392
:1013C00002221A703BE0FA790A4913469B00134443
:1013D0009B000B440C331B68082B1BD1FA790C497A
:1013E0001346DB0013449B000B44203304221A7085
:1013F00025E000BF0C9900080000024000380240C0
:101400000004024000080240000C024000100240AC
:10141000A4000020FA793F4913469B0013449B0027
:101420000B440C331B680C2B09D1FA793A4913464B
:10143000DB0013449B000B44203308221A70FA7916
:10144000344913469B0013449B000B4408331A682D
:101450003B681A60FA7930491346DB0013449B005D
:101460000B4404331A683B685A603B6800229A6058
:10147000FA7929491346DB0013449B000B440833D7
:101480001A683B68DA603B6800221A613B680022F8
:101490009A61386802F026FE4FF480537B6307F1AF
:1014A00034031946386803F00DFC386803F030F84F
:1014B0000023FB6200233B6307F12C0319463868C5
:1014C00004F014F90023FB6101233B6200237B62DB
:1014D0000023BB62FA790F4913469B0013449B001B
:1014E0000B440C331A6807F11C031946386803F0E3
:1014F0008BFAFA79074913469B0013449B000B446F
:101500000C331B681946386803F05CF800BF583785
:10151000BD4680BD0C990008A400002080B485B0B1
:1015200000AF78600023FB730023FB7323E07B682C
:101530001968FA7B154813469B0013449B0003442B
:1015400008331B68994213D1FA7B11491346DB001B
:1015500013449B000B4402331B88013398B20C499F
:101560001346DB0013449B000B44023302461A80EF
:10157000FB7B0133FB73FB7B002BD8D000BF00BF8C
:101580001437BD465DF8047B704700BF0C99000816
:10159000A400002000000000B0B584B000AF786067
:1015A0000023FB730023BB600023FB7330E27B68E6
:1015B0001968FA7B9C4813469B0013449B00034424
:1015C00008331B68994240F02082FA7B9749134602
:1015D000DB0013449B000B441B78002B40F0B380CE
:1015E000FA7B914913469B0013449B000B440C3338
:1015F0001B68FC7B1946786803F02CFC02468B497B
:101600002346DB0023449B000B440C331A60FA7B17
:1016100086491346DB0013449B000B4401221A70D9
:10162000FA7B814913469B0013449B000B440C3307
:101630001B68002B08D17B681B681A6A7B681B68D3
:1016400022F00A021A622FE0FA7B774913469B00C8
:1016500013449B000B440C331B68042B08D17B689C
:101660001B681B6A7A68126823F0A00313621BE0F0
:10167000FA7B6D4913469B0013449B000B440C33CB
:101680001B68082B08D17B681B681B6A7A68126884
:1016900023F42063136207E07B681B681B6A7A6887
:1016A000126823F420431362FA7B5F4913469B00C0
:1016B00013449B000B440C331B68002B08D17B6840
:1016C0001B681A6A7B681B6842F002021A622FE0EC
:1016D000FA7B554913469B0013449B000B440C3383
:1016E0001B68042B08D17B681B681B6A7A68126828
:1016F00043F0200313621BE0FA7B4B4913469B0027
:1017000013449B000B440C331B68082B08D17B68E7
:101710001B681B6A7A68126843F40073136207E05F
:101720007B681B681B6A7A68126843F40053136273
:10173000FA7B3E491346DB0013449B000B44023303
:1017400000221A8061E1FA7B38491346DB0013441A
:101750009B000B441B78012B40F05781FA7B3249E8
:1017600013469B0013449B000B4408331B689B6A81
:10177000BB60FA7B2C4913469B0013449B000B442F
:1017800008331B68FA7BD96A28481346DB001344E8
:101790009B00034408331960FA7B234913469B00DE
:1017A00013449B000B440C331B68FC7B1946786880
:1017B00003F050FB02461D492346DB0023449B00F7
:1017C0000B4410331A60FA7B18491346DB001344AC
:1017D0009B000B4410331968FA7B14481346DB0056
:1017E00013449B0003440C331B68994220D9FA7BB5
:1017F0000E491346DB0013449B000B441033196859
:10180000FA7B0A481346DB0013449B0003440C3365
:101810001B68FA7BC91A05481346DB0013449B007A
:1018200003441433196022E00C990008A40000203E
:10183000FA7B7F491346DB0013449B000B441033B3
:101840001968FA7B7A481346DB0013449B00034473
:101850000C331B68CB1AF97B03F57F42FF327448C7
:101860000B46DB000B449B00034414331A60FA7BE5
:101870006F491346DB0013449B000B4414331B6871
:101880001846FEF7EFFD68A3D3E90023FEF764FED8
:1018900002460B4614461D46FA7B664913469B00DA
:1018A00013449B000B4410331A68BB680133B2FB2E
:1018B000F3F31846FEF7D6FD02460B4620462946AE
:1018C000FEF774FF02460B46FC7B10461946FFF7F5
:1018D00075F8024656492346DB0023449B000B441F
:1018E00018331A60FA7B52491346DB0013449B00FD
:1018F0000B4400221A70FA7B4D491346DB00134457
:101900009B000B44023300221A80FA7B494913469C
:101910009B0013449B000B440C331B68002B08D125
:101920007B681B681A6A7B681B6822F00A021A62CD
:101930002FE0FA7B3F4913469B0013449B000B4466
:101940000C331B68042B08D17B681B681B6A7A6800
:10195000126823F0A00313621BE0FA7B354913469B
:101960009B0013449B000B440C331B68082B08D1CD
:101970007B681B681B6A7A68126823F42063136211
:1019800007E07B681B681B6A7A68126823F42043AF
:101990001362FA7B274913469B0013449B000B44B8
:1019A0000C331B68002B06D17B681A687B681B68A8
:1019B000126A1A6229E0FA7B1E4913469B001344FF
:1019C0009B000B440C331B68042B06D17B681B68FF
:1019D0007A6812681B6A136217E0FA7B154913468E
:1019E0009B0013449B000B440C331B68082B06D14F
:1019F0007B681B687A6812681B6A136205E07B6863
:101A00001B687A6812681B6A1362FB7B0133FB73E5
:101A1000FB7B002B3FF4CBAD00BF00BF1037BD46B2
:101A2000B0BD00BFAFF300809CC420B07268913F8E
:101A3000A40000200C99000880B483B000AF0346D6
:101A4000FB71FA7908491346DB0013449B000B44F1
:101A500018331B6807EE903AB0EE670A0C37BD46A4
:101A60005DF8047B704700BFA400002080B582B001
:101A700000AF0346FB71FA79174913469B001344E4
:101A80009B000B441868FA79134913469B001344D2
:101A90009B000B4404331B880122194601F07EFE93
:101AA0000A20FFF719FBFA790B4913469B001344F0
:101AB0009B000B441868FA79074913469B001344AE
:101AC0009B000B4404331B880022194601F066FE7C
:101AD00000BF0837BD4680BD0C99000880B400AF38
:101AE000144BDB68134A23F08073D360114BDB681F
:101AF000104A43F08073D3600F4B1B680E4A23F0EB
:101B0000010313600C4B1B680B4A43F00103136085
:101B1000094B00225A6000BF00BF00BF064B5B6844
:101B2000002B01D0002300E001231846BD465DF8DC
:101B3000047B7047F0ED00E0001000E0B0B5B2B0FB
:101B400000AF0346FB8007F1AC0300221A605A6025
:101B50009A60DA601A6107F19C0300221A605A60E9
:101B60009A60DA6007F1940300221A605A6007F164
:101B7000780300221A605A609A60DA601A615A612A
:101B80009A610023C7F8C4300023C7F8C030FFF7BC
:101B9000A5FFFB88954A5B0113441B68944A934256
:101BA0000ED10023FB62934B1B6B924A43F001035F
:101BB0001363904B1B6B03F00103FB62FB6A5AE05B
:101BC000FB888A4A5B0113441B688B4A93420ED1FF
:101BD0000023BB62874B1B6B864A43F002031363EF
:101BE000844B1B6B03F00203BB62BB6A43E0FB88C0
:101BF0007E4A5B0113441B68804A93420ED1002346
:101C00007B627C4B1B6B7B4A43F004031363794B71
:101C10001B6B03F004037B627B6A2CE0FB88734A36
:101C20005B0113441B68764A93420ED100233B624A
:101C3000704B1B6B6F4A43F0080313636D4B1B6BB8
:101C400003F008033B623B6A15E0FB88674A5B01CF
:101C500013441B686B4A93420DD10023FB61654B13
:101C60001B6B644A43F010031363624B1B6B03F05E
:101C70001003FB61FB69FB885C4A5B01134404337E
:101C80001B88C7F8AC300223C7F8B0300023C7F870
:101C9000B830FB88554A5B01134414331B6818465F
:101CA000FEF7E0FB4FF00002574BFEF77FFD0246C8
:101CB0000B4610461946FEF761FE0346C7F8C430CE
:101CC000FB884A4A5B01134414331B681846FEF72D
:101CD000C9FB04460D46D7F8C400FEF7C3FB4FF01E
:101CE00000024A4BFEF782FA02460B46104619469E
:101CF0004FF00002464BFEF72FFC02460B462046F3
:101D00002946FEF753FD02460B46104619464FF092
:101D100000023E4BFEF768FA02460B461046194693
:101D2000FEF72CFE0346C7F8C030FB882F4A5B0144
:101D3000134408331B68374A93420ED10023BB611A
:101D40002C4B5B6C2B4A43F001035364294B5B6CB7
:101D500003F00103BB61BB6979E0FB88234A5B01A7
:101D6000134408331B68B3F1804F0ED100237B610D
:101D7000204B1B6C1F4A43F0010313641D4B1B6C6B
:101D800003F001037B617B6961E0FB88174A5B011B
:101D9000134408331B68204A93420ED100233B6151
:101DA000144B1B6C134A43F002031364114B1B6C5E
:101DB00003F002033B613B6949E0FB880B4A5B018E
:101DC000134408331B68154A934229D10023FB6052
:101DD000084B1B6C074A43F004031364054B1B6C50
:101DE00003F00403FB60FB6831E000BF20990008AA
:101DF0000000024000380240000402400008024097
:101E0000000C024000100240000049410000F03F79
:101E1000000049400000014000040040000800406C
:101E2000FB88614A5B01134408331B685F4A934295
:101E30000DD10023BB605E4B5B6C5D4A43F4802395
:101E400053645B4B5B6C03F48023BB60BB68FB8813
:101E5000554A5B01134408331B683B63D7F8C43011
:101E60007B630023BB63D7F8C030FB6300233B6474
:101E70008023BB6407F13003184602F033F94FF4B6
:101E80008053C7F89C3007F19C0207F130031146DC
:101E9000184602F017FF07F13003184602F0D4F994
:101EA0000023C7F894300023C7F8983007F1940254
:101EB00007F130031146184603F018FC6023BB6796
:101EC0000023FB670023C7F880300023C7F8883061
:101ED000FB88354A5B01134410331A6807F1780117
:101EE00007F13003184602F02BFED7F8C000FEF7CA
:101EF000B9FA04460D46FB882B4A5B01134418339C
:101F00001B681846FEF7D0FA4FF00002294BFEF787
:101F10004DFC02460B4620462946FEF71DFB0246B5
:101F20000B46FC8810461946FEF728FD03469AB278
:101F3000214B23F82420D7F8C000FEF793FA04467B
:101F40000D46FB88184A5B0113441C331B68184676
:101F5000FEF7AAFA4FF00002164BFEF727FC0246E6
:101F60000B4620462946FEF7F7FA02460B46FC8848
:101F700010461946FEF702FD034699B20E4AA30029
:101F800013440A465A80FB88074A5B011344103306
:101F90001A6807F130031146184602F0A5F900BF90
:101FA000C837BD46B0BD00BF2099000800480140B9
:101FB0000038024000003440C8000020B0B584B0B2
:101FC00000AF034687ED000AFB800023FB81FB88FE
:101FD0001F4A9B0013445B881946FB881C4A32F851
:101FE0002330CB1A07EE903AB8EEE77AD7ED007AB5
:101FF00067EE277A17EE900AFEF756FA4FF00002C6
:10200000144BFEF7D3FB02460B4614461D46FB88D5
:102010000F4A32F823301846FEF734FA02460B46D0
:1020200020462946FEF7E2F802460B4610461946BE
:10203000FEF7A4FC0346FB81FB88074A5B011344BF
:102040000C331B68FA891A6000BF1037BD46B0BD5B
:10205000C8000020008066402099000880B500AFCD
:10206000184A0621102004F076FD0346164A136034
:10207000164A0021164804F0C1FC0346154A1360B5
:10208000154A0021154804F0B9FC0346144A1360B0
:10209000144A0021144804F0B1FC0346134A1360AB
:1020A000134A0021134804F0A9FC0346124A1360A6
:1020B000124A0021124804F0A1FC0346114A1360A1
:1020C00000BF80BDF4990008EC0000204099000892
:1020D00009210008D8000020649900084121000867
:1020E000DC00002088990008F5220008E0000020AC
:1020F000AC9900083D240008E4000020D0990008B5
:1021000075240008E800002080B586B000AF786034
:102110000A4B186807F10F0207F110010A2304F0B7
:10212000EDFD0346002B04D107F110031846FEF71E
:102130000FFF0A2004F0F4FCEAE700BFEC000020E7
:1021400080B582B000AF7860604B1B78092B40F0FF
:10215000B7800020FFF770FCF0EE407A5C4BC3EDD7
:10216000007A5C4B1B780133DAB25A4B1A70594B28
:102170001B78042B05D90020FFF778FC554B002273
:102180001A70534BD3ED007A9FED537AF4EE477AF1
:10219000F1EE10FA00F098804D4BD3ED007A9FEDF0
:1021A0004F7AF4EEC77AF1EE10FA03DD6420FEF701
:1021B0000FFE6BE0464BD3ED007A9FED487AF4EECC
:1021C000C77AF1EE10FA0DD5414BD3ED007A9FEDB1
:1021D000447AF4EEC77AF1EE10FA03DD5020FEF7F0
:1021E000F7FD53E03A4BD3ED007A9FED3D7AF4EEE4
:1021F000C77AF1EE10FA0DD5354BD3ED007A9FED8D
:10220000397AF4EEC77AF1EE10FA03DD3C20FEF7DE
:10221000DFFD3BE02E4BD3ED007A9FED327AF4EEFA
:10222000C77AF1EE10FA0DD5294BD3ED007A9FED68
:102230002E7AF4EEC77AF1EE10FA03DD2820FEF7CD
:10224000C7FD23E0224BD3ED007A9FED277AF4EE11
:10225000C77AF1EE10FA0DD51D4BD3ED007AB3EE2F
:10226000047AF4EEC77AF1EE10FA03DD1420FEF7DB
:10227000AFFD0BE0164BD3ED007AB3EE047AF4EE2B
:10228000C77AF1EE10FA01D5FEF76AFD104B1B6814
:102290001846FEF709F902460B461449C1E9002326
:1022A000134BD3E900231249C1E90223084B1B68F1
:1022B0001846FEF7F9F802460B460D49C1E900231E
:1022C000142004F02DFC3FE700BF3DE7180100207B
:1022D000CC000020F0000020003C1C460000A04282
:1022E000000082420000484200000C42F80000203A
:1022F0000001002080B582B000AF7860484B1B78A9
:10230000062B40F08980474B30221A70454B302213
:102310005A70454B1B78454A82FB03121211DB179A
:10232000D31ADBB23033DAB23E4B5A713E4B1B78D4
:102330003F4A82FB03125210DB17D21A3C4B83FB3D
:1023400002139910D317C91A0B469B000B445B006C
:10235000D11ACBB23033DAB2324B9A71324B1B788E
:102360005A00334B83FB02139910D317C91A0B463B
:102370009B000B445B00D11ACBB23033DAB2294B4D
:10238000DA712C4B1B78012B3ED12B4B1B78013B78
:10239000032B40D801A252F823F000BFE723000826
:1023A000AD230008C5230008B92300081E4B1B7885
:1023B0001846FEF70DFD2FE01B4B1B781846FEF765
:1023C00043FD29E0184B1B781846FEF79DFD64205D
:1023D00004F0A6FB144B1B781846FEF7F9FC164BCD
:1023E00002221A7018E0104B1B781846FEF768FDA1
:1023F000642004F095FB0C4B1B781846FEF7E8FCB4
:102400000D4B02221A7007E00A4B1B78002B03D1F8
:10241000FEF7A6FC00E000BF0A2004F081FB6DE798
:102420001801002004000020010000201F85EB514E
:1024300067666666000000201901002080B582B042
:1024400000AF7860084B1B78012B08D114230E22B3
:102450000649074803F019FA034B00221A700A20B4
:1024600004F05EFBEEE700BF1A010020040000202C
:102470003C02002080B582B000AF7860184B1B781A
:10248000072B29D10020FFF7D7FAF0EE407A154B41
:10249000C3ED007A144B1B780133DAB2124B1A7079
:1024A000114B1B78042B17D90020FFF7DFFA0E4BD6
:1024B00000221A700B4BD3ED007AB3EE047AF4EEDF
:1024C000C77AF1EE10FA02D800F012F804E0074BD8
:1024D0001B781846FEF77CFC012004F021FBCDE7B9
:1024E00018010020CC000020100100200100002075
:1024F00080B500AFFEF734FC1B4B1B781846FEF787
:10250000A3FC322000F02EFE9FED180A0020FFF7FA
:1025100055FD0020FFF7AAFA4FF4967000F022FE56
:102520000020FFF789FAF0EE407A114BC3ED007AF4
:102530009FED100A0020FFF741FD0020FFF796FAFB
:102540004FF4967000F00EFE0020FFF775FAF0EEE3
:10255000407A094BC3ED007A9FED080A0020FFF78F
:102560002DFD00BF80BD00BF010000200000F04233
:10257000D000002000007042D40000200000B442CF
:1025800080B588B000AF07F10C0300221A605A60D2
:102590009A60DA601A610023BB60244B1B6B234AEC
:1025A00043F001031363214B1B6B03F00103BB607A
:1025B000BB6800237B601D4B1B6B1C4A43F002036E
:1025C00013631A4B1B6B03F002037B607B680022D2
:1025D00044F2E001164801F0E1F800224FF4806176
:1025E000144801F0DBF844F2E003FB6001233B6197
:1025F00000237B610023BB6107F10C0319460C48E3
:1026000000F048FF4FF48063FB6001233B6100232F
:102610007B610023BB6107F10C031946054800F0FC
:1026200039FF00BF2037BD4680BD00BF00380240E3
:10263000000402400000024080B500AF00F050FDF1
:1026400000F02EF8FFF79CFF00F06AFA00F0F8F9AE
:1026500000F0A2FC00F0C8FA0D490020FEF760FD72
:102660000020FFF76BFA00210A4801F03DFE04212B
:10267000084801F039FE04220749084803F097F999
:1026800004F072F9FFF7EAFC04F092F9FEE700BFEC
:1026900064010020AC010020140100203C02002055
:1026A00080B594B000AF07F1200330220021184616
:1026B00007F058F807F10C0300221A605A609A607C
:1026C000DA601A610023BB60234B1B6C224A43F083
:1026D00080531364204B1B6C03F08053BB60BB68BA
:1026E00000237B601D4B1B6823F440431B4A43F4CB
:1026F00000431360194B1B6803F440437B607B6805
:1027000002233B620123FB6210233B630023BB6374
:1027100007F12003184601F05BF80346002B01D0B7
:1027200000F09EF80F23FB6000233B6100237B61D8
:102730000023BB610023FB6107F10C030021184655
:1027400001F0BEFA0346002B01D000F089F800BF6B
:102750005037BD4680BD00BF0038024000700040C9
:1027600080B582B000AF78607868FEF715FF00BFD3
:102770000837BD4680BD000080B582B000AF7860EC
:10278000264806F0B3FF03469AB2254B1A80244B25
:102790001B88062B07D0224B1B88092B03D0204B0C
:1027A0001B88072B08D11E4B1B88DAB21D4B1A70F1
:1027B0001D4B01221A702AE0194B1B88022B0BD0EB
:1027C000174B1B88042B07D0154B1B88032B03D0FA
:1027D000134B1B88012B05D1114B1B88DAB2134B0D
:1027E0001A7014E00E4B1B88052B06D1104B0022EB
:1027F0001A700D4B00221A7009E0094B1B88DBB2DE
:102800001833DAB20A4B1A70074B01221A70094BBF
:1028100001221A7000BF0837BD4680BD1401002098
:1028200012010020180100200000002019010020E2
:10283000010000201A01002080B582B000AF78604E
:102840007B681B68054A934201D100F06BFC7868F5
:10285000FEF764FE00BF0837BD4680BD004401405E
:1028600080B400AF72B600BFFEE7000080B582B052
:1028700000AF00237B60124B5B6C114A43F4804332
:1028800053640F4B5B6C03F480437B607B680023D5
:102890003B600B4B1B6C0A4A43F080531364084B9C
:1028A0001B6C03F080533B603B6800220F216FF0EC
:1028B000010000F033FD00BF0837BD4680BD00BFFA
:1028C0000038024080B58CB000AF78600023BB6256
:1028D00000237B620023BB602E4B5B6C2D4A43F4CC
:1028E000003353642B4B5B6C03F40033BB60BB6859
:1028F00007F10C0207F110031146184601F0C0FB66
:1029000001F0AAFBB862BB6A234AA2FB03239B0C1B
:10291000013B7B62214B224A1A60204B40F2E73296
:10292000DA601E4A7B6A53601C4B00221A611B4B03
:1029300000229A60194B00229A61184801F0D2FBDC
:10294000034687F82F3097F82F30002B1BD1134800
:1029500001F018FC034687F82F3097F82F30002B32
:1029600011D1192000F0F6FC7B680F2B08D800224B
:102970007968192000F0D2FC0A4A7B68136002E0F3
:10298000012387F82F3097F82F3018463037BD468F
:1029900080BD00BF0038024083DE1B431C010020C5
:1029A000004401401800002080B400AFFEE780B46E
:1029B00000AFFEE780B400AFFEE780B400AFFEE7F3
:1029C00080B400AFFEE780B400AF00BFBD465DF845
:1029D000047B704780B500AF024801F00DFF00BFD7
:1029E00080BD00BF1C01002080B500AF024801F08F
:1029F00003FF00BF80BD00BF6401002080B500AFB1
:102A0000044803F005F804220349024802F0CFFF0E
:102A100000BF80BD3C0200201401002080B400AF44
:102A2000064BD3F88830054A43F47003C2F8883067
:102A300000BFBD465DF8047B704700BF00ED00E0BD
:102A400080B58AB000AF07F1180300221A605A60FF
:102A50009A60DA6007F1100300221A605A603B4660
:102A600000221A605A609A60DA602C4B4FF0804264
:102A70001A602A4B0F225A60284B00229A60274B7B
:102A80004FF6FF72DA60254B00221A61234B0022B9
:102A90009A61224801F026FB0346002B01D0FFF784
:102AA000DFFE4FF48053BB6107F1180319461B4842
:102AB00002F008F90346002B01D0FFF7D1FE1748BA
:102AC00001F026FD0346002B01D0FFF7C9FE0023CD
:102AD0003B6100237B6107F1100319460F4802F0A8
:102AE00005FE0346002B01D0FFF7BAFE00233B6032
:102AF00001237B600023BB600023FB603B46002278
:102B00001946064801F080FF0346002B01D0FFF76D
:102B1000A7FE00BF2837BD4680BD00BF640100206E
:102B200080B58AB000AF07F1200300221A605A6016
:102B30003B1D00221A605A609A60DA601A615A617D
:102B40009A61274B274A1A60254B0F225A60244B63
:102B500000229A60224B44F61F62DA60204B00226A
:102B60001A611F4B00229A611D4801F06DFB03465C
:102B7000002B01D0FFF774FE00233B6200237B6231
:102B800007F120031946164802F0B0FD0346002B5A
:102B900001D0FFF765FE60237B600023BB6000234C
:102BA000FB6000237B613B1D002219460C4801F0AD
:102BB000C7FF0346002B01D0FFF752FE3B1D042246
:102BC0001946074801F0BCFF0346002B01D0FFF770
:102BD00047FE034800F0DCF800BF2837BD4680BD43
:102BE000AC010020000C004080B588B000AF3B1D58
:102BF00000221A605A609A60DA601A615A619A611A
:102C00001E4B1F4A1A601D4B0F225A601B4B00229D
:102C10009A601A4B44F61F62DA60184B00221A6160
:102C2000164B00229A61154801F05CFA0346002B0E
:102C300001D0FFF715FE114801F006FB0346002BFB
:102C400001D0FFF70DFE60237B600023BB600023F3
:102C5000FB6000237B613B1D00221946074801F001
:102C60006FFF0346002B01D0FFF7FAFD034800F089
:102C70008FF800BF2037BD4680BD00BFF4010020A3
:102C80000048014080B58AB000AF786007F11403B6
:102C900000221A605A609A60DA601A617B681B68C9
:102CA000B3F1804F34D100233B61254B1B6C244A88
:102CB00043F001031364224B1B6C03F001033B61DF
:102CC0003B690023FB601E4B1B6B1D4A43F0010355
:102CD00013631B4B1B6B03F00103FB60FB6820239A
:102CE0007B610223BB610023FB6100233B62012364
:102CF0007B6207F114031946124800F0CBFB002257
:102D000005211C2000F00AFB1C2000F023FB12E030
:102D10007B681B680C4A93420DD10023BB60084BB3
:102D20005B6C074A43F480235364054B5B6C03F4EC
:102D30008023BB60BB6800BF2837BD4680BD00BF95
:102D400000380240000002400048014080B485B0D5
:102D500000AF78607B681B680B4A93420DD100235B
:102D6000FB600A4B1B6C094A43F008031364074BD2
:102D70001B6C03F00803FB60FB6800BF1437BD4603
:102D80005DF8047B704700BF000C00400038024033
:102D900080B58AB000AF786007F1140300221A6092
:102DA0005A609A60DA601A617B681B68244A934211
:102DB0001ED100233B61234B1B6B224A43F00103CE
:102DC0001363204B1B6B03F001033B613B6903233F
:102DD0007B610223BB610023FB6100233B62022372
:102DE0007B6207F114031946174800F053FB23E0F8
:102DF0007B681B68154A93421ED10023FB60114B70
:102E00001B6B104A43F0020313630E4B1B6B03F062
:102E10000203FB60FB684FF400737B610223BB611C
:102E20000023FB6100233B6203237B6207F1140351
:102E30001946074800F02EFB00BF2837BD4680BD6D
:102E4000000C0040003802400000024000480140F1
:102E5000000402400000000080B58AB000AF87ED9A
:102E6000000B07F10C0300221A605A609A60DA60C6
:102E70001A615A619A616023FB604FF000021C4B9B
:102E8000D7E90001FDF792FC02460B4610461946B1
:102E900015A3D3E90023FDF75FFB02460B4610465E
:102EA0001946FDF76BFD03463B6100237B61002360
:102EB000FB6107F10C03002219460E4801F040FEA9
:102EC0000346002B01D0FFF7CBFC0021094801F09D
:102ED000BBFA0021074801F007FA00BF2837BD46BA
:102EE00080BD00BFAFF3008000000000C087D3406A
:102EF00000005940AC01002080B58AB000AF87EDDA
:102F0000000B07F10C0300221A605A609A60DA6025
:102F10001A615A619A616023FB604FF000021C4BFA
:102F2000D7E90001FDF742FC02460B461046194660
:102F300015A3D3E90023FDF70FFB02460B4610460D
:102F40001946FDF71BFD03463B6100237B6100230F
:102F5000FB6107F10C03042219460E4801F0F0FD55
:102F60000346002B01D0FFF77BFC0421094801F048
:102F70006BFA0421074801F0B7F900BF2837BD46B6
:102F800080BD00BFAFF3008000000000C087D340C9
:102F900000005940AC01002080B500AF114B124A2F
:102FA0001A60104B4FF416525A600E4B00229A6072
:102FB0000C4B0022DA600B4B00221A61094B0C22E9
:102FC0005A61084B00229A61064B0022DA610548DB
:102FD00002F00EFC0346002B01D0FFF741FC00BFBE
:102FE00080BD00BF3C0200200044004080B58AB094
:102FF00000AF786007F1140300221A605A609A60EB
:10300000DA601A617B681B681D4A934233D1002342
:103010003B611C4B1B6C1B4A43F400331364194B7C
:103020001B6C03F400333B613B690023FB60154BD1
:103030001B6B144A43F001031363124B1B6B03F029
:103040000103FB60FB680C237B610223BB6100234F
:10305000FB6103233B6207237B6207F114031946DC
:10306000094800F017FA00220521262000F056F941
:10307000262000F06FF900BF2837BD4680BD00BF95
:10308000004400400038024000000240DFF834D025
:103090000D480E490E4A002302E0D458C4500433B0
:1030A000C4188C42F9D30B4A0B4C002301E0136087
:1030B0000432A242FBD3FFF7B1FC06F021FBFFF77D
:1030C000BBFA7047000001200000002088000020AB
:1030D000389B000888000020D44B0020FEE7000049
:1030E00080B500AF0E4B1B680D4A43F400731360AC
:1030F0000B4B1B680A4A43F480631360084B1B6840
:10310000074A43F480731360032000F0FCF80F209B
:10311000FFF7D8FBFFF7AAFB0023184680BD00BFCE
:10312000003C024080B400AF064B1B781A46064BA9
:103130001B681344044A136000BFBD465DF8047B5E
:10314000704700BF1C0000208002002080B400AF48
:10315000034B1B681846BD465DF8047B704700BFF3
:103160008002002080B584B000AF7860FFF7EEFFEA
:10317000B8607B68FB60FB68B3F1FF3F05D00A4B8A
:103180001B781A46FB681344FB6000BFFFF7DEFFA5
:103190000246BB68D31AFA689A42F7D800BF00BF4C
:1031A0001037BD4680BD00BF1C00002080B485B034
:1031B00000AF78607B6803F00703FB600C4BDB68B3
:1031C000BB60BA684FF6FF031340BB60FB681A028E
:1031D000BB68134343F0BF6343F40033BB60044A4E
:1031E000BB68D36000BF1437BD465DF8047B7047F1
:1031F00000ED00E080B400AF044BDB681B0A03F075
:1032000007031846BD465DF8047B704700ED00E0FB
:1032100080B483B000AF0346FB7197F90730002BF1
:103220000BDBFB7903F01F02074997F907305B09B5
:10323000012000FA02F241F8232000BF0C37BD46FE
:103240005DF8047B704700BF00E100E080B483B00C
:1032500000AF03463960FB7197F90730002B0ADB9A
:103260003B68DAB20C4997F907301201D2B20B442D
:1032700083F800230AE03B68DAB20849FB7903F0DF
:103280000F03043B1201D2B20B441A7600BF0C3775
:10329000BD465DF8047B704700E100E000ED00E012
:1032A00080B489B000AFF860B9607A60FB6803F061
:1032B0000703FB61FB69C3F10703042B28BF042349
:1032C000BB61FB690433062B02D9FB69033B00E0B9
:1032D00000237B614FF0FF32BB6902FA03F3DA434C
:1032E000BB681A407B699A404FF0FF317B6901FA55
:1032F00003F3D9437B680B40134318462437BD467C
:103300005DF8047B704780B582B000AF7860786864
:10331000FFF74CFF00BF0837BD4680BD80B586B0C3
:1033200000AF0346B9607A60FB7300237B61FFF74F
:1033300061FF78617A68B9687869FFF7B1FF024682
:1033400097F90F3011461846FFF780FF00BF183776
:10335000BD4680BD80B582B000AF0346FB7197F9D2
:1033600007301846FFF754FF00BF0837BD4680BD41
:1033700080B584B000AF78607B689B6DFB60FFF721
:10338000E5FEB8607B6893F83530DBB2022B08D0DD
:103390007B6880225A657B68002283F834200123F1
:1033A00052E07B681B681A687B681B6822F0160273
:1033B0001A607B681B685A697B681B6822F0800270
:1033C0005A617B681B6C002B03D17B689B6C002BC4
:1033D00007D07B681B681A687B681B6822F00802AC
:1033E0001A607B681B681A687B681B6822F0010200
:1033F0001A6013E0FFF7AAFE0246BB68D31A052B3A
:103400000CD97B6820225A657B68032283F835201B
:103410007B68002283F83420032315E07B681B6857
:103420001B6803F00103002BE4D17B68DB6D3F22B6
:103430009A40FB689A607B68012283F835207B689C
:10344000002283F83420002318461037BD4680BD83
:1034500080B483B000AF78607B6893F83530DBB21E
:10346000022B04D07B6880225A6501230CE07B6824
:10347000052283F835207B681B681A687B681B6807
:1034800022F001021A60002318460C37BD465DF891
:10349000047B704780B489B000AF78603960002346
:1034A0007B6100233B610023BB610023FB6159E189
:1034B0000122FB6902FA03F37B613B681B687A69AE
:1034C00013403B613A697B699A4240F048813B680E
:1034D0005B6803F00303012B05D03B685B6803F0D6
:1034E0000303022B30D17B689B68BB61FB695B00E7
:1034F000032202FA03F3DB43BA691340BB613B6862
:10350000DA68FB695B0002FA03F3BA691343BB6133
:103510007B68BA699A607B685B68BB610122FB6962
:1035200002FA03F3DB43BA691340BB613B685B6893
:103530001B0903F00102FB6902FA03F3BA691343A2
:10354000BB617B68BA695A603B685B6803F0030340
:10355000032B17D07B68DB68BB61FB695B00032230
:1035600002FA03F3DB43BA691340BB613B689A6814
:10357000FB695B0002FA03F3BA691343BB617B6822
:10358000BA69DA603B685B6803F00303022B23D15E
:10359000FB69DA087B68083253F82230BB61FB69AB
:1035A00003F007039B000F2202FA03F3DB43BA691F
:1035B0001340BB613B681A69FB6903F007039B007A
:1035C00002FA03F3BA691343BB61FB69DA087B684B
:1035D0000832B96943F822107B681B68BB61FB693C
:1035E0005B00032202FA03F3DB43BA691340BB61B9
:1035F0003B685B6803F00302FB695B0002FA03F3BC
:10360000BA691343BB617B68BA691A603B685B683F
:1036100003F44033002B00F0A2800023FB60574BE3
:103620005B6C564A43F480435364544B5B6C03F425
:103630008043FB60FB68524AFB699B08023352F8E7
:103640002330BB61FB6903F003039B000F2202FAE6
:1036500003F3DB43BA691340BB617B68494A934279
:1036600019D07B68484A934213D07B68474A9342FB
:103670000DD07B68464A934207D07B68454A934207
:1036800001D1042308E0072306E0032304E002231A
:1036900002E0012300E00023FA6902F00302920035
:1036A0009340BA691343BB613549FB699B080233F8
:1036B000BA6941F82320384B9B68BB613B69DB4307
:1036C000BA691340BB613B685B6803F48013002B4D
:1036D00003D0BA693B691343BB612F4ABB6993604E
:1036E0002D4BDB68BB613B69DB43BA691340BB61AF
:1036F0003B685B6803F40013002B03D0BA693B6995
:103700001343BB61244ABB69D360234B5B68BB6135
:103710003B69DB43BA691340BB613B685B6803F4F8
:103720000033002B03D0BA693B691343BB611A4ACB
:10373000BB695360184B1B68BB613B69DB43BA69CB
:103740001340BB613B685B6803F48033002B03D0FC
:10375000BA693B691343BB610F4ABB691360FB69DC
:103760000133FB61FB690F2B7FF6A2AE00BF00BFE8
:103770002437BD465DF8047B704700BF0038024027
:1037800000380140000002400004024000080240EE
:10379000000C024000100240003C014080B483B0A5
:1037A00000AF78600B467B8013467B707B78002BE4
:1037B00003D07A887B689A6103E07B881A047B686F
:1037C0009A6100BF0C37BD465DF8047B704700006E
:1037D00080B586B000AF78607B68002B01D10123F3
:1037E00067E27B681B6803F00103002B75D0884BF0
:1037F0009B6803F00C03042B0CD0854B9B6803F0F3
:103800000C03082B12D1824B5B6803F48003B3F5E1
:10381000800F0BD17E4B1B6803F40033002B5BD071
:103820007B685B68002B57D1012342E27B685B68B1
:10383000B3F5803F06D1764B1B68754A43F480335D
:1038400013601DE07B685B68B3F5A02F0CD1704B53
:103850001B686F4A43F4802313606D4B1B686C4AEE
:1038600043F4803313600BE0694B1B68684A23F410
:1038700080331360664B1B68654A23F48023136012
:103880007B685B68002B13D0FFF760FC386108E0B1
:10389000FFF75CFC02463B69D31A642B01D9032372
:1038A00007E25B4B1B6803F40033002BF0D014E0FD
:1038B000FFF74CFC386108E0FFF748FC02463B6923
:1038C000D31A642B01D90323F3E1514B1B6803F492
:1038D0000033002BF0D100E000BF7B681B6803F0D1
:1038E0000203002B63D04A4B9B6803F00C03002BB0
:1038F0000BD0474B9B6803F00C03082B1CD1444BA7
:103900005B6803F48003002B16D1414B1B6803F066
:103910000203002B05D07B68DB68012B01D001235B
:10392000C7E13B4B1B6823F0F8027B681B69DB0097
:10393000374913430B603AE07B68DB68002B20D0EB
:10394000344B01221A60FFF701FC386108E0FFF7F1
:10395000FDFB02463B69D31A022B01D90323A8E1E0
:103960002B4B1B6803F00203002BF0D0284B1B6885
:1039700023F0F8027B681B69DB00254913430B60C9
:1039800015E0244B00221A60FFF7E0FB386108E0E5
:10399000FFF7DCFB02463B69D31A022B01D9032354
:1039A00087E11B4B1B6803F00203002BF0D17B68FF
:1039B0001B6803F00803002B36D07B685B69002B83
:1039C00016D0154B01221A60FFF7C0FB386108E0E2
:1039D000FFF7BCFB02463B69D31A022B01D9032334
:1039E00067E10B4B5B6F03F00203002BF0D01BE091
:1039F000094B00221A60FFF7A9FB38610EE0FFF7C0
:103A0000A5FB02463B69D31A022B07D9032350E1D9
:103A10000038024000004742800E4742884B5B6FEF
:103A200003F00203002BEAD17B681B6803F0040358
:103A3000002B00F097800023FB75814B1B6C03F07B
:103A40008053002B0FD10023BB607D4B1B6C7C4A45
:103A500043F0805313647A4B1B6C03F08053BB60BC
:103A6000BB680123FB75774B1B6803F48073002B45
:103A700018D1744B1B68734A43F480731360FFF7CB
:103A800065FB386108E0FFF761FB02463B69D31A2A
:103A9000022B01D903230CE16A4B1B6803F48073EA
:103AA000002BF0D07B689B68012B06D1644B1B6F09
:103AB000634A43F0010313671CE07B689B68052B96
:103AC0000CD15F4B1B6F5E4A43F0040313675C4BE2
:103AD0001B6F5B4A43F0010313670BE0584B1B6FEE
:103AE000574A23F001031367554B1B6F544A23F0C9
:103AF000040313677B689B68002B15D0FFF726FB38
:103B000038610AE0FFF722FB02463B69D31A41F213
:103B10008832934201D90323CBE0494B1B6F03F05A
:103B20000203002BEED014E0FFF710FB38610AE02F
:103B3000FFF70CFB02463B69D31A41F288329342ED
:103B400001D90323B5E03E4B1B6F03F00203002BAA
:103B5000EED1FB7D012B05D1394B1B6C384A23F08C
:103B6000805313647B689B69002B00F0A180344B69
:103B70009B6803F00C03082B5CD07B689B69022BCD
:103B800041D1314B00221A60FFF7E0FA386108E0BA
:103B9000FFF7DCFA02463B69D31A022B01D9032353
:103BA00087E0274B1B6803F00073002BF0D17B6884
:103BB000DA697B681B6A1A437B685B6A9B011A435C
:103BC0007B689B6A5B08013B1B041A437B68DB6ACA
:103BD0001B061B4913434B601B4B01221A60FFF766
:103BE000B5FA386108E0FFF7B1FA02463B69D31A2B
:103BF000022B01D903235CE0114B1B6803F0007317
:103C0000002BF0D054E0104B00221A60FFF79EFA10
:103C1000386108E0FFF79AFA02463B69D31A022B93
:103C200001D9032345E0064B1B6803F00073002B0A
:103C3000F0D13DE07B689B69012B07D1012338E07F
:103C40000038024000700040600047421B4B5B6838
:103C5000FB607B689B69012B28D0FB6803F4800222
:103C60007B68DB699A4221D1FB6803F03F027B68E5
:103C70001B6A9A421AD1FA6847F6C07313407A68F1
:103C8000526A9201934211D1FB6803F440327B687F
:103C90009B6A5B08013B1B049A4207D1FB6803F057
:103CA00070627B68DB6A1B069A4201D0012300E048
:103CB000002318461837BD4680BD00BF00380240BB
:103CC00080B584B000AF786039607B68002B01D18B
:103CD0000123CCE0684B1B6803F007033A689A4263
:103CE0000CD9654B3A68D2B21A70634B1B6803F06B
:103CF00007033A689A4201D00123B8E07B681B6849
:103D000003F00203002B20D07B681B6803F0040340
:103D1000002B05D0594B9B68584A43F4E0539360FD
:103D20007B681B6803F00803002B05D0534B9B688E
:103D3000524A43F460439360504B9B6823F0F00277
:103D40007B689B684D4913438B607B681B6803F05D
:103D50000103002B44D07B685B68012B07D1474BE4
:103D60001B6803F40033002B19D101237FE07B682B
:103D70005B68022B03D07B685B68032B07D13F4B4A
:103D80001B6803F00073002B09D101236FE03B4B4C
:103D90001B6803F00203002B01D1012367E0374BBE
:103DA0009B6823F003027B685B68344913438B6094
:103DB000FFF7CCF9F8600AE0FFF7C8F90246FB68A4
:103DC000D31A41F28832934201D903234FE02B4B9F
:103DD0009B6803F00C027B685B689B009A42EBD106
:103DE000254B1B6803F007033A689A420CD2224B1A
:103DF0003A68D2B21A70204B1B6803F007033A6886
:103E00009A4201D0012332E07B681B6803F004036F
:103E1000002B08D0194B9B6823F4E0527B68DB68C9
:103E2000164913438B607B681B6803F00803002B63
:103E300009D0124B9B6823F460427B681B69DB004E
:103E40000E4913438B6000F021F802460B4B9B6830
:103E50001B0903F00F030A49CB5C22FA03F3094A5A
:103E60001360094B1B681846FEF72CFD002318460B
:103E70001037BD4680BD00BF003C02400038024004
:103E80000C9A000814000020180000202DE9B04F03
:103E900090B000AF00237B630023FB6300233B63F0
:103EA0000023BB63594B9B6803F00C03082B0DD018
:103EB000082B00F2A180002B02D0042B03D09BE042
:103EC000534BBB639BE0534BBB6398E04F4B5B682A
:103ED00003F03F037B634D4B5B6803F48003002BCF
:103EE00028D04A4B5B689B0900223B627A623B6A9E
:103EF000C3F308000021474B03FB01F2002300FB42
:103F000003F31344434AA0FB0212FA620A46BA6260
:103F1000FA6A1344FB627B6B0022BB61FA61D7E94A
:103F20000623D7E90A01FCF799FD02460B46134622
:103F3000FB6353E0354B5B689B0900223B617A6170
:103F40003B69C3F3080A4FF0000B52465B464FF043
:103F500000004FF00001590141EAD26150010246D0
:103F60000B46B2EB0A0863EB0B094FF000024FF06F
:103F700000034FEA891343EA98634FEA8812B2EBD1
:103F8000080463EB09054FF000024FF00003EB005B
:103F900043EA5473E20014461D4614EB0A033B60E7
:103FA00045EB0B037B604FF000024FF00003D7E9B5
:103FB000004529468B02214643EA915321468A0255
:103FC000104619467B6B0022BB60FA60D7E90223DA
:103FD000FCF744FD02460B461346FB630B4B5B6844
:103FE0001B0C03F0030301335B003B63FA6B3B6B79
:103FF000B2FBF3F3BB6302E0054BBB6300BFBB6BDB
:1040000018464037BD46BDE8B08F00BF00380240BB
:104010000024F40040787D0180B400AF034B1B689E
:104020001846BD465DF8047B704700BF14000020B1
:1040300080B500AFFFF7F0FF0246054B9B689B0A77
:1040400003F007030349CB5C22FA03F3184680BD53
:10405000003802401C9A000880B500AFFFF7DCFF73
:104060000246054B9B685B0B03F007030349CB5CDF
:1040700022FA03F3184680BD003802401C9A00085B
:1040800080B483B000AF786039607B680F221A601B
:10409000124B9B6803F003027B685A600F4B9B68CE
:1040A00003F0F0027B689A600C4B9B6803F4E052CB
:1040B0007B68DA60094B9B68DB0803F4E0527B689D
:1040C0001A61074B1B6803F007023B681A6000BFC8
:1040D0000C37BD465DF8047B704700BF00380240D6
:1040E000003C024080B582B000AF78607B68002B56
:1040F00001D1012341E07B6893F83D30DBB2002B16
:1041000006D17B68002283F83C207868FEF7BAFD70
:104110007B68022283F83D207B681A687B68043341
:104120001946104600F0F8FE7B68012283F846200D
:104130007B68012283F83E207B68012283F83F20C0
:104140007B68012283F840207B68012283F84120AC
:104150007B68012283F842207B68012283F8432098
:104160007B68012283F844207B68012283F8452084
:104170007B68012283F83D20002318460837BD469E
:1041800080BD000080B485B000AF78607B6893F894
:104190003D30DBB2012B01D0012344E07B680222D9
:1041A00083F83D207B681B68DA687B681B6842F0F7
:1041B0000102DA607B681B681E4A934218D07B6854
:1041C0001B68B3F1804F13D07B681B681A4A934277
:1041D0000ED07B681B68194A934209D07B681B6824
:1041E000174A934204D07B681B68164A934211D148
:1041F0007B681B689B6803F00703FB60FB68062B6A
:1042000010D07B681B681A687B681B6842F001024B
:104210001A6007E07B681B681A687B681B6842F0BD
:1042200001021A60002318461437BD465DF8047B6E
:10423000704700BF0000014000040040000800403B
:10424000000C00400040014080B582B000AF7860B3
:104250007B68002B01D1012341E07B6893F83D305E
:10426000DBB2002B06D17B68002283F83C20786803
:10427000FEF76CFD7B68022283F83D207B681A689C
:104280007B6804331946104600F046FE7B68012225
:1042900083F846207B68012283F83E207B68012258
:1042A00083F83F207B68012283F840207B6801224D
:1042B00083F841207B68012283F842207B68012239
:1042C00083F843207B68012283F844207B68012225
:1042D00083F845207B68012283F83D20002318469F
:1042E0000837BD4680BD000080B584B000AF78605F
:1042F00039603B68002B09D17B6893F83E30DBB214
:10430000012B14BF01230023DBB222E03B68042B06
:1043100009D17B6893F83F30DBB2012B14BF012336
:104320000023DBB215E03B68082B09D17B6893F8CA
:104330004030DBB2012B14BF01230023DBB208E0C5
:104340007B6893F84130DBB2012B14BF01230023BB
:10435000DBB2002B01D0012368E03B68002B04D1C5
:104360007B68022283F83E2013E03B68042B04D1D3
:104370007B68022283F83F200BE03B68082B04D1C6
:104380007B68022283F8402003E07B68022283F8E6
:1043900041207B681B6801223968184601F080F9CA
:1043A0007B681B68234A934207D17B681B685A6C61
:1043B0007B681B6842F400425A647B681B681D4A94
:1043C000934218D07B681B68B3F1804F13D07B6891
:1043D0001B68194A93420ED07B681B68174A9342A8
:1043E00009D07B681B68164A934204D07B681B681F
:1043F000144A934211D17B681B689B6803F0070342
:10440000FB60FB68062B10D07B681B681A687B6812
:104410001B6842F001021A6007E07B681B681A689B
:104420007B681B6842F001021A60002318461037AF
:10443000BD4680BD0000014000040040000800406F
:10444000000C00400040014080B582B000AF7860B1
:1044500039607B681B6800223968184601F020F932
:104460007B681B68294A934217D17B681B681A6ACC
:1044700041F211131340002B0FD17B681B681A6A9D
:1044800040F244431340002B07D17B681B685A6CF1
:104490007B681B6822F400425A647B681B681A6AB6
:1044A00041F211131340002B0FD17B681B681A6A6D
:1044B00040F244431340002B07D17B681B681A6805
:1044C0007B681B6822F001021A603B68002B04D154
:1044D0007B68012283F83E2013E03B68042B04D163
:1044E0007B68012283F83F200BE03B68082B04D156
:1044F0007B68012283F8402003E07B68012283F877
:104500004120002318460837BD4680BD0000014009
:1045100080B582B000AF78607B68002B01D10123A9
:1045200041E07B6893F83D30DBB2002B06D17B681D
:10453000002283F83C20786800F039F87B6802227A
:1045400083F83D207B681A687B680433194610465F
:1045500000F0E2FC7B68012283F846207B680122A0
:1045600083F83E207B68012283F83F207B6801228C
:1045700083F840207B68012283F841207B68012278
:1045800083F842207B68012283F843207B68012264
:1045900083F844207B68012283F845207B68012250
:1045A00083F83D20002318460837BD4680BD80B4FF
:1045B00083B000AF786000BF0C37BD465DF8047B68
:1045C0007047000080B584B000AF78603960002388
:1045D000FB733B68002B04D17B6893F83E30DBB261
:1045E00013E03B68042B04D17B6893F83F30DBB2C7
:1045F0000BE03B68082B04D17B6893F84030DBB2BA
:1046000003E07B6893F84130DBB2BB733B68002B5F
:1046100004D17B6893F84230DBB213E03B68042B93
:1046200004D17B6893F84330DBB20BE03B68082B86
:1046300004D17B6893F84430DBB203E07B6893F8E5
:104640004530DBB27B73BB7B012B02D17B7B012B23
:1046500001D00123C2E03B68002B04D17B68022219
:1046600083F83E2013E03B68042B04D17B680222D0
:1046700083F83F200BE03B68082B04D17B680222C3
:1046800083F8402003E07B68022283F841203B68E6
:10469000002B04D17B68022283F8422013E03B68A0
:1046A000042B04D17B68022283F843200BE03B6893
:1046B000082B04D17B68022283F8442003E07B6846
:1046C000022283F845203B680C2B41D801A252F806
:1046D00023F000BF09470008514700085147000870
:1046E000514700081B470008514700085147000880
:1046F000514700082D47000851470008514700085E
:10470000514700083F4700087B681B68DA687B68F0
:104710001B6842F00202DA601DE07B681B68DA6801
:104720007B681B6842F00402DA6014E07B681B6857
:10473000DA687B681B6842F00802DA600BE07B688D
:104740001B68DA687B681B6842F01002DA6002E0DE
:104750000123FB7300BFFB7B002B3ED17B681B68F2
:1047600001223968184600F09BFF7B681B681D4AD0
:10477000934218D07B681B68B3F1804F13D07B68DD
:104780001B68194A93420ED07B681B68174A9342F4
:1047900009D07B681B68164A934204D07B681B686B
:1047A000144A934211D17B681B689B6803F007038E
:1047B000BB60BB68062B10D07B681B681A687B68DF
:1047C0001B6842F001021A6007E07B681B681A68E8
:1047D0007B681B6842F001021A60FB7B18461037A9
:1047E000BD4680BD000001400004004000080040BC
:1047F000000C00400040014080B582B000AF7860FE
:104800007B681B681B6903F00203022B22D17B68C3
:104810001B68DB6803F00203022B1BD17B681B685B
:104820006FF002021A617B6801221A777B681B68AD
:104830009B6903F00303002B03D07868FDF790FF1A
:1048400005E0786800F04AFB786800F051FB7B686F
:1048500000221A777B681B681B6903F00403042B92
:1048600022D17B681B68DB6803F00403042B1BD197
:104870007B681B686FF004021A617B6802221A775A
:104880007B681B689B6903F44073002B03D0786836
:10489000FDF766FF05E0786800F020FB786800F01F
:1048A00027FB7B6800221A777B681B681B6903F073
:1048B0000803082B22D17B681B68DB6803F0080320
:1048C000082B1BD17B681B686FF008021A617B689C
:1048D00004221A777B681B68DB6903F00303002B53
:1048E00003D07868FDF73CFF05E0786800F0F6FA41
:1048F000786800F0FDFA7B6800221A777B681B68F5
:104900001B6903F01003102B22D17B681B68DB6846
:1049100003F01003102B1BD17B681B686FF0100293
:104920001A617B6808221A777B681B68DB6903F4CD
:104930004073002B03D07868FDF712FF05E078681C
:1049400000F0CCFA786800F0D3FA7B6800221A777E
:104950007B681B681B6903F00103012B0ED17B6888
:104960001B68DB6803F00103012B07D17B681B6820
:104970006FF001021A617868FDF75EFF7B681B68C3
:104980001B6903F08003802B0ED17B681B68DB68FA
:1049900003F08003802B07D17B681B686FF08002D7
:1049A0001A61786800F01AFF7B681B681B6903F0C6
:1049B0004003402B0ED17B681B68DB6803F040038B
:1049C000402B07D17B681B686FF040021A61786842
:1049D00000F098FA7B681B681B6903F02003202B0A
:1049E0000ED17B681B68DB6803F02003202B07D106
:1049F0007B681B686FF020021A61786800F0E4FEA3
:104A000000BF0837BD4680BD80B586B000AFF860F6
:104A1000B9607A600023FB75FB6893F83C30012B8A
:104A200001D1022388E0FB68012283F83C207B68E7
:104A3000002B1BD1FB681868BB681968BB685A68F3
:104A4000BB68DB6800F074FCFB681B689A69FB6854
:104A50001B6822F00C029A61FB681B689969BB68AD
:104A60009A68FB681B680A439A6160E07B68042BC4
:104A70001CD1FB681868BB681968BB685A68BB68BA
:104A8000DB6800F0ECFCFB681B689A69FB681B683C
:104A900022F440629A61FB681B689969BB689B6855
:104AA0001A02FB681B680A439A6140E07B68082B86
:104AB0001BD1FB681868BB681968BB685A68BB687B
:104AC000DB6800F039FDFB681B68DA69FB681B686E
:104AD00022F00C02DA61FB681B68D969BB689A682E
:104AE000FB681B680A43DA6121E07B680C2B1CD150
:104AF000FB681868BB681968BB685A68BB68DB68E4
:104B000000F056FDFB681B68DA69FB681B6822F43D
:104B10004062DA61FB681B68D969BB689B681A024E
:104B2000FB681B680A43DA6101E00123FB75FB683F
:104B3000002283F83C20FB7D18461837BD4680BD17
:104B400080B586B000AFF860B9607A600023FB756D
:104B5000FB6893F83C30012B01D10223AEE0FB68E7
:104B6000012283F83C207B680C2B00F29F8001A27D
:104B700052F823F0A94B0008AD4C0008AD4C0008DA
:104B8000AD4C0008E94B0008AD4C0008AD4C0008E6
:104B9000AD4C00082B4C0008AD4C0008AD4C000893
:104BA000AD4C00086B4C0008FB681B68B9681846E0
:104BB00000F032FAFB681B689A69FB681B6842F0D8
:104BC00008029A61FB681B689A69FB681B6822F0FF
:104BD00004029A61FB681B689969BB681A69FB68E3
:104BE0001B680A439A6164E0FB681B68B968184651
:104BF00000F078FAFB681B689A69FB681B6842F44E
:104C000000629A61FB681B689A69FB681B6822F462
:104C100080629A61FB681B689969BB681B691A020C
:104C2000FB681B680A439A6143E0FB681B68B9682C
:104C3000184600F0C3FAFB681B68DA69FB681B685A
:104C400042F00802DA61FB681B68DA69FB681B68DE
:104C500022F00402DA61FB681B68D969BB681A6933
:104C6000FB681B680A43DA6123E0FB681B68B968CC
:104C7000184600F00DFBFB681B68DA69FB681B68CF
:104C800042F40062DA61FB681B68DA69FB681B6842
:104C900022F48062DA61FB681B68D969BB681B6912
:104CA0001A02FB681B680A43DA6102E00123FB7504
:104CB00000BFFB68002283F83C20FB7D18461837B4
:104CC000BD4680BD80B584B000AF786039600023F8
:104CD000FB737B6893F83C30012B01D10223B4E0D5
:104CE0007B68012283F83C207B68022283F83D2008
:104CF0007B681B689B68BB60BB6823F07703BB6065
:104D0000BB6823F47F43BB607B681B68BA689A600A
:104D10003B681B68B3F5005F3ED0B3F5005F00F25F
:104D20008780B3F5805F00F08680B3F5805F7FD821
:104D3000702B1AD0702B7BD8602B50D0602B77D87B
:104D4000502B3CD0502B73D8402B58D0402B6FD8D1
:104D5000302B64D0302B6BD8202B60D0202B67D821
:104D6000002B5CD0102B5AD062E07B6818683B683F
:104D700099683B685A683B68DB6800F071FC7B68A7
:104D80001B689B68BB60BB6843F07703BB607B68B4
:104D90001B68BA689A604FE07B6818683B6899683E
:104DA0003B685A683B68DB6800F05AFC7B681B680C
:104DB0009A687B681B6842F480429A603CE07B689A
:104DC00018683B6859683B68DB681A4600F018FBB6
:104DD0007B681B685021184600F027FC2CE07B689C
:104DE00018683B6859683B68DB681A4600F074FB3A
:104DF0007B681B686021184600F017FC1CE07B688C
:104E000018683B6859683B68DB681A4600F0F8FA96
:104E10007B681B684021184600F007FC0CE07B68AB
:104E20001A683B681B681946104600F0FEFB03E059
:104E30000123FB7300E000BF7B68012283F83D2063
:104E40007B68002283F83C20FB7B18461037BD4668
:104E500080BD000080B485B000AF78603960002369
:104E6000FB603B680C2B31D801A252F823F000BF45
:104E7000A54E0008CD4E0008CD4E0008CD4E0008CE
:104E8000AF4E0008CD4E0008CD4E0008CD4E0008B4
:104E9000B94E0008CD4E0008CD4E0008CD4E00089A
:104EA000C34E00087B681B685B6BFB600FE07B6890
:104EB0001B689B6BFB600AE07B681B68DB6BFB601D
:104EC00005E07B681B681B6CFB6000E000BFFB68B3
:104ED00018461437BD465DF8047B704780B483B034
:104EE00000AF786000BF0C37BD465DF8047B7047AB
:104EF00080B483B000AF786000BF0C37BD465DF86A
:104F0000047B704780B483B000AF786000BF0C377B
:104F1000BD465DF8047B704780B485B000AF786013
:104F200039607B681B68FB607B68344A93420FD012
:104F30007B68B3F1804F0BD07B68314A934207D036
:104F40007B68304A934203D07B682F4A934208D152
:104F5000FB6823F07003FB603B685B68FA681343EF
:104F6000FB607B68254A93421BD07B68B3F1804F7E
:104F700017D07B68224A934213D07B68214A934220
:104F80000FD07B68204A93420BD07B681F4A934224
:104F900007D07B681E4A934203D07B681D4A934228
:104FA00008D1FB6823F44073FB603B68DB68FA6858
:104FB0001343FB60FB6823F080023B685B6913438B
:104FC000FB607B68FA681A603B689A687B68DA6203
:104FD0003B681A687B689A627B68084A934203D1EF
:104FE0003B681A697B681A637B6801225A6100BFBB
:104FF0001437BD465DF8047B704700BF00000140D8
:105000000004004000080040000C00400040014047
:10501000004401400048014080B487B000AF786090
:1050200039607B681B6A23F001027B681A627B6827
:105030001B6A7B617B685B683B617B689B69FB608B
:10504000FB6823F07003FB60FB6823F00303FB6045
:105050003B681B68FA681343FB607B6923F002031B
:105060007B613B689B687A6913437B617B681C4A60
:1050700093420CD17B6923F008037B613B68DB68BA
:105080007A6913437B617B6923F004037B617B684E
:10509000134A934211D13B6923F480733B613B690E
:1050A00023F400733B613B685B693A6913433B61DE
:1050B0003B689B693A6913433B617B683A695A6074
:1050C0007B68FA689A613B685A687B685A637B68B8
:1050D0007A691A6200BF1C37BD465DF8047B7047D1
:1050E0000000014080B487B000AF786039607B6811
:1050F0001B6A23F010027B681A627B681B6A7B6163
:105100007B685B683B617B689B69FB60FB6823F4A1
:10511000E043FB60FB6823F44073FB603B681B6863
:105120001B02FA681343FB607B6923F020037B6159
:105130003B689B681B017A6913437B617B681E4A4D
:1051400093420DD17B6923F080037B613B68DB6870
:105150001B017A6913437B617B6923F040037B6108
:105160007B68154A934213D13B6923F480633B610A
:105170003B6923F400633B613B685B699B003A69D0
:1051800013433B613B689B699B003A6913433B6156
:105190007B683A695A607B68FA689A613B685A682A
:1051A0007B689A637B687A691A6200BF1C37BD46C8
:1051B0005DF8047B704700BF0000014080B487B0F9
:1051C00000AF786039607B681B6A23F480727B686B
:1051D0001A627B681B6A7B617B685B683B617B68EA
:1051E000DB69FB60FB6823F07003FB60FB6823F066
:1051F0000303FB603B681B68FA681343FB607B6931
:1052000023F400737B613B689B681B027A6913433C
:105210007B617B681D4A93420DD17B6923F4006357
:105220007B613B68DB681B027A6913437B617B69A6
:1052300023F480637B617B68144A934213D13B69FA
:1052400023F480533B613B6923F400533B613B688B
:105250005B691B013A6913433B613B689B691B0116
:105260003A6913433B617B683A695A607B68FA6824
:10527000DA613B685A687B68DA637B687A691A622C
:1052800000BF1C37BD465DF8047B7047000001403D
:1052900080B487B000AF786039607B681B6A23F404
:1052A00080527B681A627B681B6A3B617B685B6823
:1052B0007B617B68DB69FB60FB6823F4E043FB6098
:1052C000FB6823F44073FB603B681B681B02FA68B1
:1052D0001343FB603B6923F400533B613B689B68CD
:1052E0001B033A6913433B617B68104A934209D11F
:1052F0007B6923F480437B613B685B699B017A692E
:1053000013437B617B687A695A607B68FA68DA616B
:105310003B685A687B681A647B683A691A6200BF06
:105320001C37BD465DF8047B704700BF000001409C
:1053300080B487B000AFF860B9607A603B60FB680A
:105340001B6A23F00102FB681A62FB689B697B61A0
:10535000FB681B6A3B61FB68244A934213D0FB68DD
:10536000B3F1804F0FD0FB68214A93420BD0FB680A
:10537000204A934207D0FB681F4A934203D0FB6840
:105380001E4A934201D1012300E00023002B08D0E4
:105390007B6923F003037B617A697B6813437B613C
:1053A00003E07B6943F001037B617B6923F0F00339
:1053B0007B613B681B01DBB27A6913437B613B690C
:1053C00023F00A033B61BB6803F00A033A69134305
:1053D0003B61FB687A699A61FB683A691A6200BFAF
:1053E0001C37BD465DF8047B704700BF00000140DC
:1053F0000004004000080040000C00400040014054
:1054000080B487B000AFF860B9607A60FB681B6A4F
:105410007B61FB681B6A23F00102FB681A62FB6870
:105420009B693B613B6923F0F0033B617B681B0197
:105430003A6913433B617B6923F00A037B617A6914
:10544000BB6813437B61FB683A699A61FB687A69C0
:105450001A6200BF1C37BD465DF8047B704780B4FC
:1054600087B000AFF860B9607A603B60FB681B6A88
:1054700023F01002FB681A62FB689B697B61FB6882
:105480001B6A3B617B6923F440737B617B681B0271
:105490007A6913437B617B6923F470437B613B68CA
:1054A0001B039BB27A6913437B613B6923F0A00322
:1054B0003B61BB681B0103F0A0033A6913433B61E6
:1054C000FB687A699A61FB683A691A6200BF1C3707
:1054D000BD465DF8047B704780B487B000AFF860CC
:1054E000B9607A60FB681B6A23F01002FB681A62DD
:1054F000FB689B697B61FB681B6A3B617B6923F4EA
:1055000070437B617B681B037A6913437B613B6952
:1055100023F0A0033B61BB681B013A6913433B6165
:10552000FB687A699A61FB683A691A6200BF1C37A6
:10553000BD465DF8047B704780B487B000AFF8606B
:10554000B9607A603B60FB681B6A23F48072FB6879
:105550001A62FB68DB697B61FB681B6A3B617B69E4
:1055600023F003037B617A697B6813437B617B696A
:1055700023F0F0037B613B681B01DBB27A691343C4
:105580007B613B6923F420633B61BB681B0203F42E
:1055900020633A6913433B61FB687A69DA61FB680F
:1055A0003A691A6200BF1C37BD465DF8047B70473C
:1055B00080B487B000AFF860B9607A603B60FB6888
:1055C0001B6A23F48052FB681A62FB68DB697B610B
:1055D000FB681B6A3B617B6923F440737B617B68DA
:1055E0001B027A6913437B617B6923F470437B61FF
:1055F0003B681B039BB27A6913437B613B6923F4CD
:1056000020433B61BB681B0303F420433A69134307
:105610003B61FB687A69DA61FB683A691A6200BF2C
:105620001C37BD465DF8047B704780B485B000AF81
:10563000786039607B689B68FB60FB6823F07003CF
:10564000FB603A68FB68134343F00703FB607B6829
:10565000FA689A6000BF1437BD465DF8047B704756
:1056600080B487B000AFF860B9607A603B60FB68D7
:105670009B687B617B6923F47F437B613B681A02F3
:105680007B681A43BB6813437A6913437B61FB68E9
:105690007A699A6000BF1C37BD465DF8047B70478D
:1056A00080B487B000AFF860B9607A60BB6803F07F
:1056B0001F03012202FA03F37B61FB681A6A7B690C
:1056C000DB431A40FB681A62FB681A6ABB6803F086
:1056D0001F03796801FA03F31A43FB681A6200BFDB
:1056E0001C37BD465DF8047B7047000080B485B070
:1056F00000AF786039607B6893F83C30012B01D1B2
:10570000022350E07B68012283F83C207B68022260
:1057100083F83D207B681B685B68FB607B681B68C7
:105720009B68BB60FB6823F07003FB603B681B68F1
:10573000FA681343FB607B681B68FA685A607B68F1
:105740001B681C4A934218D07B681B68B3F1804FDA
:1057500013D07B681B68184A93420ED07B681B6885
:10576000164A934209D07B681B68154A934204D0BD
:105770007B681B68134A93420CD1BB6823F08003FB
:10578000BB603B685B68BA681343BB607B681B689F
:10579000BA689A607B68012283F83D207B6800220A
:1057A00083F83C20002318461437BD465DF8047B7F
:1057B000704700BF000001400004004000080040A6
:1057C000000C00400040014080B483B000AF78601E
:1057D00000BF0C37BD465DF8047B704780B483B0D2
:1057E00000AF786000BF0C37BD465DF8047B7047A2
:1057F00080B582B000AF78607B68002B01D10123B7
:105800003FE07B6893F83D30DBB2002B06D17B682C
:10581000002283F83C207868FDF7E8FB7B682422AF
:1058200083F83D207B681B68DA687B681B6822F47C
:105830000052DA60786800F0DFFD7B681B681A6947
:105840007B681B6822F490421A617B681B685A6966
:105850007B681B6822F02A025A617B681B68DA6841
:105860007B681B6842F40052DA607B6800221A648D
:105870007B68202283F83D207B68202283F83E202D
:10588000002318460837BD4680BD80B58AB002AFF8
:10589000F860B9603B601346FB8000237B61FB68C6
:1058A00093F83D30DBB2202B7CD1BB68002B02D0BB
:1058B000FB88002B01D1012375E0FB6893F83C3095
:1058C000012B01D102236EE0FB68012283F83C200A
:1058D000FB6800221A64FB68212283F83D20FDF753
:1058E00035FC7861FB68FA889A84FB68FA88DA8468
:1058F000FB689B68B3F5805F08D1FB681B69002BD0
:1059000004D10023FB61BB68BB6103E0BB68FB61A2
:105910000023BB61FB68002283F83C202AE03B683F
:1059200000937B6900228021F86800F01FFB03468A
:10593000002B01D0032336E0FB69002B0BD1BB69A0
:105940001B881A46FB681B68C2F308025A60BB69D1
:105950000233BB6107E0FB691A78FB681B685A6079
:10596000FB690133FB61FB68DB8C9BB2013B9AB2A4
:10597000FB68DA84FB68DB8C9BB2002BCFD13B68E1
:1059800000937B6900224021F86800F0EFFA03469B
:10599000002B01D0032306E0FB68202283F83D2082
:1059A000002300E0022318462037BD4680BD80B5A5
:1059B00084B000AFF860B9601346FB80FB6893F8D1
:1059C0003E30DBB2202B1DD1BB68002B02D0FB8800
:1059D000002B01D1012316E0FB6893F83C30012B2A
:1059E00001D102230FE0FB68012283F83C20FB6811
:1059F00000221A63FB881A46B968F86800F024FB95
:105A0000034600E0022318461037BD4680BD000063
:105A100080B5BAB000AF78607B681B681B68C7F8B8
:105A2000E4307B681B68DB68C7F8E0307B681B6884
:105A30005B69C7F8DC300023C7F8D8300023C7F80B
:105A4000D430D7F8E43003F00F03C7F8D830D7F8D4
:105A5000D830002B0FD1D7F8E43003F02003002B0F
:105A600009D0D7F8E03003F02003002B03D078688A
:105A700000F007FC56E2D7F8D830002B00F0DE80AB
:105A8000D7F8DC3003F00103002B06D1D7F8E03063
:105A900003F49073002B00F0D180D7F8E43003F0CA
:105AA0000103002B0BD0D7F8E03003F48073002BF8
:105AB00005D07B681B6C43F001027B681A64D7F841
:105AC000E43003F00403002B0BD0D7F8DC3003F0F4
:105AD0000103002B05D07B681B6C43F002027B683E
